{
  "contractName": "MutualAgreement",
  "abi": [
    {
      "inputs": [],
      "payable": false,
      "stateMutability": "nonpayable",
      "type": "constructor"
    },
    {
      "anonymous": false,
      "inputs": [],
      "name": "CrossContractValidateBegin",
      "type": "event"
    },
    {
      "anonymous": false,
      "inputs": [],
      "name": "CrossContractValidateEnd",
      "type": "event"
    },
    {
      "anonymous": false,
      "inputs": [],
      "name": "pollAddressSet",
      "type": "event"
    },
    {
      "payable": true,
      "stateMutability": "payable",
      "type": "fallback"
    },
    {
      "constant": true,
      "inputs": [],
      "name": "getMaOK",
      "outputs": [
        {
          "internalType": "uint8",
          "name": "",
          "type": "uint8"
        }
      ],
      "payable": false,
      "stateMutability": "view",
      "type": "function"
    },
    {
      "constant": false,
      "inputs": [
        {
          "internalType": "uint8",
          "name": "_ok",
          "type": "uint8"
        }
      ],
      "name": "setMaOK",
      "outputs": [],
      "payable": false,
      "stateMutability": "nonpayable",
      "type": "function"
    },
    {
      "constant": true,
      "inputs": [],
      "name": "getMaResult",
      "outputs": [
        {
          "internalType": "uint8",
          "name": "",
          "type": "uint8"
        }
      ],
      "payable": false,
      "stateMutability": "view",
      "type": "function"
    },
    {
      "constant": false,
      "inputs": [
        {
          "internalType": "uint8",
          "name": "_result",
          "type": "uint8"
        }
      ],
      "name": "setMaResult",
      "outputs": [],
      "payable": false,
      "stateMutability": "nonpayable",
      "type": "function"
    },
    {
      "constant": true,
      "inputs": [
        {
          "internalType": "uint256",
          "name": "idx",
          "type": "uint256"
        }
      ],
      "name": "getMyMap",
      "outputs": [
        {
          "internalType": "uint256",
          "name": "",
          "type": "uint256"
        }
      ],
      "payable": false,
      "stateMutability": "view",
      "type": "function"
    },
    {
      "constant": false,
      "inputs": [
        {
          "internalType": "uint256",
          "name": "idx",
          "type": "uint256"
        },
        {
          "internalType": "uint256",
          "name": "_myMap",
          "type": "uint256"
        }
      ],
      "name": "setMyMap",
      "outputs": [],
      "payable": false,
      "stateMutability": "nonpayable",
      "type": "function"
    },
    {
      "constant": true,
      "inputs": [],
      "name": "getOwner",
      "outputs": [
        {
          "internalType": "address",
          "name": "",
          "type": "address"
        }
      ],
      "payable": false,
      "stateMutability": "view",
      "type": "function"
    },
    {
      "constant": false,
      "inputs": [
        {
          "internalType": "address",
          "name": "newAddy",
          "type": "address"
        }
      ],
      "name": "setPollAddress",
      "outputs": [
        {
          "internalType": "bool",
          "name": "",
          "type": "bool"
        }
      ],
      "payable": false,
      "stateMutability": "nonpayable",
      "type": "function"
    },
    {
      "constant": true,
      "inputs": [],
      "name": "getPollAddress",
      "outputs": [
        {
          "internalType": "address",
          "name": "",
          "type": "address"
        }
      ],
      "payable": false,
      "stateMutability": "view",
      "type": "function"
    },
    {
      "constant": true,
      "inputs": [],
      "name": "getStateVars",
      "outputs": [
        {
          "internalType": "uint256",
          "name": "",
          "type": "uint256"
        },
        {
          "internalType": "uint8",
          "name": "",
          "type": "uint8"
        },
        {
          "internalType": "string",
          "name": "",
          "type": "string"
        },
        {
          "internalType": "address",
          "name": "",
          "type": "address"
        },
        {
          "internalType": "int8",
          "name": "",
          "type": "int8"
        }
      ],
      "payable": false,
      "stateMutability": "view",
      "type": "function"
    },
    {
      "constant": true,
      "inputs": [
        {
          "internalType": "bytes32",
          "name": "poll32",
          "type": "bytes32"
        },
        {
          "internalType": "string",
          "name": "fnName",
          "type": "string"
        },
        {
          "internalType": "uint8",
          "name": "vt",
          "type": "uint8"
        }
      ],
      "name": "dumpDataCache",
      "outputs": [
        {
          "internalType": "string",
          "name": "",
          "type": "string"
        },
        {
          "internalType": "uint256",
          "name": "",
          "type": "uint256"
        },
        {
          "internalType": "bytes32[]",
          "name": "",
          "type": "bytes32[]"
        }
      ],
      "payable": false,
      "stateMutability": "view",
      "type": "function"
    },
    {
      "constant": false,
      "inputs": [
        {
          "internalType": "bytes32",
          "name": "poll32",
          "type": "bytes32"
        },
        {
          "internalType": "string",
          "name": "fnName",
          "type": "string"
        },
        {
          "internalType": "uint8",
          "name": "vt",
          "type": "uint8"
        },
        {
          "internalType": "bytes32[]",
          "name": "data",
          "type": "bytes32[]"
        }
      ],
      "name": "setCache",
      "outputs": [],
      "payable": false,
      "stateMutability": "nonpayable",
      "type": "function"
    },
    {
      "constant": true,
      "inputs": [
        {
          "internalType": "string",
          "name": "_poll",
          "type": "string"
        },
        {
          "internalType": "uint8",
          "name": "validationType",
          "type": "uint8"
        }
      ],
      "name": "serialiseStakers",
      "outputs": [
        {
          "internalType": "address[]",
          "name": "",
          "type": "address[]"
        }
      ],
      "payable": false,
      "stateMutability": "pure",
      "type": "function"
    },
    {
      "constant": true,
      "inputs": [
        {
          "internalType": "string",
          "name": "_poll",
          "type": "string"
        },
        {
          "internalType": "uint8",
          "name": "validationType",
          "type": "uint8"
        }
      ],
      "name": "serialiseProofs",
      "outputs": [
        {
          "internalType": "address[]",
          "name": "",
          "type": "address[]"
        }
      ],
      "payable": false,
      "stateMutability": "pure",
      "type": "function"
    },
    {
      "constant": true,
      "inputs": [],
      "name": "proofType",
      "outputs": [
        {
          "internalType": "uint8",
          "name": "",
          "type": "uint8"
        }
      ],
      "payable": false,
      "stateMutability": "pure",
      "type": "function"
    },
    {
      "constant": true,
      "inputs": [
        {
          "internalType": "bytes32",
          "name": "_bytes32",
          "type": "bytes32"
        }
      ],
      "name": "bytes32ToBytes",
      "outputs": [
        {
          "internalType": "bytes",
          "name": "",
          "type": "bytes"
        }
      ],
      "payable": false,
      "stateMutability": "pure",
      "type": "function"
    },
    {
      "constant": true,
      "inputs": [
        {
          "internalType": "bytes",
          "name": "b",
          "type": "bytes"
        }
      ],
      "name": "bytesToBytes32",
      "outputs": [
        {
          "internalType": "bytes32",
          "name": "bts",
          "type": "bytes32"
        }
      ],
      "payable": false,
      "stateMutability": "pure",
      "type": "function"
    },
    {
      "constant": true,
      "inputs": [
        {
          "internalType": "bytes32",
          "name": "_bytes32",
          "type": "bytes32"
        }
      ],
      "name": "bytes32ToString",
      "outputs": [
        {
          "internalType": "string",
          "name": "",
          "type": "string"
        }
      ],
      "payable": false,
      "stateMutability": "pure",
      "type": "function"
    },
    {
      "constant": true,
      "inputs": [
        {
          "internalType": "bytes32[]",
          "name": "data",
          "type": "bytes32[]"
        }
      ],
      "name": "bytes32ArrayToString",
      "outputs": [
        {
          "internalType": "string",
          "name": "",
          "type": "string"
        }
      ],
      "payable": false,
      "stateMutability": "pure",
      "type": "function"
    },
    {
      "constant": true,
      "inputs": [
        {
          "internalType": "bytes",
          "name": "data",
          "type": "bytes"
        }
      ],
      "name": "bytesSplit32",
      "outputs": [
        {
          "internalType": "bytes32",
          "name": "",
          "type": "bytes32"
        },
        {
          "internalType": "bytes",
          "name": "",
          "type": "bytes"
        }
      ],
      "payable": false,
      "stateMutability": "pure",
      "type": "function"
    },
    {
      "constant": false,
      "inputs": [
        {
          "internalType": "bytes4",
          "name": "fnNameHash",
          "type": "bytes4"
        },
        {
          "internalType": "string",
          "name": "poll",
          "type": "string"
        },
        {
          "internalType": "uint256",
          "name": "valid",
          "type": "uint256"
        },
        {
          "internalType": "uint8",
          "name": "vt",
          "type": "uint8"
        }
      ],
      "name": "crossContractCall",
      "outputs": [
        {
          "internalType": "bytes32[]",
          "name": "",
          "type": "bytes32[]"
        }
      ],
      "payable": false,
      "stateMutability": "nonpayable",
      "type": "function"
    },
    {
      "constant": false,
      "inputs": [
        {
          "internalType": "address",
          "name": "_pollContract",
          "type": "address"
        },
        {
          "internalType": "string",
          "name": "_poll",
          "type": "string"
        },
        {
          "internalType": "bytes32",
          "name": "_reveal",
          "type": "bytes32"
        }
      ],
      "name": "validate",
      "outputs": [
        {
          "internalType": "bool",
          "name": "success",
          "type": "bool"
        }
      ],
      "payable": true,
      "stateMutability": "payable",
      "type": "function"
    }
  ],
  "bytecode": "0x608060405260826004557fffffffffffffffffffffffffffffffffffffffffffffffffffffffffffffffff600560006101000a81548160ff021916908360000b60ff160217905550739d26a8a5db7dc10689692caf8d52c912958409cf600560016101000a81548173ffffffffffffffffffffffffffffffffffffffff021916908373ffffffffffffffffffffffffffffffffffffffff1602179055503480156100a857600080fd5b506001600560006101000a81548160ff021916908360000b60ff1602179055506125dd806100d76000396000f3fe6080604052600436106101355760003560e01c806356024939116100ab5780639201de551161006f5780639201de5514610d645780639cbc87a314610e18578063a0730f5214610f56578063bfe370d914610fad578063d0da340c14611089578063e76285e6146110ba57610135565b8063560249391461098d578063893d20e814610a7557806389ca453c14610acc5780638a9392c014610b0a5780638e3dca0b14610c0757610135565b806326a9cdf7116100fd57806326a9cdf71461032a57806327ee5210146104725780632888416a1461061957806342ecc5b81461078c5780634c0999c7146107f55780634f6725fb146108a957610135565b806305af5d351461013f5780630d15d9971461017057806313311a1c146101ae578063176c11e9146102965780632615c3e9146102e5575b61013d6110eb565b005b34801561014b57600080fd5b50610154611138565b604051808260ff1660ff16815260200191505060405180910390f35b34801561017c57600080fd5b506101ac6004803603602081101561019357600080fd5b81019080803560ff169060200190929190505050611141565b005b3480156101ba57600080fd5b5061023f600480360360408110156101d157600080fd5b81019080803590602001906401000000008111156101ee57600080fd5b82018360208201111561020057600080fd5b8035906020019184600183028401116401000000008311171561022257600080fd5b9091929391929390803560ff16906020019092919050505061115f565b6040518080602001828103825283818151815260200191508051906020019060200280838360005b83811015610282578082015181840152602081019050610267565b505050509050019250505060405180910390f35b3480156102a257600080fd5b506102cf600480360360208110156102b957600080fd5b81019080803590602001909291905050506112c8565b6040518082815260200191505060405180910390f35b3480156102f157600080fd5b506103286004803603604081101561030857600080fd5b8101908080359060200190929190803590602001909291905050506112e5565b005b34801561033657600080fd5b506103f06004803603602081101561034d57600080fd5b810190808035906020019064010000000081111561036a57600080fd5b82018360208201111561037c57600080fd5b8035906020019184600183028401116401000000008311171561039e57600080fd5b91908080601f016020809104026020016040519081016040528093929190818152602001838380828437600081840152601f19601f820116905080830192505050505050509192919290505050611301565b6040518083815260200180602001828103825283818151815260200191508051906020019080838360005b8381101561043657808201518184015260208101905061041b565b50505050905090810190601f1680156104635780820380516001836020036101000a031916815260200191505b50935050505060405180910390f35b34801561047e57600080fd5b5061054f6004803603606081101561049557600080fd5b8101908080359060200190929190803590602001906401000000008111156104bc57600080fd5b8201836020820111156104ce57600080fd5b803590602001918460018302840111640100000000831117156104f057600080fd5b91908080601f016020809104026020016040519081016040528093929190818152602001838380828437600081840152601f19601f820116905080830192505050505050509192919290803560ff16906020019092919050505061148c565b604051808060200184815260200180602001838103835286818151815260200191508051906020019080838360005b8381101561059957808201518184015260208101905061057e565b50505050905090810190601f1680156105c65780820380516001836020036101000a031916815260200191505b50838103825284818151815260200191508051906020019060200280838360005b838110156106025780820151818401526020810190506105e7565b505050509050019550505050505060405180910390f35b34801561062557600080fd5b5061078a6004803603608081101561063c57600080fd5b81019080803590602001909291908035906020019064010000000081111561066357600080fd5b82018360208201111561067557600080fd5b8035906020019184600183028401116401000000008311171561069757600080fd5b91908080601f016020809104026020016040519081016040528093929190818152602001838380828437600081840152601f19601f820116905080830192505050505050509192919290803560ff1690602001909291908035906020019064010000000081111561070757600080fd5b82018360208201111561071957600080fd5b8035906020019184602083028401116401000000008311171561073b57600080fd5b919080806020026020016040519081016040528093929190818152602001838360200280828437600081840152601f19601f8201169050808301925050505050505091929192905050506115cc565b005b34801561079857600080fd5b506107db600480360360208110156107af57600080fd5b81019080803573ffffffffffffffffffffffffffffffffffffffff169060200190929190505050611685565b604051808215151515815260200191505060405180910390f35b34801561080157600080fd5b5061082e6004803603602081101561081857600080fd5b81019080803590602001909291905050506116fd565b6040518080602001828103825283818151815260200191508051906020019080838360005b8381101561086e578082015181840152602081019050610853565b50505050905090810190601f16801561089b5780820380516001836020036101000a031916815260200191505b509250505060405180910390f35b3480156108b557600080fd5b506108be6117a5565b604051808681526020018560ff1660ff168152602001806020018473ffffffffffffffffffffffffffffffffffffffff1673ffffffffffffffffffffffffffffffffffffffff1681526020018360000b60000b8152602001828103825285818151815260200191508051906020019080838360005b8381101561094e578082015181840152602081019050610933565b50505050905090810190601f16801561097b5780820380516001836020036101000a031916815260200191505b50965050505050505060405180910390f35b34801561099957600080fd5b50610a1e600480360360408110156109b057600080fd5b81019080803590602001906401000000008111156109cd57600080fd5b8201836020820111156109df57600080fd5b80359060200191846001830284011164010000000083111715610a0157600080fd5b9091929391929390803560ff16906020019092919050505061182f565b6040518080602001828103825283818151815260200191508051906020019060200280838360005b83811015610a61578082015181840152602081019050610a46565b505050509050019250505060405180910390f35b348015610a8157600080fd5b50610a8a611998565b604051808273ffffffffffffffffffffffffffffffffffffffff1673ffffffffffffffffffffffffffffffffffffffff16815260200191505060405180910390f35b348015610ad857600080fd5b50610b0860048036036020811015610aef57600080fd5b81019080803560ff1690602001909291905050506119c1565b005b610bed60048036036060811015610b2057600080fd5b81019080803573ffffffffffffffffffffffffffffffffffffffff16906020019092919080359060200190640100000000811115610b5d57600080fd5b820183602082011115610b6f57600080fd5b80359060200191846001830284011164010000000083111715610b9157600080fd5b91908080601f016020809104026020016040519081016040528093929190818152602001838380828437600081840152601f19601f820116905080830192505050505050509192919290803590602001909291905050506119df565b604051808215151515815260200191505060405180910390f35b348015610c1357600080fd5b50610d0d60048036036080811015610c2a57600080fd5b8101908080357bffffffffffffffffffffffffffffffffffffffffffffffffffffffff1916906020019092919080359060200190640100000000811115610c7057600080fd5b820183602082011115610c8257600080fd5b80359060200191846001830284011164010000000083111715610ca457600080fd5b91908080601f016020809104026020016040519081016040528093929190818152602001838380828437600081840152601f19601f82011690508083019250505050505050919291929080359060200190929190803560ff169060200190929190505050611ca8565b6040518080602001828103825283818151815260200191508051906020019060200280838360005b83811015610d50578082015181840152602081019050610d35565b505050509050019250505060405180910390f35b348015610d7057600080fd5b50610d9d60048036036020811015610d8757600080fd5b8101908080359060200190929190505050611d24565b6040518080602001828103825283818151815260200191508051906020019080838360005b83811015610ddd578082015181840152602081019050610dc2565b50505050905090810190601f168015610e0a5780820380516001836020036101000a031916815260200191505b509250505060405180910390f35b348015610e2457600080fd5b50610edb60048036036020811015610e3b57600080fd5b8101908080359060200190640100000000811115610e5857600080fd5b820183602082011115610e6a57600080fd5b80359060200191846020830284011164010000000083111715610e8c57600080fd5b919080806020026020016040519081016040528093929190818152602001838360200280828437600081840152601f19601f820116905080830192505050505050509192919290505050611d3b565b6040518080602001828103825283818151815260200191508051906020019080838360005b83811015610f1b578082015181840152602081019050610f00565b50505050905090810190601f168015610f485780820380516001836020036101000a031916815260200191505b509250505060405180910390f35b348015610f6257600080fd5b50610f6b611efe565b604051808273ffffffffffffffffffffffffffffffffffffffff1673ffffffffffffffffffffffffffffffffffffffff16815260200191505060405180910390f35b348015610fb957600080fd5b5061107360048036036020811015610fd057600080fd5b8101908080359060200190640100000000811115610fed57600080fd5b820183602082011115610fff57600080fd5b8035906020019184600183028401116401000000008311171561102157600080fd5b91908080601f016020809104026020016040519081016040528093929190818152602001838380828437600081840152601f19601f820116905080830192505050505050509192919290505050611f28565b6040518082815260200191505060405180910390f35b34801561109557600080fd5b5061109e611f3b565b604051808260ff1660ff16815260200191505060405180910390f35b3480156110c657600080fd5b506110cf611f51565b604051808260ff1660ff16815260200191505060405180910390f35b60606000368080601f016020809104026020016040519081016040528093929190818152602001838380828437600081840152601f19601f82011690508083019250505050505050905050565b60006001905090565b80600060156101000a81548160ff021916908360ff16021790555050565b60608060046040519080825280602002602001820160405280156111925781602001602082028038833980820191505090505b5090506000600560006005839350829250819150809050846000815181106111b657fe5b60200260200101856001815181106111ca57fe5b60200260200101866002815181106111de57fe5b60200260200101876003815181106111f257fe5b602002602001018473ffffffffffffffffffffffffffffffffffffffff1673ffffffffffffffffffffffffffffffffffffffff168152508473ffffffffffffffffffffffffffffffffffffffff1673ffffffffffffffffffffffffffffffffffffffff168152508473ffffffffffffffffffffffffffffffffffffffff1673ffffffffffffffffffffffffffffffffffffffff168152508473ffffffffffffffffffffffffffffffffffffffff1673ffffffffffffffffffffffffffffffffffffffff1681525050505050809150509392505050565b600060016000838152602001908152602001600020549050919050565b8060016000848152602001908152602001600020819055505050565b6000606060006020905060008090508160ff1685511115611326578160ff1685510390505b600060608360ff166040519080825280601f01601f1916602001820160405280156113605781602001600182028038833980820191505090505b5090506060836040519080825280601f01601f1916602001820160405280156113985781602001600182028038833980820191505090505b50905060008090505b60018951038111611473578560ff1681101561140e578881815181106113c357fe5b602001015160f81c60f81b8382815181106113da57fe5b60200101907effffffffffffffffffffffffffffffffffffffffffffffffffffffffffffff1916908160001a905350611466565b88818151811061141a57fe5b602001015160f81c60f81b828760ff1683038151811061143657fe5b60200101907effffffffffffffffffffffffffffffffffffffffffffffffffffffffffffff1916908160001a9053505b80806001019150506113a1565b5061147d82611f28565b81965096505050505050915091565b60606000606060008661149e87611f67565b8660405160200180848152602001837bffffffffffffffffffffffffffffffffffffffffffffffffffffffff19167bffffffffffffffffffffffffffffffffffffffffffffffffffffffff191681526004018260ff1660ff1660f81b81526001019350505050604051602081830303815290604052805190602001209050600454600260008381526020019081526020016000206040518060400160405280601181526020017f56616c696461746f7220636f6e746578740000000000000000000000000000008152509190808054806020026020016040519081016040528092919081815260200182805480156115b557602002820191906000526020600020905b8154815260200190600101908083116115a1575b505050505090509350935093505093509350939050565b6000846115d885611f67565b8460405160200180848152602001837bffffffffffffffffffffffffffffffffffffffffffffffffffffffff19167bffffffffffffffffffffffffffffffffffffffffffffffffffffffff191681526004018260ff1660ff1660f81b815260010193505050506040516020818303038152906040528051906020012090508160026000838152602001908152602001600020908051906020019061167d9291906124eb565b505050505050565b600081600560016101000a81548173ffffffffffffffffffffffffffffffffffffffff021916908373ffffffffffffffffffffffffffffffffffffffff1602179055507f60bee2adeed12e18d8099ae2f9c795c40fca0498a8aa0b7bd2717aaa92baff9160405160405180910390a160019050919050565b60608060206040519080825280601f01601f1916602001820160405280156117345781602001600182028038833980820191505090505b50905060005b602081101561179b5783816020811061174f57fe5b1a60f81b82828151811061175f57fe5b60200101907effffffffffffffffffffffffffffffffffffffffffffffffffffffffffffff1916908160001a905350808060010191505061173a565b5080915050919050565b600080606060008060045460016040518060400160405280601081526020017f6d757475616c2061677265656d656e7400000000000000000000000000000000815250600560019054906101000a900473ffffffffffffffffffffffffffffffffffffffff16600560009054906101000a900460000b829250945094509450945094509091929394565b60608060046040519080825280602002602001820160405280156118625781602001602082028038833980820191505090505b50905060056000600560008393508292508191508090508460008151811061188657fe5b602002602001018560018151811061189a57fe5b60200260200101866002815181106118ae57fe5b60200260200101876003815181106118c257fe5b602002602001018473ffffffffffffffffffffffffffffffffffffffff1673ffffffffffffffffffffffffffffffffffffffff168152508473ffffffffffffffffffffffffffffffffffffffff1673ffffffffffffffffffffffffffffffffffffffff168152508473ffffffffffffffffffffffffffffffffffffffff1673ffffffffffffffffffffffffffffffffffffffff168152508473ffffffffffffffffffffffffffffffffffffffff1673ffffffffffffffffffffffffffffffffffffffff1681525050505050809150509392505050565b60008060009054906101000a900473ffffffffffffffffffffffffffffffffffffffff16905090565b80600060146101000a81548160ff021916908360ff16021790555050565b60006060611a48611a43611a3e611a39611a2d6040518060400160405280601081526020017f73657269616c6973655374616b65727300000000000000000000000000000000815250611f67565b8862bc4ff26001611ca8565b611d3b565b611f78565b611fa6565b90506060611ab1611aac611aa7611aa2611a966040518060400160405280600f81526020017f73657269616c69736550726f6f66730000000000000000000000000000000000815250611f67565b8962bc4ff26001611ca8565b611d3b565b611f78565b611fa6565b9050600060039050611ac1612538565b60008090505b8351811015611c6b577fffffffffffffffffffffffffffffffffffffffffffffffffffffffffffffffff826020019060000b908160000b8152505060008090505b8551821015611c3057858181518110611b1d57fe5b602002602001015173ffffffffffffffffffffffffffffffffffffffff16858381518110611b4757fe5b602002602001015173ffffffffffffffffffffffffffffffffffffffff161415611c23573373ffffffffffffffffffffffffffffffffffffffff16858381518110611b8e57fe5b602002602001015173ffffffffffffffffffffffffffffffffffffffff161415611bc45760018360600190151590811515815250505b82602001805180919060010160000b60000b815250506000868281518110611be857fe5b602002602001019073ffffffffffffffffffffffffffffffffffffffff16908173ffffffffffffffffffffffffffffffffffffffff16815250505b8180600101925050611b08565b506000826020015160000b1315611c5e578160200151826040018181510191509060ff16908160ff16815250505b8080600101915050611ac7565b5080606001518015611c8a57508160ff16816040015160ff1684510310155b15611c9c576001945050505050611ca1565b505050505b9392505050565b60606000600560019054906101000a900473ffffffffffffffffffffffffffffffffffffffff1690507f1ff50e4650f7f1e5b26a5f5e921b803deee4a95a1b6ef46e05992b3bc1dcdb8c60405160405180910390a160405136600082376000803683855af43d806000843e8160008114611d20578184f35b8184fd5b606080611d30836116fd565b905080915050919050565b60608060208351026040519080825280601f01601f191660200182016040528015611d755781602001600182028038833980820191505090505b50905060008060009050600090505b8451811015611e4e5760008090505b6020811015611e405760008160080260020a878481518110611db157fe5b602002602001015160001c0260001b9050600060f81b817effffffffffffffffffffffffffffffffffffffffffffffffffffffffffffff191614611e325780858581518110611dfc57fe5b60200101907effffffffffffffffffffffffffffffffffffffffffffffffffffffffffffff1916908160001a9053506001840193505b508080600101915050611d93565b508080600101915050611d84565b6060826040519080825280601f01601f191660200182016040528015611e835781602001600182028038833980820191505090505b509050600091505b82821015611ef257838281518110611e9f57fe5b602001015160f81c60f81b818381518110611eb657fe5b60200101907effffffffffffffffffffffffffffffffffffffffffffffffffffffffffffff1916908160001a9053508180600101925050611e8b565b80945050505050919050565b6000600560019054906101000a900473ffffffffffffffffffffffffffffffffffffffff16905090565b6000806020830151905080915050919050565b60008060159054906101000a900460ff16905090565b60008060149054906101000a900460ff16905090565b600081805190602001209050919050565b611f80612569565b600060208301905060405180604001604052808451815260200182815250915050919050565b6060611fb0612569565b611fee6040518060400160405280600181526020017f2c00000000000000000000000000000000000000000000000000000000000000815250611f78565b9050606061200582856120c690919063ffffffff16565b6040519080825280602002602001820160405280156120335781602001602082028038833980820191505090505b50905060008090505b81518110156120bb5761206861206361205e858861213b90919063ffffffff16565b612155565b6121b7565b82828151811061207457fe5b602002602001019073ffffffffffffffffffffffffffffffffffffffff16908173ffffffffffffffffffffffffffffffffffffffff1681525050808060010191505061203c565b508092505050919050565b60008082600001516120ea8560000151866020015186600001518760200151612329565b0190505b83600001518460200151018111612134578180600101925050826000015161212c856020015183038660000151038386600001518760200151612329565b0190506120ee565b5092915050565b612143612569565b61214e838383612404565b5092915050565b60608082600001516040519080825280601f01601f19166020018201604052801561218f5781602001600182028038833980820191505090505b50905060006020820190506121ad81856020015186600001516124a2565b8192505050919050565b6000606082905060008090506000806000600290505b602a81101561231c57610100840293508481815181106121e957fe5b602001015160f81c60f81b60f81c925084600182018151811061220857fe5b602001015160f81c60f81b60f81c915060618360ff1610158015612230575060668360ff1611155b156122405760578303925061228e565b60308360ff1610158015612258575060398360ff1611155b156122685760308303925061228d565b60418360ff1610158015612280575060468360ff1611155b1561228c576037830392505b5b5b60618260ff16101580156122a6575060668260ff1611155b156122b657605782039150612304565b60308260ff16101580156122ce575060398260ff1611155b156122de57603082039150612303565b60418260ff16101580156122f6575060468260ff1611155b15612302576037820391505b5b5b81601084020160ff16840193506002810190506121cd565b5082945050505050919050565b60008084905060008685116123f457602085116123ae57600060018660200360080260020a031960001b905060008186511690506000878a8a0103905060008386511690505b8281146123a05781861061238d578a8a0196505050505050506123fc565b858060010196505083865116905061236f565b8596505050505050506123fc565b60008585209050600091505b85880382116123f25760008684209050808214156123de57839450505050506123fc565b6001840193505081806001019250506123ba565b505b868601925050505b949350505050565b61240c612569565b600061242a8560000151866020015186600001518760200151612329565b9050846020015183602001818152505084602001518103836000018181525050846000015185602001510181141561246c576000856000018181525050612497565b8360000151836000015101856000018181510391508181525050836000015181018560200181815250505b829150509392505050565b5b602081106124c657815183526020830192506020820191506020810390506124a3565b60006001826020036101000a0390508019835116818551168181178652505050505050565b828054828255906000526020600020908101928215612527579160200282015b8281111561252657825182559160200191906001019061250b565b5b5090506125349190612583565b5090565b60405180608001604052806000151581526020016000800b8152602001600060ff1681526020016000151581525090565b604051806040016040528060008152602001600081525090565b6125a591905b808211156125a1576000816000905550600101612589565b5090565b9056fea265627a7a72315820f3b2ca1f984492283732dd33e0a67b20bcc2434fa4c46d0e608199278c5e50f464736f6c63430005100032",
  "source": "pragma solidity ^0.5.0;\n\nimport \"./strings.sol\";\nimport \"./stringCasting.sol\";\n// import \"./BytesLib.sol\";\n\n\n/* empty contract - the real one is depolyed at an address which will be passed as param to validate */\n\n// contract Poll {\n//     function serialiseStakers(string calldata _poll, uint8 validationType) external returns (address[] memory) {\n//         // return something which will make it obvious that you have accidentally delegated this context!\n//         address[] memory ret = new address[](3);\n//         (ret[0], ret[1], ret[2]) = (address(9), address(9), address(9));\n//         return ret;\n//\n//     }\n//\n//     function serialiseProofs(string calldata _poll, uint8 validationType) external returns (address[] memory) {\n//         // return something which will make it obvious that you have accidentally delegated this context!\n//         address[] memory ret = new address[](4);\n//         (ret[0], ret[1], ret[2], ret[3]) = (address(6), address(6), address(6), address(6));\n//         return ret;\n//     }\n// }\n\n\n/* Lunchcoin validator contract - mutual agreement */\ncontract MutualAgreement {\n    address owner;  // is set by TokenStorage.\n    uint8 ok;\n    uint8 result;\n    mapping (uint => uint) myMap;\n\n    // dataCache must occupy the same slot as in Poll contract, ie first slot, slot 0.\n    mapping (bytes32 => bytes32[]) dataCache;\n    // resultsCache must occupy the same slot as in Poll contract, ie second slot, slot 1.\n    mapping (bytes32 => bool) resultsCache;\n\n    uint256 notes = 130;\n    int8 constructed = -1;\n\n    using strings for *;\n    using stringcast for string;\n\n    uint8 constant vType=1;\n    string constant vDesc = \"mutual agreement\";\n    address pollAddress = 0x9D26a8a5Db7dC10689692caF8d52C912958409CF;\n\n    struct proofCounter {\n        bool fakeProof;\n        int8 duplicateProofs;\n        uint8 fakeProofs;\n        bool senderIsPresent;\n    }\n\n    function () payable external {\n        _fallback();\n    }\n\n    // function() external payable {\n    //     // NB sol 0.6+ better syntax for calldata arrays : https://solidity.readthedocs.io/en/v0.6.0/types.html#array-slices\n    //     bytes memory input = msg.data;\n    //\n    //     // TODO: This is V.0 accepting a string (really a bytes32) of EXACTLY 32 bytes, eg a doodle poll without the https:// ;)\n    //     bytes32 __ownAdress;  // NB assuming 32b rather than 20b for calldata loose packing. Remember to get rid of this line when optimising!\n    //     bytes memory usefulData;\n    //     bytes32 poll32;\n    //     bytes memory __reveal;\n    //     // demo result! (we don;t need more than bool really ;)\n    //     uint256 valid = 7331;\n    //\n    //     (__ownAdress, usefulData) = (bytesSplit32(input));\n    //     (poll32, __reveal) = (bytesSplit32(usefulData));\n    //\n    //     // NB other validators will need to additionally retrieve reveal data from msg.data\n    //     bytes32[] memory stakers = crossContractCall (encodeFunctionName(\"serialiseStakers\"), bytes32ToString(poll32), valid, vType);\n    //     bytes32[] memory proofs = crossContractCall (encodeFunctionName(\"serialiseProofs\"), bytes32ToString(poll32), valid, vType);\n    //\n    // }\n\n    constructor () public {\n        constructed = 1;\n    }\n\n    function _fallback() internal {\n        bytes memory input = msg.data;\n\n\n    }\n\n    function getMaOK() public view returns (uint8) {\n      return ok;\n    }\n\n    function setMaOK (uint8 _ok) public {\n      ok = _ok;\n    }\n\n    function getMaResult() public view returns (uint8) {\n      return result;\n    }\n\n    function setMaResult (uint8 _result) public {\n      result = _result;\n    }\n\n    function getMyMap(uint idx) public view returns (uint) {\n      return myMap[idx];\n    }\n\n    function setMyMap (uint idx, uint _myMap) public {\n      myMap[idx] = _myMap;\n    }\n\n    function getOwner() public view returns (address) {\n      return owner;\n    }\n\n    event pollAddressSet();\n    function setPollAddress (address newAddy) public returns (bool) {\n        pollAddress = newAddy;\n        emit pollAddressSet();\n        return true;\n    }\n\n    function getPollAddress () public view returns (address) {\n        return pollAddress;\n    }\n\n    function getStateVars () public view returns (uint256, uint8, string memory, address, int8) {\n        return (notes, vType, vDesc, pollAddress, constructed);\n    }\n\n\n    // event RetrievedDataCache(string, uint256, bytes32[]);\n    function dumpDataCache (bytes32 poll32, string memory fnName, uint8 vt) public view returns (string memory, uint256, bytes32[] memory) {\n        bytes32 hash = keccak256(abi.encodePacked(poll32, encodeFunctionName(fnName), vt));\n        // emit RetrievedDataCache(\"Poll context:\", notes, dataCache[hash]);\n        return (\"Validator context\", notes, dataCache[hash]);\n    }\n\n    function setCache (bytes32 poll32, string memory fnName, uint8 vt, bytes32[] memory data) public {\n      bytes32 hash = keccak256(abi.encodePacked(poll32, encodeFunctionName(fnName), vt));\n      // emit RetrievedDataCache(\"Poll context:\", notes, dataCache[hash]);\n      dataCache[hash] = data;\n    }\n    \n    function serialiseStakers(string calldata _poll, uint8 validationType) external pure returns (address[] memory) {\n        // return something which will make it obvious that you have accidentally delegated this context!\n        address[] memory ret = new address[](4);\n        (ret[0], ret[1], ret[2], ret[3]) = (address(5), address(0), address(5), address(0));\n        return ret;\n    }\n\n    function serialiseProofs(string calldata _poll, uint8 validationType) external pure returns (address[] memory) {\n        // return something which will make it obvious that you have accidentally delegated this context!\n        address[] memory ret = new address[](4);\n        (ret[0], ret[1], ret[2], ret[3]) = (address(0), address(5), address(0), address(5));\n        return ret;\n    }\n\n\n    function proofType() public pure returns (uint8) {\n      return vType;\n    }\n\n    function encodeFunctionName (string memory name) internal pure returns (bytes4) {\n        // TODO: cache for readability!\n        // if (\"serialiseStakers\")\n        //     return\n        // if (\"serialiseStakers\")\n        //     return\n        return bytes4(keccak256(bytes(name)));\n    }\n\n    // split a serialised string of addresses (as received from main contract).\n    // NB - only works in this validator - other validators will use multiple types within serialised string\n    function splitToAddresses(strings.slice memory concatenated) internal pure returns (address[] memory result) {\n        strings.slice memory delim = \",\".toSlice();\n        address[] memory parts = new address[](concatenated.count(delim));\n\n        for(uint i = 0; i < parts.length; i++) {\n           parts[i] = concatenated.split(delim).toString().toAddress();\n        }\n        return parts;\n\n    }\n\n    function bytes32ToBytes(bytes32 _bytes32) public pure returns (bytes memory){\n        // string memory str = string(_bytes32);\n        // TypeError: Explicit type conversion not allowed from \"bytes32\" to \"string storage pointer\"\n        bytes memory bytesArray = new bytes(32);\n        for (uint256 i; i < 32; i++) {\n            bytesArray[i] = _bytes32[i];\n        }\n        return bytesArray;\n    }\n\n    // function bytesToBytes32(bytes b, uint offset) private pure returns (bytes32) {\n    //     bytes32 out;\n\n    //     for (uint i = 0; i < 32; i++) {\n    //         out |= bytes32(b[offset + i] & 0xFF) >> (i * 8);\n    //     }~/randomCode/truffletings/proxyBox\n    //     return out;\n    // }\n\n\n    function bytesToBytes32(bytes memory b) public pure returns (bytes32 bts) {\n        bytes32 i;\n        //NB size etc= 32b = 0x20b\n        assembly { i := mload(add(b, 0x20)) }\n        bts = i;\n    }\n\n    function bytes32ToString(bytes32 _bytes32) public pure returns (string memory ){\n        bytes memory bytesArray = bytes32ToBytes(_bytes32);\n        return string(bytesArray);\n    }\n\n    function bytes32ArrayToString (bytes32[] memory data) public pure returns (string memory ) {\n        bytes memory bytesString = new bytes(data.length * 32);\n        uint urlLength;\n        uint i=0;\n        for (i=0; i<data.length; i++) {\n            for (uint j=0; j<32; j++) {\n                byte char = byte(bytes32(uint(data[i]) * 2 ** (8 * j)));\n                if (char != 0) {\n                    bytesString[urlLength] = char;\n                    urlLength += 1;\n                }\n            }\n        }\n        bytes memory bytesStringTrimmed = new bytes(urlLength);\n        for (i=0; i<urlLength; i++) {\n            bytesStringTrimmed[i] = bytesString[i];\n        }\n        return string(bytesStringTrimmed);\n    }\n\n    // TODO !!!\n    // function bytes32ToUint (bytes32 data) returns (uint) {\n    //     return 2;\n    // }\n\n    function bytesSplit32(bytes  memory data) public pure returns (bytes32, bytes memory ) {\n        uint8 splitAt = 32;                             // all (if variable split, pass in splitAt)\n        uint256 taillength = 0;\n        if (data.length > splitAt)\n            taillength = data.length-splitAt;\n        bytes32 temp;\n        // bytes32 head;                                   // 32b split\n        bytes memory head = new bytes(splitAt);         // variable length split\n        bytes memory tail = new bytes(taillength);\n        for(uint i=0;i<=data.length-1;i++){\n            if (i<splitAt)\n                head[i] = bytes(data)[i] ;\n            else\n                tail[i-splitAt] = bytes(data)[i] ;\n        }\n        return (bytesToBytes32(head), tail);\n    }\n\n    // calls fallback function of pollAddress, passing 4 byte encoded function name to remote contract to select method.\n    // NB future better: just get the ABI of the finished Poll conmtract, and use that!\n    // NB in sol 0.6 + fallback cannot return anything\n    // NB future optimisation : we are not using the functionality of string here, since string must have come from a bytes32\n    event CrossContractValidateBegin();\n    event CrossContractValidateEnd();\n    function crossContractCall (bytes4 fnNameHash, string  memory poll, uint256 valid, uint8 vt) public returns (bytes32[] memory) {\n    address pollContract = pollAddress;\n\n        emit CrossContractValidateBegin();\n        assembly {\n            let ptr := mload(0x40)\n            calldatacopy(ptr, 0, calldatasize)\n            let result := delegatecall(gas, pollContract, ptr, calldatasize, 0, 0)\n            let size := returndatasize\n            returndatacopy(ptr, 0, size)\n            switch result\n            case 0 { revert(ptr, size) }\n            default { return(ptr, size) }\n        }\n        emit CrossContractValidateEnd();\n    }\n\n\n    /* simplest possible validator - checks that a majority of poll.stakers(), including sender, are contained in poll.serialiseProofs() */\n    function validate(address _pollContract, string memory _poll, bytes32 _reveal) public payable returns (bool success) {\n        // bytes32[] memory stakersData = crossContractCall( encodeFunctionName(\"serialiseStakers\") , _poll, vType);\n        // bytes32[] memory proofsData = crossContractCall( encodeFunctionName(\"serialiseProofs\") , _poll, vType);\n        // bytes32[] memory thresholdData =  crossContractCall( encodeFunctionName(\"threshold\") , _poll, vType);\n\n        // address[] memory stakers = splitToAddresses( bytes32ArrayToString(stakersData).toSlice());\n        // address[] memory proofs = splitToAddresses( bytes32ArrayToString(proofsData).toSlice());\n        // uint8 threshold = uint8(bytes32ToUint(thresholdData[0]));\n\n\n        // bytes32[] memory stakersData = crossContractCall( encodeFunctionName(\"serialiseStakers\") , _poll, vType);\n        // bytes32[] memory proofsData = crossContractCall( encodeFunctionName(\"serialiseProofs\") , _poll, vType);\n        // bytes32[] memory thresholdData =  crossContractCall( encodeFunctionName(\"threshold\") , _poll, vType);\n\n        address[] memory stakers = splitToAddresses( bytes32ArrayToString( crossContractCall( encodeFunctionName(\"serialiseStakers\") , _poll, 12341234, vType) ).toSlice());\n        address[] memory proofs = splitToAddresses( bytes32ArrayToString( crossContractCall( encodeFunctionName(\"serialiseProofs\") , _poll, 12341234, vType) ).toSlice());\n        // uint8 threshold = uint8(bytes32ToUint( crossContractCall( encodeFunctionName(\"threshold\") , _poll, 12341234, vType)[0]));\n        uint8 threshold = 3;\n\n        proofCounter memory pc;\n\n        for(uint i = 0; i < proofs.length; i++) {\n            pc.duplicateProofs = -1;\n            for(uint j = 0; i < stakers.length; i++) {\n                if (proofs[i] == stakers[j]) {\n                    // Only set senderIsPresent = true the first time that proofs[i] == stakers[j] == msg.sender\n                    if (proofs[i] == msg.sender) { pc.senderIsPresent = true; }\n                    // set duplicateProofs hopefully to 0, and remove staker from the array\n                    pc.duplicateProofs++;\n                    stakers[j] = address(0);\n                }\n            }\n            if (pc.duplicateProofs>0) { pc.fakeProofs += uint8(pc.duplicateProofs); }\n        }\n\n        // // deal with 0 < threshold < 1\n        // if(percentageThreshold>0) {\n        //   threshold = percentageThreshold*stakers.length;\n        // }\n        if (pc.senderIsPresent && proofs.length-pc.fakeProofs >= threshold) {\n            return true;\n        }\n    }\n}\n",
  "sourcePath": "/home/teide/randomCode/truffletings/proxyBox/contracts/MutualAgreement.sol",
  "compiler": {
    "name": "solc",
    "version": "0.5.16+commit.9c3226ce.Emscripten.clang"
  },
  "schemaVersion": "3.2.0",
  "updatedAt": "2020-06-04T14:03:44.643Z",
  "networkType": "ethereum",
  "devdoc": {
    "methods": {}
  },
  "userdoc": {
    "methods": {}
  }
}