{
  "contractName": "MutualAgreement",
  "abi": [
    {
      "payable": true,
      "stateMutability": "payable",
      "type": "fallback"
    },
    {
      "constant": false,
      "inputs": [
        {
          "internalType": "address",
          "name": "newAddy",
          "type": "address"
        }
      ],
      "name": "setPollAddress",
      "outputs": [
        {
          "internalType": "bool",
          "name": "",
          "type": "bool"
        }
      ],
      "payable": false,
      "stateMutability": "nonpayable",
      "type": "function"
    },
    {
      "constant": true,
      "inputs": [],
      "name": "getPollAddress",
      "outputs": [
        {
          "internalType": "address",
          "name": "",
          "type": "address"
        }
      ],
      "payable": false,
      "stateMutability": "view",
      "type": "function"
    },
    {
      "constant": false,
      "inputs": [
        {
          "internalType": "bytes32",
          "name": "poll32",
          "type": "bytes32"
        },
        {
          "internalType": "string",
          "name": "fnName",
          "type": "string"
        },
        {
          "internalType": "uint8",
          "name": "vt",
          "type": "uint8"
        }
      ],
      "name": "dumpDataCache",
      "outputs": [
        {
          "internalType": "string",
          "name": "",
          "type": "string"
        },
        {
          "internalType": "uint256",
          "name": "",
          "type": "uint256"
        },
        {
          "internalType": "bytes32[]",
          "name": "",
          "type": "bytes32[]"
        }
      ],
      "payable": false,
      "stateMutability": "nonpayable",
      "type": "function"
    },
    {
      "constant": true,
      "inputs": [
        {
          "internalType": "string",
          "name": "_poll",
          "type": "string"
        },
        {
          "internalType": "uint8",
          "name": "validationType",
          "type": "uint8"
        }
      ],
      "name": "serialiseStakers",
      "outputs": [
        {
          "internalType": "address[]",
          "name": "",
          "type": "address[]"
        }
      ],
      "payable": false,
      "stateMutability": "view",
      "type": "function"
    },
    {
      "constant": true,
      "inputs": [
        {
          "internalType": "string",
          "name": "_poll",
          "type": "string"
        },
        {
          "internalType": "uint8",
          "name": "validationType",
          "type": "uint8"
        }
      ],
      "name": "serialiseProofs",
      "outputs": [
        {
          "internalType": "address[]",
          "name": "",
          "type": "address[]"
        }
      ],
      "payable": false,
      "stateMutability": "view",
      "type": "function"
    },
    {
      "constant": true,
      "inputs": [],
      "name": "proofType",
      "outputs": [
        {
          "internalType": "uint8",
          "name": "",
          "type": "uint8"
        }
      ],
      "payable": false,
      "stateMutability": "pure",
      "type": "function"
    },
    {
      "constant": true,
      "inputs": [
        {
          "internalType": "bytes32",
          "name": "_bytes32",
          "type": "bytes32"
        }
      ],
      "name": "bytes32ToBytes",
      "outputs": [
        {
          "internalType": "bytes",
          "name": "",
          "type": "bytes"
        }
      ],
      "payable": false,
      "stateMutability": "pure",
      "type": "function"
    },
    {
      "constant": true,
      "inputs": [
        {
          "internalType": "bytes",
          "name": "b",
          "type": "bytes"
        }
      ],
      "name": "bytesToBytes32",
      "outputs": [
        {
          "internalType": "bytes32",
          "name": "bts",
          "type": "bytes32"
        }
      ],
      "payable": false,
      "stateMutability": "pure",
      "type": "function"
    },
    {
      "constant": true,
      "inputs": [
        {
          "internalType": "bytes32",
          "name": "_bytes32",
          "type": "bytes32"
        }
      ],
      "name": "bytes32ToString",
      "outputs": [
        {
          "internalType": "string",
          "name": "",
          "type": "string"
        }
      ],
      "payable": false,
      "stateMutability": "pure",
      "type": "function"
    },
    {
      "constant": false,
      "inputs": [
        {
          "internalType": "bytes32[]",
          "name": "data",
          "type": "bytes32[]"
        }
      ],
      "name": "bytes32ArrayToString",
      "outputs": [
        {
          "internalType": "string",
          "name": "",
          "type": "string"
        }
      ],
      "payable": false,
      "stateMutability": "nonpayable",
      "type": "function"
    },
    {
      "constant": true,
      "inputs": [
        {
          "internalType": "bytes",
          "name": "data",
          "type": "bytes"
        }
      ],
      "name": "bytesSplit32",
      "outputs": [
        {
          "internalType": "bytes32",
          "name": "",
          "type": "bytes32"
        },
        {
          "internalType": "bytes",
          "name": "",
          "type": "bytes"
        }
      ],
      "payable": false,
      "stateMutability": "pure",
      "type": "function"
    },
    {
      "constant": false,
      "inputs": [
        {
          "internalType": "bytes4",
          "name": "fnNameHash",
          "type": "bytes4"
        },
        {
          "internalType": "string",
          "name": "poll",
          "type": "string"
        },
        {
          "internalType": "uint256",
          "name": "valid",
          "type": "uint256"
        },
        {
          "internalType": "uint8",
          "name": "vt",
          "type": "uint8"
        }
      ],
      "name": "crossContractCall",
      "outputs": [
        {
          "internalType": "bytes32[]",
          "name": "",
          "type": "bytes32[]"
        }
      ],
      "payable": false,
      "stateMutability": "nonpayable",
      "type": "function"
    },
    {
      "constant": false,
      "inputs": [
        {
          "internalType": "address",
          "name": "_pollContract",
          "type": "address"
        },
        {
          "internalType": "string",
          "name": "_poll",
          "type": "string"
        },
        {
          "internalType": "bytes32",
          "name": "_reveal",
          "type": "bytes32"
        }
      ],
      "name": "validate",
      "outputs": [
        {
          "internalType": "bool",
          "name": "success",
          "type": "bool"
        }
      ],
      "payable": true,
      "stateMutability": "payable",
      "type": "function"
    }
  ],
  "bytecode": "0x60806040526082600255739d26a8a5db7dc10689692caf8d52c912958409cf600360006101000a81548173ffffffffffffffffffffffffffffffffffffffff021916908373ffffffffffffffffffffffffffffffffffffffff16021790555034801561006a57600080fd5b50611f4c8061007a6000396000f3fe6080604052600436106100c25760003560e01c8063560249391161007f5780639201de55116100595780639201de5514610a5a5780639cbc87a314610b0e578063a0730f5214610c4c578063bfe370d914610ca3576100c2565b806356024939146107185780638a9392c0146108005780638e3dca0b146108fd576100c2565b806305af5d35146101f357806313311a1c1461022457806326a9cdf71461030c57806327ee52101461045457806342ecc5b8146105fb5780634c0999c714610664575b60606000368080601f016020809104026020016040519081016040528093929190818152602001838380828437600081840152601f19601f82011690508083019250505050505050905060006060600060606000611ca3905061012486610d7f565b809550819650505061013584610d7f565b809350819450505060606101916101806040518060400160405280601081526020017f73657269616c6973655374616b65727300000000000000000000000000000000815250610f0a565b61018986610f1b565b846001610f32565b905060606101e76101d66040518060400160405280600f81526020017f73657269616c69736550726f6f66730000000000000000000000000000000000815250610f0a565b6101df87610f1b565b856001610f32565b90505050505050505050005b3480156101ff57600080fd5b50610208610f82565b604051808260ff1660ff16815260200191505060405180910390f35b34801561023057600080fd5b506102b56004803603604081101561024757600080fd5b810190808035906020019064010000000081111561026457600080fd5b82018360208201111561027657600080fd5b8035906020019184600183028401116401000000008311171561029857600080fd5b9091929391929390803560ff169060200190929190505050610f8b565b6040518080602001828103825283818151815260200191508051906020019060200280838360005b838110156102f85780820151818401526020810190506102dd565b505050509050019250505060405180910390f35b34801561031857600080fd5b506103d26004803603602081101561032f57600080fd5b810190808035906020019064010000000081111561034c57600080fd5b82018360208201111561035e57600080fd5b8035906020019184600183028401116401000000008311171561038057600080fd5b91908080601f016020809104026020016040519081016040528093929190818152602001838380828437600081840152601f19601f820116905080830192505050505050509192919290505050610d7f565b6040518083815260200180602001828103825283818151815260200191508051906020019080838360005b838110156104185780820151818401526020810190506103fd565b50505050905090810190601f1680156104455780820380516001836020036101000a031916815260200191505b50935050505060405180910390f35b34801561046057600080fd5b506105316004803603606081101561047757600080fd5b81019080803590602001909291908035906020019064010000000081111561049e57600080fd5b8201836020820111156104b057600080fd5b803590602001918460018302840111640100000000831117156104d257600080fd5b91908080601f016020809104026020016040519081016040528093929190818152602001838380828437600081840152601f19601f820116905080830192505050505050509192919290803560ff1690602001909291905050506110f4565b604051808060200184815260200180602001838103835286818151815260200191508051906020019080838360005b8381101561057b578082015181840152602081019050610560565b50505050905090810190601f1680156105a85780820380516001836020036101000a031916815260200191505b50838103825284818151815260200191508051906020019060200280838360005b838110156105e45780820151818401526020810190506105c9565b505050509050019550505050505060405180910390f35b34801561060757600080fd5b5061064a6004803603602081101561061e57600080fd5b81019080803573ffffffffffffffffffffffffffffffffffffffff169060200190929190505050611233565b604051808215151515815260200191505060405180910390f35b34801561067057600080fd5b5061069d6004803603602081101561068757600080fd5b810190808035906020019092919050505061127f565b6040518080602001828103825283818151815260200191508051906020019080838360005b838110156106dd5780820151818401526020810190506106c2565b50505050905090810190601f16801561070a5780820380516001836020036101000a031916815260200191505b509250505060405180910390f35b34801561072457600080fd5b506107a96004803603604081101561073b57600080fd5b810190808035906020019064010000000081111561075857600080fd5b82018360208201111561076a57600080fd5b8035906020019184600183028401116401000000008311171561078c57600080fd5b9091929391929390803560ff169060200190929190505050611327565b6040518080602001828103825283818151815260200191508051906020019060200280838360005b838110156107ec5780820151818401526020810190506107d1565b505050509050019250505060405180910390f35b6108e36004803603606081101561081657600080fd5b81019080803573ffffffffffffffffffffffffffffffffffffffff1690602001909291908035906020019064010000000081111561085357600080fd5b82018360208201111561086557600080fd5b8035906020019184600183028401116401000000008311171561088757600080fd5b91908080601f016020809104026020016040519081016040528093929190818152602001838380828437600081840152601f19601f82011690508083019250505050505050919291929080359060200190929190505050611490565b604051808215151515815260200191505060405180910390f35b34801561090957600080fd5b50610a036004803603608081101561092057600080fd5b8101908080357bffffffffffffffffffffffffffffffffffffffffffffffffffffffff191690602001909291908035906020019064010000000081111561096657600080fd5b82018360208201111561097857600080fd5b8035906020019184600183028401116401000000008311171561099a57600080fd5b91908080601f016020809104026020016040519081016040528093929190818152602001838380828437600081840152601f19601f82011690508083019250505050505050919291929080359060200190929190803560ff169060200190929190505050610f32565b6040518080602001828103825283818151815260200191508051906020019060200280838360005b83811015610a46578082015181840152602081019050610a2b565b505050509050019250505060405180910390f35b348015610a6657600080fd5b50610a9360048036036020811015610a7d57600080fd5b8101908080359060200190929190505050610f1b565b6040518080602001828103825283818151815260200191508051906020019080838360005b83811015610ad3578082015181840152602081019050610ab8565b50505050905090810190601f168015610b005780820380516001836020036101000a031916815260200191505b509250505060405180910390f35b348015610b1a57600080fd5b50610bd160048036036020811015610b3157600080fd5b8101908080359060200190640100000000811115610b4e57600080fd5b820183602082011115610b6057600080fd5b80359060200191846020830284011164010000000083111715610b8257600080fd5b919080806020026020016040519081016040528093929190818152602001838360200280828437600081840152601f19601f820116905080830192505050505050509192919290505050611759565b6040518080602001828103825283818151815260200191508051906020019080838360005b83811015610c11578082015181840152602081019050610bf6565b50505050905090810190601f168015610c3e5780820380516001836020036101000a031916815260200191505b509250505060405180910390f35b348015610c5857600080fd5b50610c6161191c565b604051808273ffffffffffffffffffffffffffffffffffffffff1673ffffffffffffffffffffffffffffffffffffffff16815260200191505060405180910390f35b348015610caf57600080fd5b50610d6960048036036020811015610cc657600080fd5b8101908080359060200190640100000000811115610ce357600080fd5b820183602082011115610cf557600080fd5b80359060200191846001830284011164010000000083111715610d1757600080fd5b91908080601f016020809104026020016040519081016040528093929190818152602001838380828437600081840152601f19601f820116905080830192505050505050509192919290505050611946565b6040518082815260200191505060405180910390f35b6000606060006020905060008090508160ff1685511115610da4578160ff1685510390505b600060608360ff166040519080825280601f01601f191660200182016040528015610dde5781602001600182028038833980820191505090505b5090506060836040519080825280601f01601f191660200182016040528015610e165781602001600182028038833980820191505090505b50905060008090505b60018951038111610ef1578560ff16811015610e8c57888181518110610e4157fe5b602001015160f81c60f81b838281518110610e5857fe5b60200101907effffffffffffffffffffffffffffffffffffffffffffffffffffffffffffff1916908160001a905350610ee4565b888181518110610e9857fe5b602001015160f81c60f81b828760ff16830381518110610eb457fe5b60200101907effffffffffffffffffffffffffffffffffffffffffffffffffffffffffffff1916908160001a9053505b8080600101915050610e1f565b50610efb82611946565b81965096505050505050915091565b600081805190602001209050919050565b606080610f278361127f565b905080915050919050565b60606000600360009054906101000a900473ffffffffffffffffffffffffffffffffffffffff16905060405136600082376000803683855af43d806000843e8160008114610f7e578184f35b8184fd5b60006001905090565b6060806004604051908082528060200260200182016040528015610fbe5781602001602082028038833980820191505090505b509050600060056000600583935082925081915080905084600081518110610fe257fe5b6020026020010185600181518110610ff657fe5b602002602001018660028151811061100a57fe5b602002602001018760038151811061101e57fe5b602002602001018473ffffffffffffffffffffffffffffffffffffffff1673ffffffffffffffffffffffffffffffffffffffff168152508473ffffffffffffffffffffffffffffffffffffffff1673ffffffffffffffffffffffffffffffffffffffff168152508473ffffffffffffffffffffffffffffffffffffffff1673ffffffffffffffffffffffffffffffffffffffff168152508473ffffffffffffffffffffffffffffffffffffffff1673ffffffffffffffffffffffffffffffffffffffff1681525050505050809150509392505050565b60606000606060008661110687610f0a565b8660405160200180848152602001837bffffffffffffffffffffffffffffffffffffffffffffffffffffffff19167bffffffffffffffffffffffffffffffffffffffffffffffffffffffff191681526004018260ff1660ff1660f81b815260010193505050506040516020818303038152906040528051906020012090506002546000808381526020019081526020016000206040518060400160405280601181526020017f56616c696461746f7220636f6e7465787400000000000000000000000000000081525091908080548060200260200160405190810160405280929190818152602001828054801561121c57602002820191906000526020600020905b815481526020019060010190808311611208575b505050505090509350935093505093509350939050565b600081600360006101000a81548173ffffffffffffffffffffffffffffffffffffffff021916908373ffffffffffffffffffffffffffffffffffffffff16021790555060019050919050565b60608060206040519080825280601f01601f1916602001820160405280156112b65781602001600182028038833980820191505090505b50905060005b602081101561131d578381602081106112d157fe5b1a60f81b8282815181106112e157fe5b60200101907effffffffffffffffffffffffffffffffffffffffffffffffffffffffffffff1916908160001a90535080806001019150506112bc565b5080915050919050565b606080600460405190808252806020026020018201604052801561135a5781602001602082028038833980820191505090505b50905060056000600560008393508292508191508090508460008151811061137e57fe5b602002602001018560018151811061139257fe5b60200260200101866002815181106113a657fe5b60200260200101876003815181106113ba57fe5b602002602001018473ffffffffffffffffffffffffffffffffffffffff1673ffffffffffffffffffffffffffffffffffffffff168152508473ffffffffffffffffffffffffffffffffffffffff1673ffffffffffffffffffffffffffffffffffffffff168152508473ffffffffffffffffffffffffffffffffffffffff1673ffffffffffffffffffffffffffffffffffffffff168152508473ffffffffffffffffffffffffffffffffffffffff1673ffffffffffffffffffffffffffffffffffffffff1681525050505050809150509392505050565b600060606114f96114f46114ef6114ea6114de6040518060400160405280601081526020017f73657269616c6973655374616b65727300000000000000000000000000000000815250610f0a565b8862bc4ff26001610f32565b611759565b611959565b611987565b9050606061156261155d6115586115536115476040518060400160405280600f81526020017f73657269616c69736550726f6f66730000000000000000000000000000000000815250610f0a565b8962bc4ff26001610f32565b611759565b611959565b611987565b9050600060039050611572611ecc565b60008090505b835181101561171c577fffffffffffffffffffffffffffffffffffffffffffffffffffffffffffffffff826020019060000b908160000b8152505060008090505b85518210156116e1578581815181106115ce57fe5b602002602001015173ffffffffffffffffffffffffffffffffffffffff168583815181106115f857fe5b602002602001015173ffffffffffffffffffffffffffffffffffffffff1614156116d4573373ffffffffffffffffffffffffffffffffffffffff1685838151811061163f57fe5b602002602001015173ffffffffffffffffffffffffffffffffffffffff1614156116755760018360600190151590811515815250505b82602001805180919060010160000b60000b81525050600086828151811061169957fe5b602002602001019073ffffffffffffffffffffffffffffffffffffffff16908173ffffffffffffffffffffffffffffffffffffffff16815250505b81806001019250506115b9565b506000826020015160000b131561170f578160200151826040018181510191509060ff16908160ff16815250505b8080600101915050611578565b508060600151801561173b57508160ff16816040015160ff1684510310155b1561174d576001945050505050611752565b505050505b9392505050565b60608060208351026040519080825280601f01601f1916602001820160405280156117935781602001600182028038833980820191505090505b50905060008060009050600090505b845181101561186c5760008090505b602081101561185e5760008160080260020a8784815181106117cf57fe5b602002602001015160001c0260001b9050600060f81b817effffffffffffffffffffffffffffffffffffffffffffffffffffffffffffff191614611850578085858151811061181a57fe5b60200101907effffffffffffffffffffffffffffffffffffffffffffffffffffffffffffff1916908160001a9053506001840193505b5080806001019150506117b1565b5080806001019150506117a2565b6060826040519080825280601f01601f1916602001820160405280156118a15781602001600182028038833980820191505090505b509050600091505b82821015611910578382815181106118bd57fe5b602001015160f81c60f81b8183815181106118d457fe5b60200101907effffffffffffffffffffffffffffffffffffffffffffffffffffffffffffff1916908160001a90535081806001019250506118a9565b80945050505050919050565b6000600360009054906101000a900473ffffffffffffffffffffffffffffffffffffffff16905090565b6000806020830151905080915050919050565b611961611efd565b600060208301905060405180604001604052808451815260200182815250915050919050565b6060611991611efd565b6119cf6040518060400160405280600181526020017f2c00000000000000000000000000000000000000000000000000000000000000815250611959565b905060606119e68285611aa790919063ffffffff16565b604051908082528060200260200182016040528015611a145781602001602082028038833980820191505090505b50905060008090505b8151811015611a9c57611a49611a44611a3f8588611b1c90919063ffffffff16565b611b36565b611b98565b828281518110611a5557fe5b602002602001019073ffffffffffffffffffffffffffffffffffffffff16908173ffffffffffffffffffffffffffffffffffffffff16815250508080600101915050611a1d565b508092505050919050565b6000808260000151611acb8560000151866020015186600001518760200151611d0a565b0190505b83600001518460200151018111611b155781806001019250508260000151611b0d856020015183038660000151038386600001518760200151611d0a565b019050611acf565b5092915050565b611b24611efd565b611b2f838383611de5565b5092915050565b60608082600001516040519080825280601f01601f191660200182016040528015611b705781602001600182028038833980820191505090505b5090506000602082019050611b8e8185602001518660000151611e83565b8192505050919050565b6000606082905060008090506000806000600290505b602a811015611cfd5761010084029350848181518110611bca57fe5b602001015160f81c60f81b60f81c9250846001820181518110611be957fe5b602001015160f81c60f81b60f81c915060618360ff1610158015611c11575060668360ff1611155b15611c2157605783039250611c6f565b60308360ff1610158015611c39575060398360ff1611155b15611c4957603083039250611c6e565b60418360ff1610158015611c61575060468360ff1611155b15611c6d576037830392505b5b5b60618260ff1610158015611c87575060668260ff1611155b15611c9757605782039150611ce5565b60308260ff1610158015611caf575060398260ff1611155b15611cbf57603082039150611ce4565b60418260ff1610158015611cd7575060468260ff1611155b15611ce3576037820391505b5b5b81601084020160ff1684019350600281019050611bae565b5082945050505050919050565b6000808490506000868511611dd55760208511611d8f57600060018660200360080260020a031960001b905060008186511690506000878a8a0103905060008386511690505b828114611d8157818610611d6e578a8a019650505050505050611ddd565b8580600101965050838651169050611d50565b859650505050505050611ddd565b60008585209050600091505b8588038211611dd3576000868420905080821415611dbf5783945050505050611ddd565b600184019350508180600101925050611d9b565b505b868601925050505b949350505050565b611ded611efd565b6000611e0b8560000151866020015186600001518760200151611d0a565b90508460200151836020018181525050846020015181038360000181815250508460000151856020015101811415611e4d576000856000018181525050611e78565b8360000151836000015101856000018181510391508181525050836000015181018560200181815250505b829150509392505050565b5b60208110611ea75781518352602083019250602082019150602081039050611e84565b60006001826020036101000a0390508019835116818551168181178652505050505050565b60405180608001604052806000151581526020016000800b8152602001600060ff1681526020016000151581525090565b60405180604001604052806000815260200160008152509056fea265627a7a723158202c45eda51819d72f246133e9264e721a33411962e8db40b30112227a52c0d53364736f6c63430005100032",
  "source": "pragma solidity ^0.5.0;\n\nimport \"./strings.sol\";\nimport \"./stringCasting.sol\";\n// import \"./BytesLib.sol\";\n\n\n/* empty contract - the real one is depolyed at an address which will be passed as param to validate */\n\n// contract Poll {\n//     function serialiseStakers(string calldata _poll, uint8 validationType) external returns (address[] memory) {\n//         // return something which will make it obvious that you have accidentally delegated this context!\n//         address[] memory ret = new address[](3);\n//         (ret[0], ret[1], ret[2]) = (address(9), address(9), address(9));\n//         return ret;\n//\n//     }\n//\n//     function serialiseProofs(string calldata _poll, uint8 validationType) external returns (address[] memory) {\n//         // return something which will make it obvious that you have accidentally delegated this context!\n//         address[] memory ret = new address[](4);\n//         (ret[0], ret[1], ret[2], ret[3]) = (address(6), address(6), address(6), address(6));\n//         return ret;\n//     }\n// }\n\n\n/* Lunchcoin validator contract - mutual agreement */\ncontract MutualAgreement {\n    // dataCache must occupy the same slot as in Poll contract, ie first slot, slot 0.\n    mapping (bytes32 => bytes32[]) dataCache;\n    // resultsCache must occupy the same slot as in Poll contract, ie second slot, slot 1.\n    mapping (bytes32 => bool) resultsCache;\n    uint256 notes = 130;\n\n    using strings for *;\n    using stringcast for string;\n\n    uint8 constant vType=1;\n    string constant vDesc = \"mutual agreement\";\n    address pollAddress = 0x9D26a8a5Db7dC10689692caF8d52C912958409CF;\n\n    struct proofCounter {\n        bool fakeProof;\n        int8 duplicateProofs;\n        uint8 fakeProofs;\n        bool senderIsPresent;\n    }\n\n\n    function() external payable {\n        // NB sol 0.6+ better syntax for calldata arrays : https://solidity.readthedocs.io/en/v0.6.0/types.html#array-slices\n        bytes memory input = msg.data;\n\n        // TODO: This is V.0 accepting a string (really a bytes32) of EXACTLY 32 bytes, eg a doodle poll without the https:// ;)\n        bytes32 __ownAdress;  // NB assuming 32b rather than 20b for calldata loose packing. Remember to get rid of this line when optimising!\n        bytes memory usefulData;\n        bytes32 poll32;\n        bytes memory __reveal;\n        // demo result! (we don;t need more than bool really ;)\n        uint256 valid = 7331;\n\n        (__ownAdress, usefulData) = (bytesSplit32(input));\n        (poll32, __reveal) = (bytesSplit32(usefulData));\n\n        // NB other validators will need to additionally retrieve reveal data from msg.data\n        bytes32[] memory stakers = crossContractCall (encodeFunctionName(\"serialiseStakers\"), bytes32ToString(poll32), valid, vType);\n        bytes32[] memory proofs = crossContractCall (encodeFunctionName(\"serialiseProofs\"), bytes32ToString(poll32), valid, vType);\n\n    }\n\n\n    function setPollAddress (address newAddy) public returns (bool) {\n        pollAddress = newAddy;\n        return true;\n    }\n\n    function getPollAddress () public view returns (address) {\n        return pollAddress;\n    }\n\n    function dumpDataCache (bytes32 poll32, string memory fnName, uint8 vt) public returns (string memory, uint256, bytes32[] memory) {\n        bytes32 hash = keccak256(abi.encodePacked(poll32, encodeFunctionName(fnName), vt));\n        return (\"Validator context\", notes, dataCache[hash]);\n    }\n\n    function serialiseStakers(string calldata _poll, uint8 validationType) external view returns (address[] memory) {\n        // return something which will make it obvious that you have accidentally delegated this context!\n        address[] memory ret = new address[](4);\n        (ret[0], ret[1], ret[2], ret[3]) = (address(5), address(0), address(5), address(0));\n        return ret;\n    }\n\n    function serialiseProofs(string calldata _poll, uint8 validationType) external view returns (address[] memory) {\n        // return something which will make it obvious that you have accidentally delegated this context!\n        address[] memory ret = new address[](4);\n        (ret[0], ret[1], ret[2], ret[3]) = (address(0), address(5), address(0), address(5));\n        return ret;\n    }\n\n\n    function proofType() public pure returns (uint8) {\n      return vType;\n    }\n\n    function encodeFunctionName (string memory name) internal pure returns (bytes4) {\n        // TODO: cache for readability!\n        // if (\"serialiseStakers\")\n        //     return\n        // if (\"serialiseStakers\")\n        //     return\n        return bytes4(keccak256(bytes(name)));\n    }\n\n    // split a serialised string of addresses (as received from main contract).\n    // NB - only works in this validator - other validators will use multiple types within serialised string\n    function splitToAddresses(strings.slice memory concatenated) internal pure returns (address[] memory result) {\n        strings.slice memory delim = \",\".toSlice();\n        address[] memory parts = new address[](concatenated.count(delim));\n\n        for(uint i = 0; i < parts.length; i++) {\n           parts[i] = concatenated.split(delim).toString().toAddress();\n        }\n        return parts;\n\n    }\n\n    function bytes32ToBytes(bytes32 _bytes32) public pure returns (bytes memory){\n        // string memory str = string(_bytes32);\n        // TypeError: Explicit type conversion not allowed from \"bytes32\" to \"string storage pointer\"\n        bytes memory bytesArray = new bytes(32);\n        for (uint256 i; i < 32; i++) {\n            bytesArray[i] = _bytes32[i];\n        }\n        return bytesArray;\n    }\n\n    // function bytesToBytes32(bytes b, uint offset) private pure returns (bytes32) {\n    //     bytes32 out;\n\n    //     for (uint i = 0; i < 32; i++) {\n    //         out |= bytes32(b[offset + i] & 0xFF) >> (i * 8);\n    //     }\n    //     return out;\n    // }\n\n\n    function bytesToBytes32(bytes memory b) public pure returns (bytes32 bts) {\n        bytes32 i;\n        //NB size etc= 32b = 0x20b\n        assembly { i := mload(add(b, 0x20)) }\n        bts = i;\n    }\n\n    function bytes32ToString(bytes32 _bytes32) public pure returns (string memory ){\n        bytes memory bytesArray = bytes32ToBytes(_bytes32);\n        return string(bytesArray);\n    }\n\n    function bytes32ArrayToString (bytes32[] memory data)  public returns (string memory ) {\n        bytes memory bytesString = new bytes(data.length * 32);\n        uint urlLength;\n        uint i=0;\n        for (i=0; i<data.length; i++) {\n            for (uint j=0; j<32; j++) {\n                byte char = byte(bytes32(uint(data[i]) * 2 ** (8 * j)));\n                if (char != 0) {\n                    bytesString[urlLength] = char;\n                    urlLength += 1;\n                }\n            }\n        }\n        bytes memory bytesStringTrimmed = new bytes(urlLength);\n        for (i=0; i<urlLength; i++) {\n            bytesStringTrimmed[i] = bytesString[i];\n        }\n        return string(bytesStringTrimmed);\n    }\n\n    // TODO !!!\n    // function bytes32ToUint (bytes32 data) returns (uint) {\n    //     return 2;\n    // }\n\n    function bytesSplit32(bytes  memory data) public pure returns (bytes32, bytes memory ) {\n        uint8 splitAt = 32;                             // all (if variable split, pass in splitAt)\n        uint256 taillength = 0;\n        if (data.length > splitAt)\n            taillength = data.length-splitAt;\n        bytes32 temp;\n        // bytes32 head;                                   // 32b split\n        bytes memory head = new bytes(splitAt);         // variable length split\n        bytes memory tail = new bytes(taillength);\n        for(uint i=0;i<=data.length-1;i++){\n            if (i<splitAt)\n                head[i] = bytes(data)[i] ;\n            else\n                tail[i-splitAt] = bytes(data)[i] ;\n        }\n        return (bytesToBytes32(head), tail);\n    }\n\n    // calls fallback function of pollAddress, passing 4 byte encoded function name to remote contract to select method.\n    // NB future better: just get the ABI of the finished Poll conmtract, and use that!\n    // NB in sol 0.6 + fallback cannot return anything\n    // NB future optimisation : we are not using the functionality of string here, since string must have come from a bytes32\n    function crossContractCall (bytes4 fnNameHash, string  memory poll, uint256 valid, uint8 vt) public returns (bytes32[] memory) {\n    address pollContract = pollAddress;\n\n        assembly {\n            let ptr := mload(0x40)\n            calldatacopy(ptr, 0, calldatasize)\n            let result := delegatecall(gas, pollContract, ptr, calldatasize, 0, 0)\n            let size := returndatasize\n            returndatacopy(ptr, 0, size)\n            switch result\n            case 0 { revert(ptr, size) }\n            default { return(ptr, size) }\n        }\n    }\n\n\n    /* simplest possible validator - checks that a majority of poll.stakers(), including sender, are contained in poll.serialiseProofs() */\n    function validate(address _pollContract, string memory _poll, bytes32 _reveal) public payable returns (bool success) {\n        // bytes32[] memory stakersData = crossContractCall( encodeFunctionName(\"serialiseStakers\") , _poll, vType);\n        // bytes32[] memory proofsData = crossContractCall( encodeFunctionName(\"serialiseProofs\") , _poll, vType);\n        // bytes32[] memory thresholdData =  crossContractCall( encodeFunctionName(\"threshold\") , _poll, vType);\n\n        // address[] memory stakers = splitToAddresses( bytes32ArrayToString(stakersData).toSlice());\n        // address[] memory proofs = splitToAddresses( bytes32ArrayToString(proofsData).toSlice());\n        // uint8 threshold = uint8(bytes32ToUint(thresholdData[0]));\n\n\n        // bytes32[] memory stakersData = crossContractCall( encodeFunctionName(\"serialiseStakers\") , _poll, vType);\n        // bytes32[] memory proofsData = crossContractCall( encodeFunctionName(\"serialiseProofs\") , _poll, vType);\n        // bytes32[] memory thresholdData =  crossContractCall( encodeFunctionName(\"threshold\") , _poll, vType);\n\n        address[] memory stakers = splitToAddresses( bytes32ArrayToString( crossContractCall( encodeFunctionName(\"serialiseStakers\") , _poll, 12341234, vType) ).toSlice());\n        address[] memory proofs = splitToAddresses( bytes32ArrayToString( crossContractCall( encodeFunctionName(\"serialiseProofs\") , _poll, 12341234, vType) ).toSlice());\n        // uint8 threshold = uint8(bytes32ToUint( crossContractCall( encodeFunctionName(\"threshold\") , _poll, 12341234, vType)[0]));\n        uint8 threshold = 3;\n\n        proofCounter memory pc;\n\n        for(uint i = 0; i < proofs.length; i++) {\n            pc.duplicateProofs = -1;\n            for(uint j = 0; i < stakers.length; i++) {\n                if (proofs[i] == stakers[j]) {\n                    // Only set senderIsPresent = true the first time that proofs[i] == stakers[j] == msg.sender\n                    if (proofs[i] == msg.sender) { pc.senderIsPresent = true; }\n                    // set duplicateProofs hopefully to 0, and remove staker from the array\n                    pc.duplicateProofs++;\n                    stakers[j] = address(0);\n                }\n            }\n            if (pc.duplicateProofs>0) { pc.fakeProofs += uint8(pc.duplicateProofs); }\n        }\n\n        // // deal with 0 < threshold < 1\n        // if(percentageThreshold>0) {\n        //   threshold = percentageThreshold*stakers.length;\n        // }\n        if (pc.senderIsPresent && proofs.length-pc.fakeProofs >= threshold) {\n            return true;\n        }\n    }\n}\n",
  "sourcePath": "/home/teide/randomCode/truffletings/proxyBox/contracts/MutualAgreement.sol",
  "compiler": {
    "name": "solc",
    "version": "0.5.16+commit.9c3226ce.Emscripten.clang"
  },
  "schemaVersion": "3.2.0",
  "updatedAt": "2020-06-02T00:35:12.177Z",
  "networkType": "ethereum",
  "devdoc": {
    "methods": {}
  },
  "userdoc": {
    "methods": {}
  }
}