{
  "contractName": "MutualAgreement",
  "abi": [
    {
      "inputs": [],
      "payable": false,
      "stateMutability": "nonpayable",
      "type": "constructor"
    },
    {
      "anonymous": false,
      "inputs": [],
      "name": "CrossContractValidateBegin",
      "type": "event"
    },
    {
      "anonymous": false,
      "inputs": [],
      "name": "CrossContractValidateEnd",
      "type": "event"
    },
    {
      "payable": true,
      "stateMutability": "payable",
      "type": "fallback"
    },
    {
      "constant": true,
      "inputs": [
        {
          "internalType": "string",
          "name": "_poll",
          "type": "string"
        },
        {
          "internalType": "string",
          "name": "_fnName",
          "type": "string"
        },
        {
          "internalType": "uint8",
          "name": "_vt",
          "type": "uint8"
        }
      ],
      "name": "retrieve",
      "outputs": [
        {
          "internalType": "bytes32[]",
          "name": "",
          "type": "bytes32[]"
        }
      ],
      "payable": false,
      "stateMutability": "view",
      "type": "function"
    },
    {
      "constant": false,
      "inputs": [
        {
          "internalType": "string",
          "name": "_poll",
          "type": "string"
        },
        {
          "internalType": "string",
          "name": "_fnName",
          "type": "string"
        },
        {
          "internalType": "uint8",
          "name": "_vt",
          "type": "uint8"
        },
        {
          "internalType": "bytes32[]",
          "name": "data",
          "type": "bytes32[]"
        }
      ],
      "name": "set",
      "outputs": [],
      "payable": false,
      "stateMutability": "nonpayable",
      "type": "function"
    },
    {
      "constant": true,
      "inputs": [
        {
          "internalType": "address",
          "name": "_pollContract",
          "type": "address"
        },
        {
          "internalType": "string",
          "name": "_poll",
          "type": "string"
        },
        {
          "internalType": "bytes32",
          "name": "_reveal",
          "type": "bytes32"
        }
      ],
      "name": "validate",
      "outputs": [
        {
          "internalType": "bool",
          "name": "success",
          "type": "bool"
        }
      ],
      "payable": false,
      "stateMutability": "view",
      "type": "function"
    },
    {
      "constant": true,
      "inputs": [
        {
          "internalType": "string",
          "name": "_poll",
          "type": "string"
        },
        {
          "internalType": "uint8",
          "name": "validationType",
          "type": "uint8"
        }
      ],
      "name": "serialiseStakers",
      "outputs": [
        {
          "internalType": "address[]",
          "name": "",
          "type": "address[]"
        }
      ],
      "payable": false,
      "stateMutability": "pure",
      "type": "function"
    },
    {
      "constant": true,
      "inputs": [
        {
          "internalType": "string",
          "name": "_poll",
          "type": "string"
        },
        {
          "internalType": "uint8",
          "name": "validationType",
          "type": "uint8"
        }
      ],
      "name": "serialiseProofs",
      "outputs": [
        {
          "internalType": "address[]",
          "name": "",
          "type": "address[]"
        }
      ],
      "payable": false,
      "stateMutability": "pure",
      "type": "function"
    },
    {
      "constant": true,
      "inputs": [],
      "name": "proofType",
      "outputs": [
        {
          "internalType": "uint8",
          "name": "",
          "type": "uint8"
        }
      ],
      "payable": false,
      "stateMutability": "pure",
      "type": "function"
    },
    {
      "constant": true,
      "inputs": [
        {
          "internalType": "address",
          "name": "account",
          "type": "address"
        }
      ],
      "name": "toString",
      "outputs": [
        {
          "internalType": "string",
          "name": "",
          "type": "string"
        }
      ],
      "payable": false,
      "stateMutability": "pure",
      "type": "function"
    },
    {
      "constant": true,
      "inputs": [
        {
          "internalType": "uint256",
          "name": "value",
          "type": "uint256"
        }
      ],
      "name": "toString",
      "outputs": [
        {
          "internalType": "string",
          "name": "",
          "type": "string"
        }
      ],
      "payable": false,
      "stateMutability": "pure",
      "type": "function"
    },
    {
      "constant": true,
      "inputs": [
        {
          "internalType": "bytes",
          "name": "data",
          "type": "bytes"
        },
        {
          "internalType": "uint16",
          "name": "len",
          "type": "uint16"
        }
      ],
      "name": "toString",
      "outputs": [
        {
          "internalType": "string",
          "name": "",
          "type": "string"
        }
      ],
      "payable": false,
      "stateMutability": "pure",
      "type": "function"
    },
    {
      "constant": true,
      "inputs": [
        {
          "internalType": "bytes32",
          "name": "value",
          "type": "bytes32"
        }
      ],
      "name": "toString",
      "outputs": [
        {
          "internalType": "string",
          "name": "",
          "type": "string"
        }
      ],
      "payable": false,
      "stateMutability": "pure",
      "type": "function"
    },
    {
      "constant": true,
      "inputs": [
        {
          "internalType": "bytes32",
          "name": "_bytes32",
          "type": "bytes32"
        }
      ],
      "name": "bytes32ToBytes",
      "outputs": [
        {
          "internalType": "bytes",
          "name": "",
          "type": "bytes"
        }
      ],
      "payable": false,
      "stateMutability": "pure",
      "type": "function"
    },
    {
      "constant": true,
      "inputs": [
        {
          "internalType": "bytes",
          "name": "b",
          "type": "bytes"
        }
      ],
      "name": "bytesToBytes32",
      "outputs": [
        {
          "internalType": "bytes32",
          "name": "bts",
          "type": "bytes32"
        }
      ],
      "payable": false,
      "stateMutability": "pure",
      "type": "function"
    },
    {
      "constant": true,
      "inputs": [
        {
          "internalType": "bytes32",
          "name": "_bytes32",
          "type": "bytes32"
        }
      ],
      "name": "bytes32ToString",
      "outputs": [
        {
          "internalType": "string",
          "name": "",
          "type": "string"
        }
      ],
      "payable": false,
      "stateMutability": "pure",
      "type": "function"
    },
    {
      "constant": true,
      "inputs": [
        {
          "internalType": "bytes32[]",
          "name": "data",
          "type": "bytes32[]"
        }
      ],
      "name": "bytes32ArrayToString",
      "outputs": [
        {
          "internalType": "string",
          "name": "",
          "type": "string"
        }
      ],
      "payable": false,
      "stateMutability": "pure",
      "type": "function"
    },
    {
      "constant": true,
      "inputs": [
        {
          "internalType": "bytes",
          "name": "data",
          "type": "bytes"
        }
      ],
      "name": "bytesSplit32",
      "outputs": [
        {
          "internalType": "bytes32",
          "name": "",
          "type": "bytes32"
        },
        {
          "internalType": "bytes",
          "name": "",
          "type": "bytes"
        }
      ],
      "payable": false,
      "stateMutability": "pure",
      "type": "function"
    },
    {
      "constant": false,
      "inputs": [
        {
          "internalType": "bytes4",
          "name": "fnNameHash",
          "type": "bytes4"
        },
        {
          "internalType": "string",
          "name": "poll",
          "type": "string"
        },
        {
          "internalType": "uint256",
          "name": "valid",
          "type": "uint256"
        },
        {
          "internalType": "uint8",
          "name": "vt",
          "type": "uint8"
        }
      ],
      "name": "crossContractCall",
      "outputs": [
        {
          "internalType": "bytes32[]",
          "name": "",
          "type": "bytes32[]"
        }
      ],
      "payable": false,
      "stateMutability": "nonpayable",
      "type": "function"
    }
  ],
  "bytecode": "0x608060405260826003557fffffffffffffffffffffffffffffffffffffffffffffffffffffffffffffffff600460006101000a81548160ff021916908360000b60ff160217905550739d26a8a5db7dc10689692caf8d52c912958409cf600460016101000a81548173ffffffffffffffffffffffffffffffffffffffff021916908373ffffffffffffffffffffffffffffffffffffffff1602179055503480156100a857600080fd5b506001600460006101000a81548160ff021916908360000b60ff1602179055506127fa806100d76000396000f3fe6080604052600436106100f35760003560e01c80638a9392c01161008a578063a1bac85f11610059578063a1bac85f14610cd1578063b11a19e814610e20578063bfe370d914610ed4578063d122491a14610fb0576100f3565b80638a9392c0146108785780638e3dca0b146109825780639201de5514610adf5780639cbc87a314610b93576100f3565b806356024939116100c6578063560249391461041257806356ca623e146104fa5780635e3e225f146105c45780636900a3ae146107c4576100f3565b806305af5d35146100fd57806313311a1c1461012e57806326a9cdf7146102165780634c0999c71461035e575b6100fb611171565b005b34801561010957600080fd5b506101126111be565b604051808260ff1660ff16815260200191505060405180910390f35b34801561013a57600080fd5b506101bf6004803603604081101561015157600080fd5b810190808035906020019064010000000081111561016e57600080fd5b82018360208201111561018057600080fd5b803590602001918460018302840111640100000000831117156101a257600080fd5b9091929391929390803560ff1690602001909291905050506111c7565b6040518080602001828103825283818151815260200191508051906020019060200280838360005b838110156102025780820151818401526020810190506101e7565b505050509050019250505060405180910390f35b34801561022257600080fd5b506102dc6004803603602081101561023957600080fd5b810190808035906020019064010000000081111561025657600080fd5b82018360208201111561026857600080fd5b8035906020019184600183028401116401000000008311171561028a57600080fd5b91908080601f016020809104026020016040519081016040528093929190818152602001838380828437600081840152601f19601f820116905080830192505050505050509192919290505050611330565b6040518083815260200180602001828103825283818151815260200191508051906020019080838360005b83811015610322578082015181840152602081019050610307565b50505050905090810190601f16801561034f5780820380516001836020036101000a031916815260200191505b50935050505060405180910390f35b34801561036a57600080fd5b506103976004803603602081101561038157600080fd5b81019080803590602001909291905050506114bb565b6040518080602001828103825283818151815260200191508051906020019080838360005b838110156103d75780820151818401526020810190506103bc565b50505050905090810190601f1680156104045780820380516001836020036101000a031916815260200191505b509250505060405180910390f35b34801561041e57600080fd5b506104a36004803603604081101561043557600080fd5b810190808035906020019064010000000081111561045257600080fd5b82018360208201111561046457600080fd5b8035906020019184600183028401116401000000008311171561048657600080fd5b9091929391929390803560ff169060200190929190505050611563565b6040518080602001828103825283818151815260200191508051906020019060200280838360005b838110156104e65780820151818401526020810190506104cb565b505050509050019250505060405180910390f35b34801561050657600080fd5b506105496004803603602081101561051d57600080fd5b81019080803573ffffffffffffffffffffffffffffffffffffffff1690602001909291905050506116cc565b6040518080602001828103825283818151815260200191508051906020019080838360005b8381101561058957808201518184015260208101905061056e565b50505050905090810190601f1680156105b65780820380516001836020036101000a031916815260200191505b509250505060405180910390f35b3480156105d057600080fd5b506107c2600480360360808110156105e757600080fd5b810190808035906020019064010000000081111561060457600080fd5b82018360208201111561061657600080fd5b8035906020019184600183028401116401000000008311171561063857600080fd5b91908080601f016020809104026020016040519081016040528093929190818152602001838380828437600081840152601f19601f8201169050808301925050505050505091929192908035906020019064010000000081111561069b57600080fd5b8201836020820111156106ad57600080fd5b803590602001918460018302840111640100000000831117156106cf57600080fd5b91908080601f016020809104026020016040519081016040528093929190818152602001838380828437600081840152601f19601f820116905080830192505050505050509192919290803560ff1690602001909291908035906020019064010000000081111561073f57600080fd5b82018360208201111561075157600080fd5b8035906020019184602083028401116401000000008311171561077357600080fd5b919080806020026020016040519081016040528093929190818152602001838360200280828437600081840152601f19601f82011690508083019250505050505050919291929050505061172e565b005b3480156107d057600080fd5b506107fd600480360360208110156107e757600080fd5b8101908080359060200190929190505050611832565b6040518080602001828103825283818151815260200191508051906020019080838360005b8381101561083d578082015181840152602081019050610822565b50505050905090810190601f16801561086a5780820380516001836020036101000a031916815260200191505b509250505060405180910390f35b34801561088457600080fd5b506109686004803603606081101561089b57600080fd5b81019080803573ffffffffffffffffffffffffffffffffffffffff169060200190929190803590602001906401000000008111156108d857600080fd5b8201836020820111156108ea57600080fd5b8035906020019184600183028401116401000000008311171561090c57600080fd5b91908080601f016020809104026020016040519081016040528093929190818152602001838380828437600081840152601f19601f82011690508083019250505050505050919291929080359060200190929190505050611865565b604051808215151515815260200191505060405180910390f35b34801561098e57600080fd5b50610a88600480360360808110156109a557600080fd5b8101908080357bffffffffffffffffffffffffffffffffffffffffffffffffffffffff19169060200190929190803590602001906401000000008111156109eb57600080fd5b8201836020820111156109fd57600080fd5b80359060200191846001830284011164010000000083111715610a1f57600080fd5b91908080601f016020809104026020016040519081016040528093929190818152602001838380828437600081840152601f19601f82011690508083019250505050505050919291929080359060200190929190803560ff169060200190929190505050611b14565b6040518080602001828103825283818151815260200191508051906020019060200280838360005b83811015610acb578082015181840152602081019050610ab0565b505050509050019250505060405180910390f35b348015610aeb57600080fd5b50610b1860048036036020811015610b0257600080fd5b8101908080359060200190929190505050611b90565b6040518080602001828103825283818151815260200191508051906020019080838360005b83811015610b58578082015181840152602081019050610b3d565b50505050905090810190601f168015610b855780820380516001836020036101000a031916815260200191505b509250505060405180910390f35b348015610b9f57600080fd5b50610c5660048036036020811015610bb657600080fd5b8101908080359060200190640100000000811115610bd357600080fd5b820183602082011115610be557600080fd5b80359060200191846020830284011164010000000083111715610c0757600080fd5b919080806020026020016040519081016040528093929190818152602001838360200280828437600081840152601f19601f820116905080830192505050505050509192919290505050611ba7565b6040518080602001828103825283818151815260200191508051906020019080838360005b83811015610c96578082015181840152602081019050610c7b565b50505050905090810190601f168015610cc35780820380516001836020036101000a031916815260200191505b509250505060405180910390f35b348015610cdd57600080fd5b50610da560048036036040811015610cf457600080fd5b8101908080359060200190640100000000811115610d1157600080fd5b820183602082011115610d2357600080fd5b80359060200191846001830284011164010000000083111715610d4557600080fd5b91908080601f016020809104026020016040519081016040528093929190818152602001838380828437600081840152601f19601f820116905080830192505050505050509192919290803561ffff169060200190929190505050611d6a565b6040518080602001828103825283818151815260200191508051906020019080838360005b83811015610de5578082015181840152602081019050610dca565b50505050905090810190601f168015610e125780820380516001836020036101000a031916815260200191505b509250505060405180910390f35b348015610e2c57600080fd5b50610e5960048036036020811015610e4357600080fd5b8101908080359060200190929190505050611fe7565b6040518080602001828103825283818151815260200191508051906020019080838360005b83811015610e99578082015181840152602081019050610e7e565b50505050905090810190601f168015610ec65780820380516001836020036101000a031916815260200191505b509250505060405180910390f35b348015610ee057600080fd5b50610f9a60048036036020811015610ef757600080fd5b8101908080359060200190640100000000811115610f1457600080fd5b820183602082011115610f2657600080fd5b80359060200191846001830284011164010000000083111715610f4857600080fd5b91908080601f016020809104026020016040519081016040528093929190818152602001838380828437600081840152601f19601f82011690508083019250505050505050919291929050505061201a565b6040518082815260200191505060405180910390f35b348015610fbc57600080fd5b5061111a60048036036060811015610fd357600080fd5b8101908080359060200190640100000000811115610ff057600080fd5b82018360208201111561100257600080fd5b8035906020019184600183028401116401000000008311171561102457600080fd5b91908080601f016020809104026020016040519081016040528093929190818152602001838380828437600081840152601f19601f8201169050808301925050505050505091929192908035906020019064010000000081111561108757600080fd5b82018360208201111561109957600080fd5b803590602001918460018302840111640100000000831117156110bb57600080fd5b91908080601f016020809104026020016040519081016040528093929190818152602001838380828437600081840152601f19601f820116905080830192505050505050509192919290803560ff16906020019092919050505061202d565b6040518080602001828103825283818151815260200191508051906020019060200280838360005b8381101561115d578082015181840152602081019050611142565b505050509050019250505060405180910390f35b60606000368080601f016020809104026020016040519081016040528093929190818152602001838380828437600081840152601f19601f82011690508083019250505050505050905050565b60006001905090565b60608060046040519080825280602002602001820160405280156111fa5781602001602082028038833980820191505090505b50905060006005600060058393508292508191508090508460008151811061121e57fe5b602002602001018560018151811061123257fe5b602002602001018660028151811061124657fe5b602002602001018760038151811061125a57fe5b602002602001018473ffffffffffffffffffffffffffffffffffffffff1673ffffffffffffffffffffffffffffffffffffffff168152508473ffffffffffffffffffffffffffffffffffffffff1673ffffffffffffffffffffffffffffffffffffffff168152508473ffffffffffffffffffffffffffffffffffffffff1673ffffffffffffffffffffffffffffffffffffffff168152508473ffffffffffffffffffffffffffffffffffffffff1673ffffffffffffffffffffffffffffffffffffffff1681525050505050809150509392505050565b6000606060006020905060008090508160ff1685511115611355578160ff1685510390505b600060608360ff166040519080825280601f01601f19166020018201604052801561138f5781602001600182028038833980820191505090505b5090506060836040519080825280601f01601f1916602001820160405280156113c75781602001600182028038833980820191505090505b50905060008090505b600189510381116114a2578560ff1681101561143d578881815181106113f257fe5b602001015160f81c60f81b83828151811061140957fe5b60200101907effffffffffffffffffffffffffffffffffffffffffffffffffffffffffffff1916908160001a905350611495565b88818151811061144957fe5b602001015160f81c60f81b828760ff1683038151811061146557fe5b60200101907effffffffffffffffffffffffffffffffffffffffffffffffffffffffffffff1916908160001a9053505b80806001019150506113d0565b506114ac8261201a565b81965096505050505050915091565b60608060206040519080825280601f01601f1916602001820160405280156114f25781602001600182028038833980820191505090505b50905060005b60208110156115595783816020811061150d57fe5b1a60f81b82828151811061151d57fe5b60200101907effffffffffffffffffffffffffffffffffffffffffffffffffffffffffffff1916908160001a90535080806001019150506114f8565b5080915050919050565b60608060046040519080825280602002602001820160405280156115965781602001602082028038833980820191505090505b5090506005600060056000839350829250819150809050846000815181106115ba57fe5b60200260200101856001815181106115ce57fe5b60200260200101866002815181106115e257fe5b60200260200101876003815181106115f657fe5b602002602001018473ffffffffffffffffffffffffffffffffffffffff1673ffffffffffffffffffffffffffffffffffffffff168152508473ffffffffffffffffffffffffffffffffffffffff1673ffffffffffffffffffffffffffffffffffffffff168152508473ffffffffffffffffffffffffffffffffffffffff1673ffffffffffffffffffffffffffffffffffffffff168152508473ffffffffffffffffffffffffffffffffffffffff1673ffffffffffffffffffffffffffffffffffffffff1681525050505050809150509392505050565b606061172782604051602001808273ffffffffffffffffffffffffffffffffffffffff1673ffffffffffffffffffffffffffffffffffffffff1660601b81526014019150506040516020818303038152906040526005611d6a565b9050919050565b60008461173a85612170565b846040516020018084805190602001908083835b60208310611771578051825260208201915060208101905060208303925061174e565b6001836020036101000a038019825116818451168082178552505050505050905001837bffffffffffffffffffffffffffffffffffffffffffffffffffffffff19167bffffffffffffffffffffffffffffffffffffffffffffffffffffffff191681526004018260ff1660ff1660f81b815260010193505050506040516020818303038152906040528051906020012090508160016000838152602001908152602001600020908051906020019061182a929190612708565b505050505050565b606061185e82604051602001808281526020019150506040516020818303038152906040526000611d6a565b9050919050565b600060606118aa846040518060400160405280601081526020017f73657269616c6973655374616b65727300000000000000000000000000000000815250600161202d565b905060606118ef856040518060400160405280600f81526020017f73657269616c69736550726f6f66730000000000000000000000000000000000815250600161202d565b905060606119046118ff84611ba7565b612181565b9050606061191961191484611ba7565b612181565b9050600060039050611929612755565b60008090505b8351811015611ad3577fffffffffffffffffffffffffffffffffffffffffffffffffffffffffffffffff826020019060000b908160000b8152505060008090505b8551821015611a985785818151811061198557fe5b602002602001015173ffffffffffffffffffffffffffffffffffffffff168583815181106119af57fe5b602002602001015173ffffffffffffffffffffffffffffffffffffffff161415611a8b573373ffffffffffffffffffffffffffffffffffffffff168583815181106119f657fe5b602002602001015173ffffffffffffffffffffffffffffffffffffffff161415611a2c5760018360600190151590811515815250505b82602001805180919060010160000b60000b815250506000868281518110611a5057fe5b602002602001019073ffffffffffffffffffffffffffffffffffffffff16908173ffffffffffffffffffffffffffffffffffffffff16815250505b8180600101925050611970565b506000826020015160000b1315611ac6578160200151826040018181510191509060ff16908160ff16815250505b808060010191505061192f565b5080606001518015611af257508160ff16816040015160ff1684510310155b15611b065760019650505050505050611b0d565b5050505050505b9392505050565b60606000600460019054906101000a900473ffffffffffffffffffffffffffffffffffffffff1690507f1ff50e4650f7f1e5b26a5f5e921b803deee4a95a1b6ef46e05992b3bc1dcdb8c60405160405180910390a160405136600082376000803683855af43d806000843e8160008114611b8c578184f35b8184fd5b606080611b9c836114bb565b905080915050919050565b60608060208351026040519080825280601f01601f191660200182016040528015611be15781602001600182028038833980820191505090505b50905060008060009050600090505b8451811015611cba5760008090505b6020811015611cac5760008160080260020a878481518110611c1d57fe5b602002602001015160001c0260001b9050600060f81b817effffffffffffffffffffffffffffffffffffffffffffffffffffffffffffff191614611c9e5780858581518110611c6857fe5b60200101907effffffffffffffffffffffffffffffffffffffffffffffffffffffffffffff1916908160001a9053506001840193505b508080600101915050611bff565b508080600101915050611bf0565b6060826040519080825280601f01601f191660200182016040528015611cef5781602001600182028038833980820191505090505b509050600091505b82821015611d5e57838281518110611d0b57fe5b602001015160f81c60f81b818381518110611d2257fe5b60200101907effffffffffffffffffffffffffffffffffffffffffffffffffffffffffffff1916908160001a9053508180600101925050611cf7565b80945050505050919050565b6060806040518060400160405280601081526020017f3031323334353637383961626364656600000000000000000000000000000000815250905060006014905060606002820260020161ffff166040519080825280601f01601f191660200182016040528015611dea5781602001600182028038833980820191505090505b5090507f300000000000000000000000000000000000000000000000000000000000000081600081518110611e1b57fe5b60200101907effffffffffffffffffffffffffffffffffffffffffffffffffffffffffffff1916908160001a9053507f780000000000000000000000000000000000000000000000000000000000000081600181518110611e7857fe5b60200101907effffffffffffffffffffffffffffffffffffffffffffffffffffffffffffff1916908160001a90535060008090505b8261ffff16811015611fda57836004888381518110611ec857fe5b602001015160f81c60f81b7effffffffffffffffffffffffffffffffffffffffffffffffffffffffffffff1916901c60f81c60ff1681518110611f0757fe5b602001015160f81c60f81b826002830260020181518110611f2457fe5b60200101907effffffffffffffffffffffffffffffffffffffffffffffffffffffffffffff1916908160001a90535083600f60f81b888381518110611f6557fe5b602001015160f81c60f81b1660f81c60ff1681518110611f8157fe5b602001015160f81c60f81b826002830260030181518110611f9e57fe5b60200101907effffffffffffffffffffffffffffffffffffffffffffffffffffffffffffff1916908160001a9053508080600101915050611ead565b5080935050505092915050565b606061201382604051602001808281526020019150506040516020818303038152906040526000611d6a565b9050919050565b6000806020830151905080915050919050565b606060008461203b85612170565b846040516020018084805190602001908083835b60208310612072578051825260208201915060208101905060208303925061204f565b6001836020036101000a038019825116818451168082178552505050505050905001837bffffffffffffffffffffffffffffffffffffffffffffffffffffffff19167bffffffffffffffffffffffffffffffffffffffffffffffffffffffff191681526004018260ff1660ff1660f81b815260010193505050506040516020818303038152906040528051906020012090506001600082815260200190815260200160002080548060200260200160405190810160405280929190818152602001828054801561216157602002820191906000526020600020905b81548152602001906001019080831161214d575b50505050509150509392505050565b600081805190602001209050919050565b606061218b612786565b6121c96040518060400160405280600181526020017f2c000000000000000000000000000000000000000000000000000000000000008152506122b5565b90506121d3612786565b6121dc846122b5565b905060606121f383836122e390919063ffffffff16565b6040519080825280602002602001820160405280156122215781602001602082028038833980820191505090505b50905060008090505b81518110156122a95761225661225161224c868661235890919063ffffffff16565b612372565b6123d4565b82828151811061226257fe5b602002602001019073ffffffffffffffffffffffffffffffffffffffff16908173ffffffffffffffffffffffffffffffffffffffff1681525050808060010191505061222a565b50809350505050919050565b6122bd612786565b600060208301905060405180604001604052808451815260200182815250915050919050565b60008082600001516123078560000151866020015186600001518760200151612546565b0190505b836000015184602001510181116123515781806001019250508260000151612349856020015183038660000151038386600001518760200151612546565b01905061230b565b5092915050565b612360612786565b61236b838383612621565b5092915050565b60608082600001516040519080825280601f01601f1916602001820160405280156123ac5781602001600182028038833980820191505090505b50905060006020820190506123ca81856020015186600001516126bf565b8192505050919050565b6000606082905060008090506000806000600290505b602a811015612539576101008402935084818151811061240657fe5b602001015160f81c60f81b60f81c925084600182018151811061242557fe5b602001015160f81c60f81b60f81c915060618360ff161015801561244d575060668360ff1611155b1561245d576057830392506124ab565b60308360ff1610158015612475575060398360ff1611155b15612485576030830392506124aa565b60418360ff161015801561249d575060468360ff1611155b156124a9576037830392505b5b5b60618260ff16101580156124c3575060668260ff1611155b156124d357605782039150612521565b60308260ff16101580156124eb575060398260ff1611155b156124fb57603082039150612520565b60418260ff1610158015612513575060468260ff1611155b1561251f576037820391505b5b5b81601084020160ff16840193506002810190506123ea565b5082945050505050919050565b600080849050600086851161261157602085116125cb57600060018660200360080260020a031960001b905060008186511690506000878a8a0103905060008386511690505b8281146125bd578186106125aa578a8a019650505050505050612619565b858060010196505083865116905061258c565b859650505050505050612619565b60008585209050600091505b858803821161260f5760008684209050808214156125fb5783945050505050612619565b6001840193505081806001019250506125d7565b505b868601925050505b949350505050565b612629612786565b60006126478560000151866020015186600001518760200151612546565b905084602001518360200181815250508460200151810383600001818152505084600001518560200151018114156126895760008560000181815250506126b4565b8360000151836000015101856000018181510391508181525050836000015181018560200181815250505b829150509392505050565b5b602081106126e357815183526020830192506020820191506020810390506126c0565b60006001826020036101000a0390508019835116818551168181178652505050505050565b828054828255906000526020600020908101928215612744579160200282015b82811115612743578251825591602001919060010190612728565b5b50905061275191906127a0565b5090565b60405180608001604052806000151581526020016000800b8152602001600060ff1681526020016000151581525090565b604051806040016040528060008152602001600081525090565b6127c291905b808211156127be5760008160009055506001016127a6565b5090565b9056fea265627a7a72315820acc70535b5321a4ac7e915968dedd3a061a56e99396ef6c4707667271a1220ae64736f6c63430005100032",
  "source": "pragma solidity ^0.5.0;\n\nimport \"./strings.sol\";\nimport \"./stringCasting.sol\";\n// import \"./BytesLib.sol\";\n\n\n/* empty contract - the real one is depolyed at an address which will be passed as param to validate */\n\n// contract Poll {\n//     function serialiseStakers(string calldata _poll, uint8 validationType) external returns (address[] memory) {\n//         // return something which will make it obvious that you have accidentally delegated this context!\n//         address[] memory ret = new address[](3);\n//         (ret[0], ret[1], ret[2]) = (address(9), address(9), address(9));\n//         return ret;\n//\n//     }\n//\n//     function serialiseProofs(string calldata _poll, uint8 validationType) external returns (address[] memory) {\n//         // return something which will make it obvious that you have accidentally delegated this context!\n//         address[] memory ret = new address[](4);\n//         (ret[0], ret[1], ret[2], ret[3]) = (address(6), address(6), address(6), address(6));\n//         return ret;\n//     }\n// }\n\n\n/* Lunchcoin validator contract - mutual agreement */\ncontract MutualAgreement {\n    address owner;  // is set by TokenStorage.\n\n    // allTheData must occupy the same slot as in Poll contract, ie second slot, slot 1.\n    mapping (bytes32 => bytes32[]) allTheData;\n    // resultsCache must occupy the same slot as in Poll contract, ie fourth slot, slot 3.\n    mapping (bytes32 => bool) resultsCache;\n\n    uint256 notes = 130;\n    int8 constructed = -1;\n\n    using strings for *;\n    using stringcast for string;\n\n    uint8 constant vType=1;\n    string constant vDesc = \"mutual agreement\";\n    address pollAddress = 0x9D26a8a5Db7dC10689692caF8d52C912958409CF;\n\n    struct proofCounter {\n        bool fakeProof;\n        int8 duplicateProofs;\n        uint8 fakeProofs;\n        bool senderIsPresent;\n    }\n\n    function () payable external {\n        _fallback();\n    }\n\n    // function() external payable {\n    //     // NB sol 0.6+ better syntax for calldata arrays : https://solidity.readthedocs.io/en/v0.6.0/types.html#array-slices\n    //     bytes memory input = msg.data;\n    //\n    //     // TODO: This is V.0 accepting a string (really a bytes32) of EXACTLY 32 bytes, eg a doodle poll without the https:// ;)\n    //     bytes32 __ownAdress;  // NB assuming 32b rather than 20b for calldata loose packing. Remember to get rid of this line when optimising!\n    //     bytes memory usefulData;\n    //     bytes32 poll32;\n    //     bytes memory __reveal;\n    //     // demo result! (we don;t need more than bool really ;)\n    //     uint256 valid = 7331;\n    //\n    //     (__ownAdress, usefulData) = (bytesSplit32(input));\n    //     (poll32, __reveal) = (bytesSplit32(usefulData));\n    //\n    //     // NB other validators will need to additionally retrieve reveal data from msg.data\n    //     bytes32[] memory stakers = crossContractCall (encodeFunctionName(\"serialiseStakers\"), bytes32ToString(poll32), valid, vType);\n    //     bytes32[] memory proofs = crossContractCall (encodeFunctionName(\"serialiseProofs\"), bytes32ToString(poll32), valid, vType);\n    //\n    // }\n\n    constructor () public {\n        constructed = 1;\n    }\n\n    function _fallback() internal {\n        bytes memory input = msg.data;\n\n\n    }\n    //\n    // function getMaOK() public view returns (uint8) {\n    //   return ok;\n    // }\n    //\n    // function setMaOK (uint8 _ok) public {\n    //   ok = _ok;\n    // }\n    //\n    // function getMaResult() public view returns (uint8) {\n    //   return result;\n    // }\n    //\n    // function setMaResult (uint8 _result) public {\n    //   result = _result;\n    // }\n    //\n    // function getMyMap(uint idx) public view returns (uint) {\n    //   return myMap[idx];\n    // }\n    //\n    // function setMyMap (uint idx, uint _myMap) public {\n    //   myMap[idx] = _myMap;\n    // }\n\n    // function getOwner() public view returns (address) {\n    //   return owner;\n    // }\n    //\n    // event pollAddressSet();\n    // function setPollAddress (address newAddy) public returns (bool) {\n    //     pollAddress = newAddy;\n    //     emit pollAddressSet();\n    //     return true;\n    // }\n    //\n    // function getPollAddress () public view returns (address) {\n    //     return pollAddress;\n    // }\n    //\n    // function getStateVars () public view returns (uint256, uint8, string memory, address, int8) {\n    //     return (notes, vType, vDesc, pollAddress, constructed);\n    // }\n\n    // event RetrievedDataCache(string, uint256, bytes32[]);\n    function retrieve (string memory _poll, string memory _fnName, uint8 _vt) public view returns (bytes32[] memory) {\n        bytes32 hash = keccak256(abi.encodePacked(_poll, encodeFunctionName(_fnName), _vt));\n        // emit RetrievedDataCache(\"Poll context:\", notes, allTheData[hash]);\n        return (allTheData[hash]);\n    }\n\n    function set (string memory _poll, string memory _fnName, uint8 _vt, bytes32[] memory data) public {\n      bytes32 hash = keccak256(abi.encodePacked(_poll, encodeFunctionName(_fnName), _vt));\n      // emit RetrievedDataCache(\"Poll context:\", notes, allTheData[hash]);\n      allTheData[hash] = data;\n    }\n\n\n    /* simplest possible validator - checks that a majority of poll.stakers(), including sender, are contained in poll.serialiseProofs() */\n    function validate(address _pollContract, string memory _poll, bytes32 _reveal) public view returns (bool success) {\n        // bytes32[] memory stakersData = crossContractCall( encodeFunctionName(\"serialiseStakers\") , _poll, vType);\n        // bytes32[] memory proofsData = crossContractCall( encodeFunctionName(\"serialiseProofs\") , _poll, vType);\n        // bytes32[] memory thresholdData =  crossContractCall( encodeFunctionName(\"threshold\") , _poll, vType);\n\n        // address[] memory stakers = splitToAddresses( bytes32ArrayToString(stakersData).toSlice());\n        // address[] memory proofs = splitToAddresses( bytes32ArrayToString(proofsData).toSlice());\n        // uint8 threshold = uint8(bytes32ToUint(thresholdData[0]));\n\n\n        // bytes32[] memory stakersData = crossContractCall( encodeFunctionName(\"serialiseStakers\") , _poll, vType);\n        // bytes32[] memory proofsData = crossContractCall( encodeFunctionName(\"serialiseProofs\") , _poll, vType);\n        // bytes32[] memory thresholdData =  crossContractCall( encodeFunctionName(\"threshold\") , _poll, vType);\n        bytes32[] memory rawStakers = retrieve(_poll, \"serialiseStakers\", vType);\n        bytes32[] memory rawProofs = retrieve(_poll, \"serialiseProofs\", vType);\n\n        address[] memory stakers = splitToAddresses( bytes32ArrayToString(rawStakers));\n        address[] memory proofs = splitToAddresses( bytes32ArrayToString(rawProofs));\n        uint8 threshold = 3;\n\n        proofCounter memory pc;\n\n        for(uint i = 0; i < proofs.length; i++) {\n            pc.duplicateProofs = -1;\n            for(uint j = 0; i < stakers.length; i++) {\n                if (proofs[i] == stakers[j]) {\n                    // Only set senderIsPresent = true the first time that proofs[i] == stakers[j] == msg.sender\n                    if (proofs[i] == msg.sender) { pc.senderIsPresent = true; }\n                    // set duplicateProofs hopefully to 0, and remove staker from the array\n                    pc.duplicateProofs++;\n                    stakers[j] = address(0);\n                }\n            }\n            if (pc.duplicateProofs>0) { pc.fakeProofs += uint8(pc.duplicateProofs); }\n        }\n\n        // // deal with 0 < threshold < 1\n        // if(percentageThreshold>0) {\n        //   threshold = percentageThreshold*stakers.length;\n        // }\n        if (pc.senderIsPresent && proofs.length-pc.fakeProofs >= threshold) {\n            return true;\n        }\n    }\n\n    function serialiseStakers(string calldata _poll, uint8 validationType) external pure returns (address[] memory) {\n        // return something which will make it obvious that you have accidentally delegated this context!\n        address[] memory ret = new address[](4);\n        (ret[0], ret[1], ret[2], ret[3]) = (address(5), address(0), address(5), address(0));\n        return ret;\n    }\n\n    function serialiseProofs(string calldata _poll, uint8 validationType) external pure returns (address[] memory) {\n        // return something which will make it obvious that you have accidentally delegated this context!\n        address[] memory ret = new address[](4);\n        (ret[0], ret[1], ret[2], ret[3]) = (address(0), address(5), address(0), address(5));\n        return ret;\n    }\n\n\n    function proofType() public pure returns (uint8) {\n      return vType;\n    }\n\n    function encodeFunctionName (string memory name) internal pure returns (bytes4) {\n        // TODO: cache for readability!\n        // if (\"serialiseStakers\")\n        //     return\n        // if (\"serialiseStakers\")\n        //     return\n        return bytes4(keccak256(bytes(name)));\n    }\n\n    // split a serialised string of addresses (as received from main contract).\n    // NB - only works in this validator - other validators will use multiple types within serialised string\n    function splitToAddresses(string memory _concatenated) internal pure returns (address[] memory result) {\n        strings.slice memory delim = \",\".toSlice();\n        strings.slice memory source = _concatenated.toSlice();\n        address[] memory parts = new address[](source.count(delim));\n\n        for(uint i = 0; i < parts.length; i++) {\n           parts[i] = source.split(delim).toString().toAddress();\n        }\n        return parts;\n\n    }\n\n    function toString(address account) public pure returns(string memory) {\n        return toString(abi.encodePacked(account), 5);\n    }\n\n    function toString(uint256 value) public pure returns(string memory) {\n        return toString(abi.encodePacked(value), 0);\n    }\n\n    function toString(bytes32 value) public pure returns(string memory) {\n        return toString(abi.encodePacked(value), 0);\n    }\n\n    function toString(bytes memory data, uint16 len) public pure returns(string memory) {\n        bytes memory alphabet = \"0123456789abcdef\";\n        uint16 strLen = 20;  // It's 20. The length is just fucking 20.  uint16(data.length);\n        // Pretty simple if statement - why won't it work ?\n        // if (len>0) {\n        //     strLen = len;\n        // }\n\n\n        bytes memory str = new bytes(2 + strLen * 2);\n        str[0] = '0';\n        str[1] = 'x';\n        for (uint i = 0; i < strLen; i++) {\n            str[2+i*2] = alphabet[uint(uint8(data[i] >> 4))];\n            str[3+i*2] = alphabet[uint(uint8(data[i] & 0x0f))];\n        }\n        return string(str);\n    }\n\n\n    function bytes32ToBytes(bytes32 _bytes32) public pure returns (bytes memory){\n        // string memory str = string(_bytes32);\n        // TypeError: Explicit type conversion not allowed from \"bytes32\" to \"string storage pointer\"\n        bytes memory bytesArray = new bytes(32);\n        for (uint256 i; i < 32; i++) {\n            bytesArray[i] = _bytes32[i];\n        }\n        return bytesArray;\n    }\n\n    // function bytesToBytes32(bytes b, uint offset) private pure returns (bytes32) {\n    //     bytes32 out;\n\n    //     for (uint i = 0; i < 32; i++) {\n    //         out |= bytes32(b[offset + i] & 0xFF) >> (i * 8);\n    //     }~/randomCode/truffletings/proxyBox\n    //     return out;\n    // }\n\n\n    function bytesToBytes32(bytes memory b) public pure returns (bytes32 bts) {\n        bytes32 i;\n        //NB size etc= 32b = 0x20b\n        assembly { i := mload(add(b, 0x20)) }\n        bts = i;\n    }\n\n    function bytes32ToString(bytes32 _bytes32) public pure returns (string memory ){\n        bytes memory bytesArray = bytes32ToBytes(_bytes32);\n        return string(bytesArray);\n    }\n\n    function bytes32ArrayToString (bytes32[] memory data) public pure returns (string memory ) {\n        bytes memory bytesString = new bytes(data.length * 32);\n        uint urlLength;\n        uint i=0;\n        for (i=0; i<data.length; i++) {\n            for (uint j=0; j<32; j++) {\n                byte char = byte(bytes32(uint(data[i]) * 2 ** (8 * j)));\n                if (char != 0) {\n                    bytesString[urlLength] = char;\n                    urlLength += 1;\n                }\n            }\n        }\n        bytes memory bytesStringTrimmed = new bytes(urlLength);\n        for (i=0; i<urlLength; i++) {\n            bytesStringTrimmed[i] = bytesString[i];\n        }\n        return string(bytesStringTrimmed);\n    }\n\n    // TODO !!!\n    // function bytes32ToUint (bytes32 data) returns (uint) {\n    //     return 2;\n    // }\n\n    function bytesSplit32(bytes  memory data) public pure returns (bytes32, bytes memory ) {\n        uint8 splitAt = 32;                             // all (if variable split, pass in splitAt)\n        uint256 taillength = 0;\n        if (data.length > splitAt)\n            taillength = data.length-splitAt;\n        bytes32 temp;\n        // bytes32 head;                                   // 32b split\n        bytes memory head = new bytes(splitAt);         // variable length split\n        bytes memory tail = new bytes(taillength);\n        for(uint i=0;i<=data.length-1;i++){\n            if (i<splitAt)\n                head[i] = bytes(data)[i] ;\n            else\n                tail[i-splitAt] = bytes(data)[i] ;\n        }\n        return (bytesToBytes32(head), tail);\n    }\n\n    // calls fallback function of pollAddress, passing 4 byte encoded function name to remote contract to select method.\n    // NB future better: just get the ABI of the finished Poll conmtract, and use that!\n    // NB in sol 0.6 + fallback cannot return anything\n    // NB future optimisation : we are not using the functionality of string here, since string must have come from a bytes32\n    event CrossContractValidateBegin();\n    event CrossContractValidateEnd();\n    function crossContractCall (bytes4 fnNameHash, string  memory poll, uint256 valid, uint8 vt) public returns (bytes32[] memory) {\n    address pollContract = pollAddress;\n\n        emit CrossContractValidateBegin();\n        assembly {\n            let ptr := mload(0x40)\n            calldatacopy(ptr, 0, calldatasize)\n            let result := delegatecall(gas, pollContract, ptr, calldatasize, 0, 0)\n            let size := returndatasize\n            returndatacopy(ptr, 0, size)\n            switch result\n            case 0 { revert(ptr, size) }\n            default { return(ptr, size) }\n        }\n        emit CrossContractValidateEnd();\n    }\n\n}\n",
  "sourcePath": "/home/teide/randomCode/truffletings/proxyBox/contracts/MutualAgreement.sol",
  "compiler": {
    "name": "solc",
    "version": "0.5.16+commit.9c3226ce.Emscripten.clang"
  },
  "schemaVersion": "3.2.0",
  "updatedAt": "2020-06-04T21:35:02.566Z",
  "networkType": "ethereum",
  "devdoc": {
    "methods": {}
  },
  "userdoc": {
    "methods": {}
  }
}