{
  "contractName": "Poll",
  "abi": [
    {
      "inputs": [],
      "payable": false,
      "stateMutability": "nonpayable",
      "type": "constructor"
    },
    {
      "anonymous": false,
      "inputs": [],
      "name": "CrossContractValidateBegin",
      "type": "event"
    },
    {
      "anonymous": false,
      "inputs": [],
      "name": "CrossContractValidateEnd",
      "type": "event"
    },
    {
      "anonymous": false,
      "inputs": [
        {
          "indexed": false,
          "internalType": "bool",
          "name": "",
          "type": "bool"
        }
      ],
      "name": "CrossContractValidateReturned",
      "type": "event"
    },
    {
      "anonymous": false,
      "inputs": [],
      "name": "ValidatorSet",
      "type": "event"
    },
    {
      "payable": true,
      "stateMutability": "payable",
      "type": "fallback"
    },
    {
      "constant": true,
      "inputs": [
        {
          "internalType": "uint8",
          "name": "",
          "type": "uint8"
        }
      ],
      "name": "validatorNames",
      "outputs": [
        {
          "internalType": "string",
          "name": "",
          "type": "string"
        }
      ],
      "payable": false,
      "stateMutability": "view",
      "type": "function"
    },
    {
      "constant": true,
      "inputs": [
        {
          "internalType": "uint8",
          "name": "",
          "type": "uint8"
        }
      ],
      "name": "validators",
      "outputs": [
        {
          "internalType": "address",
          "name": "",
          "type": "address"
        }
      ],
      "payable": false,
      "stateMutability": "view",
      "type": "function"
    },
    {
      "constant": true,
      "inputs": [],
      "name": "ownAddress",
      "outputs": [
        {
          "internalType": "address",
          "name": "",
          "type": "address"
        }
      ],
      "payable": false,
      "stateMutability": "view",
      "type": "function"
    },
    {
      "constant": false,
      "inputs": [
        {
          "internalType": "address",
          "name": "newAddy",
          "type": "address"
        }
      ],
      "name": "setValidator1",
      "outputs": [
        {
          "internalType": "bool",
          "name": "",
          "type": "bool"
        }
      ],
      "payable": false,
      "stateMutability": "nonpayable",
      "type": "function"
    },
    {
      "constant": true,
      "inputs": [],
      "name": "getValidator1",
      "outputs": [
        {
          "internalType": "address",
          "name": "",
          "type": "address"
        }
      ],
      "payable": false,
      "stateMutability": "view",
      "type": "function"
    },
    {
      "constant": false,
      "inputs": [
        {
          "internalType": "string",
          "name": "newName",
          "type": "string"
        }
      ],
      "name": "setValidator1Name",
      "outputs": [
        {
          "internalType": "bool",
          "name": "",
          "type": "bool"
        }
      ],
      "payable": false,
      "stateMutability": "nonpayable",
      "type": "function"
    },
    {
      "constant": true,
      "inputs": [],
      "name": "getValidator1Name",
      "outputs": [
        {
          "internalType": "string",
          "name": "",
          "type": "string"
        }
      ],
      "payable": false,
      "stateMutability": "view",
      "type": "function"
    },
    {
      "constant": true,
      "inputs": [
        {
          "internalType": "bytes32",
          "name": "poll32",
          "type": "bytes32"
        },
        {
          "internalType": "string",
          "name": "fnName",
          "type": "string"
        },
        {
          "internalType": "uint8",
          "name": "vt",
          "type": "uint8"
        }
      ],
      "name": "dumpDataCache",
      "outputs": [
        {
          "internalType": "string",
          "name": "",
          "type": "string"
        },
        {
          "internalType": "uint256",
          "name": "",
          "type": "uint256"
        },
        {
          "internalType": "bytes32[]",
          "name": "",
          "type": "bytes32[]"
        }
      ],
      "payable": false,
      "stateMutability": "view",
      "type": "function"
    },
    {
      "constant": true,
      "inputs": [
        {
          "internalType": "string",
          "name": "source",
          "type": "string"
        }
      ],
      "name": "string32ToBytes32",
      "outputs": [
        {
          "internalType": "bytes32",
          "name": "result",
          "type": "bytes32"
        }
      ],
      "payable": false,
      "stateMutability": "pure",
      "type": "function"
    },
    {
      "constant": true,
      "inputs": [
        {
          "internalType": "bytes",
          "name": "b",
          "type": "bytes"
        }
      ],
      "name": "bytesToBytes4",
      "outputs": [
        {
          "internalType": "bytes4",
          "name": "bts",
          "type": "bytes4"
        }
      ],
      "payable": false,
      "stateMutability": "pure",
      "type": "function"
    },
    {
      "constant": true,
      "inputs": [
        {
          "internalType": "bytes",
          "name": "b",
          "type": "bytes"
        }
      ],
      "name": "bytesToBytes32",
      "outputs": [
        {
          "internalType": "bytes32",
          "name": "bts",
          "type": "bytes32"
        }
      ],
      "payable": false,
      "stateMutability": "pure",
      "type": "function"
    },
    {
      "constant": true,
      "inputs": [
        {
          "internalType": "bytes32",
          "name": "_bytes32",
          "type": "bytes32"
        }
      ],
      "name": "bytes32ToBytes",
      "outputs": [
        {
          "internalType": "bytes",
          "name": "",
          "type": "bytes"
        }
      ],
      "payable": false,
      "stateMutability": "pure",
      "type": "function"
    },
    {
      "constant": true,
      "inputs": [
        {
          "internalType": "bytes32",
          "name": "_bytes32",
          "type": "bytes32"
        }
      ],
      "name": "bytes32ToString",
      "outputs": [
        {
          "internalType": "string",
          "name": "",
          "type": "string"
        }
      ],
      "payable": false,
      "stateMutability": "pure",
      "type": "function"
    },
    {
      "constant": true,
      "inputs": [
        {
          "internalType": "bytes",
          "name": "data",
          "type": "bytes"
        }
      ],
      "name": "bytesSplit4",
      "outputs": [
        {
          "internalType": "bytes4",
          "name": "",
          "type": "bytes4"
        },
        {
          "internalType": "bytes",
          "name": "",
          "type": "bytes"
        }
      ],
      "payable": false,
      "stateMutability": "pure",
      "type": "function"
    },
    {
      "constant": true,
      "inputs": [
        {
          "internalType": "bytes",
          "name": "data",
          "type": "bytes"
        }
      ],
      "name": "bytesSplit32",
      "outputs": [
        {
          "internalType": "bytes32",
          "name": "",
          "type": "bytes32"
        },
        {
          "internalType": "bytes",
          "name": "",
          "type": "bytes"
        }
      ],
      "payable": false,
      "stateMutability": "pure",
      "type": "function"
    },
    {
      "constant": true,
      "inputs": [
        {
          "internalType": "string",
          "name": "name",
          "type": "string"
        }
      ],
      "name": "encodeFunctionName",
      "outputs": [
        {
          "internalType": "bytes4",
          "name": "",
          "type": "bytes4"
        }
      ],
      "payable": false,
      "stateMutability": "pure",
      "type": "function"
    },
    {
      "constant": false,
      "inputs": [
        {
          "internalType": "bytes32",
          "name": "hash",
          "type": "bytes32"
        },
        {
          "internalType": "bytes32",
          "name": "data",
          "type": "bytes32"
        },
        {
          "internalType": "uint8",
          "name": "vType",
          "type": "uint8"
        }
      ],
      "name": "storeResult",
      "outputs": [],
      "payable": false,
      "stateMutability": "nonpayable",
      "type": "function"
    },
    {
      "constant": true,
      "inputs": [
        {
          "internalType": "string",
          "name": "_poll",
          "type": "string"
        },
        {
          "internalType": "uint8",
          "name": "validationType",
          "type": "uint8"
        }
      ],
      "name": "serialiseStakers",
      "outputs": [
        {
          "internalType": "string",
          "name": "",
          "type": "string"
        }
      ],
      "payable": false,
      "stateMutability": "view",
      "type": "function"
    },
    {
      "constant": true,
      "inputs": [
        {
          "internalType": "string",
          "name": "_poll",
          "type": "string"
        },
        {
          "internalType": "uint8",
          "name": "validationType",
          "type": "uint8"
        }
      ],
      "name": "serialiseProofs",
      "outputs": [
        {
          "internalType": "string",
          "name": "",
          "type": "string"
        }
      ],
      "payable": false,
      "stateMutability": "view",
      "type": "function"
    },
    {
      "constant": false,
      "inputs": [
        {
          "internalType": "address",
          "name": "_pollContract",
          "type": "address"
        },
        {
          "internalType": "string",
          "name": "_poll",
          "type": "string"
        },
        {
          "internalType": "bytes32",
          "name": "_reveal",
          "type": "bytes32"
        }
      ],
      "name": "validate",
      "outputs": [
        {
          "internalType": "bool",
          "name": "success",
          "type": "bool"
        }
      ],
      "payable": true,
      "stateMutability": "payable",
      "type": "function"
    },
    {
      "constant": false,
      "inputs": [
        {
          "internalType": "address",
          "name": "_validator",
          "type": "address"
        },
        {
          "internalType": "bytes4",
          "name": "fnNameHash",
          "type": "bytes4"
        },
        {
          "internalType": "string",
          "name": "poll",
          "type": "string"
        },
        {
          "internalType": "uint8",
          "name": "vt",
          "type": "uint8"
        },
        {
          "internalType": "bytes32[]",
          "name": "reveal",
          "type": "bytes32[]"
        }
      ],
      "name": "crossContractValidateCall",
      "outputs": [
        {
          "internalType": "bytes32[]",
          "name": "",
          "type": "bytes32[]"
        }
      ],
      "payable": false,
      "stateMutability": "nonpayable",
      "type": "function"
    },
    {
      "constant": false,
      "inputs": [
        {
          "internalType": "string",
          "name": "_poll",
          "type": "string"
        },
        {
          "internalType": "string",
          "name": "data",
          "type": "string"
        }
      ],
      "name": "callValidator_MututalAgreement",
      "outputs": [
        {
          "internalType": "bool",
          "name": "",
          "type": "bool"
        }
      ],
      "payable": false,
      "stateMutability": "nonpayable",
      "type": "function"
    }
  ],
  "bytecode": "0x608060405260016002553480156200001657600080fd5b5073a145493cc19b0bc6c5a2ca86e9ba38bb435e3f5b60036000600160ff16815260200190815260200160002060006101000a81548173ffffffffffffffffffffffffffffffffffffffff021916908373ffffffffffffffffffffffffffffffffffffffff1602179055506040518060400160405280601081526020017f4d757475616c2041677265656d656e740000000000000000000000000000000081525060046000600160ff1681526020019081526020016000209080519060200190620000e39291906200012b565b5030600560006101000a81548173ffffffffffffffffffffffffffffffffffffffff021916908373ffffffffffffffffffffffffffffffffffffffff160217905550620001da565b828054600181600116156101000203166002900490600052602060002090601f016020900481019282601f106200016e57805160ff19168380011785556200019f565b828001600101855582156200019f579182015b828111156200019e57825182559160200191906001019062000181565b5b509050620001ae9190620001b2565b5090565b620001d791905b80821115620001d3576000816000905550600101620001b9565b5090565b90565b612d2780620001ea6000396000f3fe6080604052600436106101355760003560e01c80638a9392c0116100ab578063965457ba1161006f578063965457ba146112d1578063a0b345bc1461134f578063bfe370d9146113df578063c1c09847146114bb578063c52bde73146116c2578063e381047d1461171957610135565b80638a9392c014610dd85780638d894b2814610ed55780638ee879c71461104c5780639201de551461110357806394c6f3b1146111b757610135565b8063456d9ec8116100fd578063456d9ec8146109335780634c0999c7146109855780635602493914610a3957806359386a1714610b87578063701456bc14610c6757806383c7f14c14610cbe57610135565b806313311a1c146103b157806326a9cdf7146104ff578063276d455f1461064757806327ee5210146106b057806329eece6f14610857575b60606000368080601f016020809104026020016040519081016040528093929190818152602001838380828437600081840152601f19601f8201169050808301925050505050505090506000606060008060606101918661189f565b80955081945050506101a284611a2a565b80955081965050506101b384611a2a565b80925081935050506101f96040518060400160405280601081526020017f73657269616c6973655374616b65727300000000000000000000000000000000815250611bb5565b7bffffffffffffffffffffffffffffffffffffffffffffffffffffffff1916837bffffffffffffffffffffffffffffffffffffffffffffffffffffffff191614156102635761026061025b61024d87611bc6565b61025684611bdd565b611c6b565b611c93565b91505b6102a16040518060400160405280600f81526020017f73657269616c69736550726f6f66730000000000000000000000000000000000815250611bb5565b7bffffffffffffffffffffffffffffffffffffffffffffffffffffffff1916837bffffffffffffffffffffffffffffffffffffffffffffffffffffffff1916141561030b576103086103036102f587611bc6565b6102fe84611bdd565b611ca1565b611c93565b91505b6103a3858461031984611bdd565b60405160200180848152602001837bffffffffffffffffffffffffffffffffffffffffffffffffffffffff19167bffffffffffffffffffffffffffffffffffffffffffffffffffffffff191681526004018260ff1660ff1660f81b81526001019350505050604051602081830303815290604052805190602001208361039e84611bdd565b611cc6565b610100604051605881538181f35b3480156103bd57600080fd5b50610484600480360360408110156103d457600080fd5b81019080803590602001906401000000008111156103f157600080fd5b82018360208201111561040357600080fd5b8035906020019184600183028401116401000000008311171561042557600080fd5b91908080601f016020809104026020016040519081016040528093929190818152602001838380828437600081840152601f19601f820116905080830192505050505050509192919290803560ff169060200190929190505050611ca1565b6040518080602001828103825283818151815260200191508051906020019080838360005b838110156104c45780820151818401526020810190506104a9565b50505050905090810190601f1680156104f15780820380516001836020036101000a031916815260200191505b509250505060405180910390f35b34801561050b57600080fd5b506105c56004803603602081101561052257600080fd5b810190808035906020019064010000000081111561053f57600080fd5b82018360208201111561055157600080fd5b8035906020019184600183028401116401000000008311171561057357600080fd5b91908080601f016020809104026020016040519081016040528093929190818152602001838380828437600081840152601f19601f820116905080830192505050505050509192919290505050611a2a565b6040518083815260200180602001828103825283818151815260200191508051906020019080838360005b8381101561060b5780820151818401526020810190506105f0565b50505050905090810190601f1680156106385780820380516001836020036101000a031916815260200191505b50935050505060405180910390f35b34801561065357600080fd5b506106966004803603602081101561066a57600080fd5b81019080803573ffffffffffffffffffffffffffffffffffffffff169060200190929190505050611d35565b604051808215151515815260200191505060405180910390f35b3480156106bc57600080fd5b5061078d600480360360608110156106d357600080fd5b8101908080359060200190929190803590602001906401000000008111156106fa57600080fd5b82018360208201111561070c57600080fd5b8035906020019184600183028401116401000000008311171561072e57600080fd5b91908080601f016020809104026020016040519081016040528093929190818152602001838380828437600081840152601f19601f820116905080830192505050505050509192919290803560ff169060200190929190505050611dc2565b604051808060200184815260200180602001838103835286818151815260200191508051906020019080838360005b838110156107d75780820151818401526020810190506107bc565b50505050905090810190601f1680156108045780820380516001836020036101000a031916815260200191505b50838103825284818151815260200191508051906020019060200280838360005b83811015610840578082015181840152602081019050610825565b505050509050019550505050505060405180910390f35b34801561086357600080fd5b5061091d6004803603602081101561087a57600080fd5b810190808035906020019064010000000081111561089757600080fd5b8201836020820111156108a957600080fd5b803590602001918460018302840111640100000000831117156108cb57600080fd5b91908080601f016020809104026020016040519081016040528093929190818152602001838380828437600081840152601f19601f820116905080830192505050505050509192919290505050611c93565b6040518082815260200191505060405180910390f35b34801561093f57600080fd5b506109836004803603606081101561095657600080fd5b810190808035906020019092919080359060200190929190803560ff169060200190929190505050611cc6565b005b34801561099157600080fd5b506109be600480360360208110156109a857600080fd5b8101908080359060200190929190505050611f01565b6040518080602001828103825283818151815260200191508051906020019080838360005b838110156109fe5780820151818401526020810190506109e3565b50505050905090810190601f168015610a2b5780820380516001836020036101000a031916815260200191505b509250505060405180910390f35b348015610a4557600080fd5b50610b0c60048036036040811015610a5c57600080fd5b8101908080359060200190640100000000811115610a7957600080fd5b820183602082011115610a8b57600080fd5b80359060200191846001830284011164010000000083111715610aad57600080fd5b91908080601f016020809104026020016040519081016040528093929190818152602001838380828437600081840152601f19601f820116905080830192505050505050509192919290803560ff169060200190929190505050611c6b565b6040518080602001828103825283818151815260200191508051906020019080838360005b83811015610b4c578082015181840152602081019050610b31565b50505050905090810190601f168015610b795780820380516001836020036101000a031916815260200191505b509250505060405180910390f35b348015610b9357600080fd5b50610c4d60048036036020811015610baa57600080fd5b8101908080359060200190640100000000811115610bc757600080fd5b820183602082011115610bd957600080fd5b80359060200191846001830284011164010000000083111715610bfb57600080fd5b91908080601f016020809104026020016040519081016040528093929190818152602001838380828437600081840152601f19601f820116905080830192505050505050509192919290505050611fa9565b604051808215151515815260200191505060405180910390f35b348015610c7357600080fd5b50610c7c61200c565b604051808273ffffffffffffffffffffffffffffffffffffffff1673ffffffffffffffffffffffffffffffffffffffff16815260200191505060405180910390f35b348015610cca57600080fd5b50610d8460048036036020811015610ce157600080fd5b8101908080359060200190640100000000811115610cfe57600080fd5b820183602082011115610d1057600080fd5b80359060200191846001830284011164010000000083111715610d3257600080fd5b91908080601f016020809104026020016040519081016040528093929190818152602001838380828437600081840152601f19601f820116905080830192505050505050509192919290505050612036565b60405180827bffffffffffffffffffffffffffffffffffffffffffffffffffffffff19167bffffffffffffffffffffffffffffffffffffffffffffffffffffffff1916815260200191505060405180910390f35b610ebb60048036036060811015610dee57600080fd5b81019080803573ffffffffffffffffffffffffffffffffffffffff16906020019092919080359060200190640100000000811115610e2b57600080fd5b820183602082011115610e3d57600080fd5b80359060200191846001830284011164010000000083111715610e5f57600080fd5b91908080601f016020809104026020016040519081016040528093929190818152602001838380828437600081840152601f19601f82011690508083019250505050505050919291929080359060200190929190505050612053565b604051808215151515815260200191505060405180910390f35b348015610ee157600080fd5b5061103260048036036040811015610ef857600080fd5b8101908080359060200190640100000000811115610f1557600080fd5b820183602082011115610f2757600080fd5b80359060200191846001830284011164010000000083111715610f4957600080fd5b91908080601f016020809104026020016040519081016040528093929190818152602001838380828437600081840152601f19601f82011690508083019250505050505050919291929080359060200190640100000000811115610fac57600080fd5b820183602082011115610fbe57600080fd5b80359060200191846001830284011164010000000083111715610fe057600080fd5b91908080601f016020809104026020016040519081016040528093929190818152602001838380828437600081840152601f19601f82011690508083019250505050505050919291929050505061205c565b604051808215151515815260200191505060405180910390f35b34801561105857600080fd5b506110886004803603602081101561106f57600080fd5b81019080803560ff16906020019092919050505061226b565b6040518080602001828103825283818151815260200191508051906020019080838360005b838110156110c85780820151818401526020810190506110ad565b50505050905090810190601f1680156110f55780820380516001836020036101000a031916815260200191505b509250505060405180910390f35b34801561110f57600080fd5b5061113c6004803603602081101561112657600080fd5b8101908080359060200190929190505050611bc6565b6040518080602001828103825283818151815260200191508051906020019080838360005b8381101561117c578082015181840152602081019050611161565b50505050905090810190601f1680156111a95780820380516001836020036101000a031916815260200191505b509250505060405180910390f35b3480156111c357600080fd5b5061127d600480360360208110156111da57600080fd5b81019080803590602001906401000000008111156111f757600080fd5b82018360208201111561120957600080fd5b8035906020019184600183028401116401000000008311171561122b57600080fd5b91908080601f016020809104026020016040519081016040528093929190818152602001838380828437600081840152601f19601f820116905080830192505050505050509192919290505050611bb5565b60405180827bffffffffffffffffffffffffffffffffffffffffffffffffffffffff19167bffffffffffffffffffffffffffffffffffffffffffffffffffffffff1916815260200191505060405180910390f35b3480156112dd57600080fd5b5061130d600480360360208110156112f457600080fd5b81019080803560ff16906020019092919050505061231b565b604051808273ffffffffffffffffffffffffffffffffffffffff1673ffffffffffffffffffffffffffffffffffffffff16815260200191505060405180910390f35b34801561135b57600080fd5b5061136461234e565b6040518080602001828103825283818151815260200191508051906020019080838360005b838110156113a4578082015181840152602081019050611389565b50505050905090810190601f1680156113d15780820380516001836020036101000a031916815260200191505b509250505060405180910390f35b3480156113eb57600080fd5b506114a56004803603602081101561140257600080fd5b810190808035906020019064010000000081111561141f57600080fd5b82018360208201111561143157600080fd5b8035906020019184600183028401116401000000008311171561145357600080fd5b91908080601f016020809104026020016040519081016040528093929190818152602001838380828437600081840152601f19601f820116905080830192505050505050509192919290505050612405565b6040518082815260200191505060405180910390f35b3480156114c757600080fd5b5061166b600480360360a08110156114de57600080fd5b81019080803573ffffffffffffffffffffffffffffffffffffffff16906020019092919080357bffffffffffffffffffffffffffffffffffffffffffffffffffffffff191690602001909291908035906020019064010000000081111561154457600080fd5b82018360208201111561155657600080fd5b8035906020019184600183028401116401000000008311171561157857600080fd5b91908080601f016020809104026020016040519081016040528093929190818152602001838380828437600081840152601f19601f820116905080830192505050505050509192919290803560ff169060200190929190803590602001906401000000008111156115e857600080fd5b8201836020820111156115fa57600080fd5b8035906020019184602083028401116401000000008311171561161c57600080fd5b919080806020026020016040519081016040528093929190818152602001838360200280828437600081840152601f19601f820116905080830192505050505050509192919290505050612418565b6040518080602001828103825283818151815260200191508051906020019060200280838360005b838110156116ae578082015181840152602081019050611693565b505050509050019250505060405180910390f35b3480156116ce57600080fd5b506116d7612478565b604051808273ffffffffffffffffffffffffffffffffffffffff1673ffffffffffffffffffffffffffffffffffffffff16815260200191505060405180910390f35b34801561172557600080fd5b506117df6004803603602081101561173c57600080fd5b810190808035906020019064010000000081111561175957600080fd5b82018360208201111561176b57600080fd5b8035906020019184600183028401116401000000008311171561178d57600080fd5b91908080601f016020809104026020016040519081016040528093929190818152602001838380828437600081840152601f19601f82011690508083019250505050505050919291929050505061189f565b60405180837bffffffffffffffffffffffffffffffffffffffffffffffffffffffff19167bffffffffffffffffffffffffffffffffffffffffffffffffffffffff1916815260200180602001828103825283818151815260200191508051906020019080838360005b83811015611863578082015181840152602081019050611848565b50505050905090810190601f1680156118905780820380516001836020036101000a031916815260200191505b50935050505060405180910390f35b6000606060006004905060008090508160ff16855111156118c4578160ff1685510390505b600060608360ff166040519080825280601f01601f1916602001820160405280156118fe5781602001600182028038833980820191505090505b5090506060836040519080825280601f01601f1916602001820160405280156119365781602001600182028038833980820191505090505b50905060008090505b60018951038111611a11578560ff168110156119ac5788818151811061196157fe5b602001015160f81c60f81b83828151811061197857fe5b60200101907effffffffffffffffffffffffffffffffffffffffffffffffffffffffffffff1916908160001a905350611a04565b8881815181106119b857fe5b602001015160f81c60f81b828760ff168303815181106119d457fe5b60200101907effffffffffffffffffffffffffffffffffffffffffffffffffffffffffffff1916908160001a9053505b808060010191505061193f565b50611a1b82612036565b81965096505050505050915091565b6000606060006020905060008090508160ff1685511115611a4f578160ff1685510390505b600060608360ff166040519080825280601f01601f191660200182016040528015611a895781602001600182028038833980820191505090505b5090506060836040519080825280601f01601f191660200182016040528015611ac15781602001600182028038833980820191505090505b50905060008090505b60018951038111611b9c578560ff16811015611b3757888181518110611aec57fe5b602001015160f81c60f81b838281518110611b0357fe5b60200101907effffffffffffffffffffffffffffffffffffffffffffffffffffffffffffff1916908160001a905350611b8f565b888181518110611b4357fe5b602001015160f81c60f81b828760ff16830381518110611b5f57fe5b60200101907effffffffffffffffffffffffffffffffffffffffffffffffffffffffffffff1916908160001a9053505b8080600101915050611aca565b50611ba682612405565b81965096505050505050915091565b600081805190602001209050919050565b606080611bd283611f01565b905080915050919050565b6000600182511015611c57576040517f08c379a00000000000000000000000000000000000000000000000000000000081526004018080602001828103825260128152602001807f52656164206f7574206f6620626f756e6473000000000000000000000000000081525060200191505060405180910390fd5b600080600184010151905080915050919050565b606080604051806060016040528060248152602001612ccf6024913990508091505092915050565b600060208201519050919050565b606080604051806060016040528060238152602001612cac6023913990505092915050565b60008160ff166127100161ffff16905060018260ff161415611d1f57611cf3611cee84611bc6565b6124b7565b6000808681526020019081526020016000209080519060200190611d18929190612b7a565b5061010490505b8060026000828254019250508190555050505050565b60008160036000600160ff16815260200190815260200160002060006101000a81548173ffffffffffffffffffffffffffffffffffffffff021916908373ffffffffffffffffffffffffffffffffffffffff1602179055507f65d50497db61f4c3986fb372a33c45f53c3767d03d42d7db37c58fe29740317b60405160405180910390a160019050919050565b606060006060600086611dd487611bb5565b8660405160200180848152602001837bffffffffffffffffffffffffffffffffffffffffffffffffffffffff19167bffffffffffffffffffffffffffffffffffffffffffffffffffffffff191681526004018260ff1660ff1660f81b815260010193505050506040516020818303038152906040528051906020012090506002546000808381526020019081526020016000206040518060400160405280600d81526020017f506f6c6c20636f6e746578743a00000000000000000000000000000000000000815250919080805480602002602001604051908101604052809291908181526020018280548015611eea57602002820191906000526020600020905b815481526020019060010190808311611ed6575b505050505090509350935093505093509350939050565b60608060206040519080825280601f01601f191660200182016040528015611f385781602001600182028038833980820191505090505b50905060005b6020811015611f9f57838160208110611f5357fe5b1a60f81b828281518110611f6357fe5b60200101907effffffffffffffffffffffffffffffffffffffffffffffffffffffffffffff1916908160001a9053508080600101915050611f3e565b5080915050919050565b60008160046000600160ff1681526020019081526020016000209080519060200190611fd6929190612bc7565b507f65d50497db61f4c3986fb372a33c45f53c3767d03d42d7db37c58fe29740317b60405160405180910390a160019050919050565b6000600560009054906101000a900473ffffffffffffffffffffffffffffffffffffffff16905090565b600080635050505060e01b90506020830151905080915050919050565b60009392505050565b60008060019050612153600460008360ff1660ff1681526020019081526020016000208054600181600116156101000203166002900480601f0160208091040260200160405190810160405280929190818152602001828054600181600116156101000203166002900480156121135780601f106120e857610100808354040283529160200191612113565b820191906000526020600020905b8154815290600101906020018083116120f657829003601f168201915b50505050506040518060400160405280601081526020017f4d757475616c2041677265656d656e740000000000000000000000000000000081525061253a565b61215957fe5b60606121a2600360008460ff1660ff16815260200190815260200160002060009054906101000a900473ffffffffffffffffffffffffffffffffffffffff16866000801b612053565b50612226600360008460ff1660ff16815260200190815260200160002060009054906101000a900473ffffffffffffffffffffffffffffffffffffffff1661221e6040518060400160405280600881526020017f76616c6964617465000000000000000000000000000000000000000000000000815250611bb5565b878585612418565b507fd65038c0be209d4ae257f7e73a69b8b787796717cd2ce67d00d7e02c9de1020e6000604051808215151515815260200191505060405180910390a1505092915050565b60046020528060005260406000206000915090508054600181600116156101000203166002900480601f0160208091040260200160405190810160405280929190818152602001828054600181600116156101000203166002900480156123135780601f106122e857610100808354040283529160200191612313565b820191906000526020600020905b8154815290600101906020018083116122f657829003601f168201915b505050505081565b60036020528060005260406000206000915054906101000a900473ffffffffffffffffffffffffffffffffffffffff1681565b606060046000600160ff1681526020019081526020016000208054600181600116156101000203166002900480601f0160208091040260200160405190810160405280929190818152602001828054600181600116156101000203166002900480156123fb5780601f106123d0576101008083540402835291602001916123fb565b820191906000526020600020905b8154815290600101906020018083116123de57829003601f168201915b5050505050905090565b6000806020830151905080915050919050565b606060008690506000602090507f1ff50e4650f7f1e5b26a5f5e921b803deee4a95a1b6ef46e05992b3bc1dcdb8c60405160405180910390a160405136600082376000803683865af43d806000843e8160008114612474578184f35b8184fd5b600060036000600160ff16815260200190815260200160002060009054906101000a900473ffffffffffffffffffffffffffffffffffffffff16905090565b6060806124cb6124c684612607565b612635565b90506000815190505b6000818060019003925060ff16111561253057818160ff16815181106124f657fe5b602002602001015160601b6bffffffffffffffffffffffff1916838260ff168151811061251f57fe5b6020026020010181815250506124d4565b8292505050919050565b600060608390506060839050805182511461255a57600092505050612601565b60008090505b82518110156125f95781818151811061257557fe5b602001015160f81c60f81b7effffffffffffffffffffffffffffffffffffffffffffffffffffffffffffff19168382815181106125ae57fe5b602001015160f81c60f81b7effffffffffffffffffffffffffffffffffffffffffffffffffffffffffffff1916146125ec5760009350505050612601565b8080600101915050612560565b506001925050505b92915050565b61260f612c47565b600060208301905060405180604001604052808451815260200182815250915050919050565b606061263f612c47565b61267d6040518060400160405280600181526020017f2c00000000000000000000000000000000000000000000000000000000000000815250612607565b90506060612694828561275590919063ffffffff16565b6040519080825280602002602001820160405280156126c25781602001602082028038833980820191505090505b50905060008090505b815181101561274a576126f76126f26126ed85886127ca90919063ffffffff16565b6127e4565b612846565b82828151811061270357fe5b602002602001019073ffffffffffffffffffffffffffffffffffffffff16908173ffffffffffffffffffffffffffffffffffffffff168152505080806001019150506126cb565b508092505050919050565b600080826000015161277985600001518660200151866000015187602001516129b8565b0190505b836000015184602001510181116127c357818060010192505082600001516127bb8560200151830386600001510383866000015187602001516129b8565b01905061277d565b5092915050565b6127d2612c47565b6127dd838383612a93565b5092915050565b60608082600001516040519080825280601f01601f19166020018201604052801561281e5781602001600182028038833980820191505090505b509050600060208201905061283c8185602001518660000151612b31565b8192505050919050565b6000606082905060008090506000806000600290505b602a8110156129ab576101008402935084818151811061287857fe5b602001015160f81c60f81b60f81c925084600182018151811061289757fe5b602001015160f81c60f81b60f81c915060618360ff16101580156128bf575060668360ff1611155b156128cf5760578303925061291d565b60308360ff16101580156128e7575060398360ff1611155b156128f75760308303925061291c565b60418360ff161015801561290f575060468360ff1611155b1561291b576037830392505b5b5b60618260ff1610158015612935575060668260ff1611155b1561294557605782039150612993565b60308260ff161015801561295d575060398260ff1611155b1561296d57603082039150612992565b60418260ff1610158015612985575060468260ff1611155b15612991576037820391505b5b5b81601084020160ff168401935060028101905061285c565b5082945050505050919050565b6000808490506000868511612a835760208511612a3d57600060018660200360080260020a031960001b905060008186511690506000878a8a0103905060008386511690505b828114612a2f57818610612a1c578a8a019650505050505050612a8b565b85806001019650508386511690506129fe565b859650505050505050612a8b565b60008585209050600091505b8588038211612a81576000868420905080821415612a6d5783945050505050612a8b565b600184019350508180600101925050612a49565b505b868601925050505b949350505050565b612a9b612c47565b6000612ab985600001518660200151866000015187602001516129b8565b90508460200151836020018181525050846020015181038360000181815250508460000151856020015101811415612afb576000856000018181525050612b26565b8360000151836000015101856000018181510391508181525050836000015181018560200181815250505b829150509392505050565b5b60208110612b555781518352602083019250602082019150602081039050612b32565b60006001826020036101000a0390508019835116818551168181178652505050505050565b828054828255906000526020600020908101928215612bb6579160200282015b82811115612bb5578251825591602001919060010190612b9a565b5b509050612bc39190612c61565b5090565b828054600181600116156101000203166002900490600052602060002090601f016020900481019282601f10612c0857805160ff1916838001178555612c36565b82800160010185558215612c36579182015b82811115612c35578251825591602001919060010190612c1a565b5b509050612c439190612c86565b5090565b604051806040016040528060008152602001600081525090565b612c8391905b80821115612c7f576000816000905550600101612c67565b5090565b90565b612ca891905b80821115612ca4576000816000905550600101612c8c565b5090565b9056fe526573756c7421202d2066726f6d20706f6c6c2e73657269616c69736550726f6f6673526573756c7421202d2066726f6d20706f6c6c2e73657269616c6973655374616b657273a265627a7a7231582097458a0d800c931e999798ee2fb69913d26299524bbfe6039b1aafe48a1c3cdb64736f6c63430005100032",
  "source": "pragma solidity ^0.5.0;\n\nimport \"./strings.sol\";\n// import \"github.com/GNSPS/solidity-bytes-utils/contracts/BytesLib.sol\";   // requires sol 0.5+\nimport \"./stringCasting.sol\";\n\ncontract Poll {\n    // dataCache must occupy the same slot as in Poll contract, ie first slot, slot 0.\n    mapping (bytes32 => bytes32[]) dataCache;\n    // resultsCache must occupy the same slot as in Poll contract, ie second slot, slot 1.\n    mapping (bytes32 => bool) resultsCache;\n    uint256 notes = 1;\n\n    using strings for *;\n    using stringcast for string;\n\n\n\n    mapping(uint8 => address) public validators;\n    mapping(uint8 => string) public validatorNames;\n    address selfAddy ;\n\n    constructor () public /* is PollCommunity */ {\n        validators[1] = address(0xA145493CC19b0BC6C5a2cA86e9BA38BB435E3F5b);\n        validatorNames[1] = \"Mutual Agreement\";\n        selfAddy = address(this);\n    }\n\n    function() external payable {\n        // NB sol 0.6+ better syntax for calldata arrays : https://solidity.readthedocs.io/en/v0.6.0/types.html#array-slices\n        bytes memory input = msg.data;\n\n        // TODO: This is V.0 accepting a string (really a bytes32) of EXACTLY 32 bytes, eg a doodle poll without the https:// ;)\n        bytes32 poll32;\n        bytes memory rest;\n        bytes4 fnNameHash;\n        bytes32 result;\n        bytes memory vType;\n\n        (fnNameHash, rest) = (bytesSplit4(input));\n        (poll32, rest) = (bytesSplit32(rest));\n        (result, vType) = (bytesSplit32(rest));\n\n        if (fnNameHash == encodeFunctionName(\"serialiseStakers\")) {\n            //NB wrapping these in bytes32 for testing, but keep as strings until you are ready to deserialise bytes32, cos they still good here!\n            result = string32ToBytes32( serialiseStakers(bytes32ToString(poll32), toUint8(vType)) );\n        }\n        if (fnNameHash == encodeFunctionName(\"serialiseProofs\")) {\n            //NB wrapping these in bytes32 for testing, but keep as strings until you are ready to deserialise bytes32, cos they still good here!\n            result = string32ToBytes32(serialiseProofs(bytes32ToString(poll32), toUint8(vType)) );\n        }\n        // Warning: This hack introduces possible griefing attack - better would be to force EVM to return the result of this lookup from fallback, not store and retreive it :/\n\n        storeResult(keccak256(abi.encodePacked(poll32, fnNameHash, toUint8(vType))), result, toUint8(vType));\n\n        assembly {\n            let size := 256\n            let ptr := mload(0x40)\n            mstore8(ptr, 88)\n            return(ptr, size)\n        }\n    }\n\n    function ownAddress () public view returns (address) {\n        return selfAddy;\n    }\n\n    event ValidatorSet();\n    function setValidator1 (address newAddy) public returns (bool) {\n        validators[1] = newAddy;\n        emit ValidatorSet();\n        return true;\n    }\n\n    function getValidator1 () public view returns (address) {\n        return validators[1];\n    }\n\n    function setValidator1Name (string memory newName) public returns (bool) {\n        validatorNames[1] = newName;\n        emit ValidatorSet();\n        return true;\n    }\n\n    function getValidator1Name () public view returns (string memory) {\n        return validatorNames[1];\n    }\n\n    // event RetrievedDataCache(string, uint256, bytes32[]);\n    function dumpDataCache (bytes32 poll32, string memory fnName, uint8 vt) public view returns (string memory, uint256, bytes32[] memory) {\n        bytes32 hash = keccak256(abi.encodePacked(poll32, encodeFunctionName(fnName), vt));\n        // emit RetrievedDataCache(\"Poll context:\", notes, dataCache[hash]);\n        return (\"Poll context:\", notes, dataCache[hash]);\n    }\n\n    function stringsEqual (string memory _a, string memory _b) internal pure returns (bool) {\n        bytes memory a = bytes(_a);\n        bytes memory b = bytes(_b);\n\n        if (a.length != b.length)\n            return false;\n\n        for (uint i = 0; i < a.length; i ++)\n            if (a[i] != b[i])\n                return false;\n\n        return true;\n    }\n\n    function string32ToBytes32(string memory source) public pure returns (bytes32 result) {\n        assembly {\n        result := mload(add(source, 32))\n        }\n    }\n\n    // split a serialised string of addresses (as received from main contract).\n    // NB - only works in mutual agreement validator - other validators will use multiple types within serialised string\n    function splitToAddresses(strings.slice memory concatenated) internal pure returns (address[] memory result) {\n        strings.slice memory delim = \",\".toSlice();\n        address[] memory parts = new address[](concatenated.count(delim));  // why doesn't this lose a member?\n\n        for(uint i = 0; i < parts.length; i++) {\n           parts[i] = concatenated.split(delim).toString().toAddress();\n        }\n        return parts;\n    }\n\n    // function stringToBytes32(string memory source) {\n    //     bytes32[] memory result;\n    //     strings.slice memory remainder = source.toSlice();\n    //     while (remainder.length >= 32) {\n\n    //     }\n\n    // }\n\n\n\n    function bytesToBytes4(bytes  memory b)  public pure returns (bytes4 bts) {\n        bytes4 i = 0x50505050;\n        assembly { i := mload(add(b, 0x20)) }\n        bts = i;\n    }\n\n    function bytesToBytes32(bytes  memory b)  public pure returns (bytes32 bts) {\n        bytes32 i;\n        //NB size etc= 32b = 0x20b\n        assembly { i := mload(add(b, 0x20)) }\n        bts = i;\n    }\n\n    function toUint8(bytes memory _bytes) internal pure returns (uint8) {\n        require(_bytes.length >= (1), \"Read out of bounds\");\n        uint8 tempUint;\n\n        assembly {\n            tempUint := mload(add(add(_bytes, 0x1), 0))\n        }\n\n        return tempUint;\n    }\n\n    function bytes32ToBytes(bytes32 _bytes32) public pure returns (bytes memory){\n        // string memory str = string(_bytes32);\n        // TypeError: Explicit type conversion not allowed from \"bytes32\" to \"string storage pointer\"\n        bytes memory bytesArray = new bytes(32);\n        for (uint256 i; i < 32; i++) {\n            bytesArray[i] = _bytes32[i];\n        }\n        return bytesArray;\n    }\n\n    function bytes32ToString(bytes32 _bytes32) public pure returns (string memory){\n        bytes memory bytesArray = bytes32ToBytes(_bytes32);\n        return string(bytesArray);\n    }\n\n    function bytesSplit4(bytes memory data) public pure returns (bytes4, bytes memory) {\n        uint8 splitAt = 4;                             // all (if variable split, pass in splitAt)\n        uint256 taillength = 0;\n        if (data.length > splitAt)\n            taillength = data.length-splitAt;\n        bytes4 temp;\n        // bytes4 head;                                   // 4b split\n        bytes memory head = new bytes(splitAt);         // variable length split\n        bytes memory tail = new bytes(taillength);\n        for(uint i=0;i<=data.length-1;i++){\n            if (i<splitAt)\n                head[i] = bytes(data)[i] ;\n            else\n                tail[i-splitAt] = bytes(data)[i] ;\n        }\n        return (bytesToBytes4(head), tail);\n    }\n\n    function bytesSplit32(bytes memory data) public pure returns (bytes32, bytes memory) {\n        uint8 splitAt = 32;                             // all (if variable split, pass in splitAt)\n        uint256 taillength = 0;\n        if (data.length > splitAt)\n            taillength = data.length-splitAt;\n        bytes32 temp;\n        // bytes32 head;                                   // 32b split\n        bytes memory head = new bytes(splitAt);         // variable length split\n        bytes memory tail = new bytes(taillength);\n        for(uint i=0;i<=data.length-1;i++){\n            if (i<splitAt)\n                head[i] = bytes(data)[i] ;\n            else\n                tail[i-splitAt] = bytes(data)[i] ;\n        }\n        return (bytesToBytes32(head), tail);\n    }\n\n\n    function encodeFunctionName (string memory name) public pure returns (bytes4) {\n        // TODO: cache for readability!\n        // if (\"serialiseStakers\")\n        //     return\n        // if (\"serialiseStakers\")\n        //     return\n        return bytes4(keccak256(bytes(name)));\n    }\n\n    // temporary functionality to repoint to simple example, eg splitToAddresses\n    function unpackData (string memory packed) internal returns (bytes32[] memory result) {\n        //NB relying on splitToAddresses doing string splitting here, as we rely on .length - available only on fixed size array.\n        address[] memory asAddresses = splitToAddresses(packed.toSlice()) ;\n        uint8 i = uint8(asAddresses.length) ;\n\n        while (i-- > 0) {\n            result[i] = bytes32(bytes20(asAddresses[i]));\n        }\n        return result;\n\n\n    }\n\n    function storeResult(bytes32 hash, bytes32 data, uint8 vType)  public {\n        uint256 notesToStore = 10000+vType;\n        if (vType == 1) {\n            dataCache[hash] = unpackData(bytes32ToString(data));\n            notesToStore=260;\n        }\n        notes += notesToStore;\n    }\n\n    function serialiseStakers(string memory _poll, uint8 validationType) public view returns (string memory) {\n        string memory result = \"Result! - from poll.serialiseStakers\";\n        return result;\n    }\n\n    function serialiseProofs(string memory _poll, uint8 validationType) public view returns (string memory) {\n        string memory result = \"Result! - from poll.serialiseProofs\";\n    }\n\n    function validate(address _pollContract, string memory _poll, bytes32 _reveal) public payable returns (bool success) {\n    }\n\n        // calls fallback function of contract at validatorAddress, passing 4 byte encoded function name to it to select method.\n    // NB in sol 0.6 + fallback cannot return anything\n    // NB future optimisation : we are not using the functionality of string here, since string must have come from a bytes32\n    event CrossContractValidateBegin();\n    event CrossContractValidateEnd();\n    function crossContractValidateCall (address _validator, bytes4 fnNameHash, string memory poll, uint8 vt, bytes32[] memory reveal)  public returns (bytes32[] memory) {\n        address validator = _validator;\n\n        uint8 offset = 32;\n        // NB 32b offset as space for validator contract address! (assumes no tight packing in calldata)\n        // TODO: this will need to be chucked at the other end, unless you want to do the subtraction in assembly :/\n\n        emit CrossContractValidateBegin();\n        assembly {\n            let ptr := mload(0x40)\n            calldatacopy(ptr, 0, calldatasize)\n            let result := delegatecall(gas, validator, ptr, calldatasize, 0, 0)\n            let size := returndatasize\n            returndatacopy(ptr, 0, size)\n            switch result\n            case 0 { revert(ptr, size) }\n            default { return(ptr, size) }\n        }\n        emit CrossContractValidateEnd();\n    }\n\n    event CrossContractValidateReturned(bool);\n    function callValidator_MututalAgreement(string memory _poll, string memory data) public returns (bool) {\n        uint8 vType = 1;\n        assert (stringsEqual(validatorNames[vType], \"Mutual Agreement\"));\n        bytes32[] memory empty;\n\n        // reveal parameter is unused in mutual agreement\n        validate(validators[vType], _poll, bytes32(0) );\n        crossContractValidateCall(validators[vType], encodeFunctionName(\"validate\") , _poll, vType, empty );\n        //TODO: get return value!\n\n        emit CrossContractValidateReturned(false);\n\n\n    }\n}\n",
  "sourcePath": "/home/teide/randomCode/truffletings/proxyBox/contracts/Poll.sol",
  "compiler": {
    "name": "solc",
    "version": "0.5.16+commit.9c3226ce.Emscripten.clang"
  },
  "schemaVersion": "3.2.0",
  "updatedAt": "2020-06-02T19:05:02.808Z",
  "networkType": "ethereum",
  "devdoc": {
    "methods": {}
  },
  "userdoc": {
    "methods": {}
  }
}