{
  "contractName": "Poll",
  "abi": [
    {
      "inputs": [],
      "payable": false,
      "stateMutability": "nonpayable",
      "type": "constructor"
    },
    {
      "anonymous": false,
      "inputs": [],
      "name": "CrossContractValidateBegin",
      "type": "event"
    },
    {
      "anonymous": false,
      "inputs": [],
      "name": "CrossContractValidateEnd",
      "type": "event"
    },
    {
      "anonymous": false,
      "inputs": [
        {
          "indexed": false,
          "internalType": "bool",
          "name": "",
          "type": "bool"
        }
      ],
      "name": "CrossContractValidateReturned",
      "type": "event"
    },
    {
      "anonymous": false,
      "inputs": [],
      "name": "ValidatorSet",
      "type": "event"
    },
    {
      "payable": true,
      "stateMutability": "payable",
      "type": "fallback"
    },
    {
      "constant": true,
      "inputs": [
        {
          "internalType": "uint8",
          "name": "",
          "type": "uint8"
        }
      ],
      "name": "validatorNames",
      "outputs": [
        {
          "internalType": "string",
          "name": "",
          "type": "string"
        }
      ],
      "payable": false,
      "stateMutability": "view",
      "type": "function"
    },
    {
      "constant": true,
      "inputs": [
        {
          "internalType": "uint8",
          "name": "",
          "type": "uint8"
        }
      ],
      "name": "validators",
      "outputs": [
        {
          "internalType": "address",
          "name": "",
          "type": "address"
        }
      ],
      "payable": false,
      "stateMutability": "view",
      "type": "function"
    },
    {
      "constant": true,
      "inputs": [],
      "name": "getPollOK",
      "outputs": [
        {
          "internalType": "uint8",
          "name": "",
          "type": "uint8"
        }
      ],
      "payable": false,
      "stateMutability": "view",
      "type": "function"
    },
    {
      "constant": false,
      "inputs": [
        {
          "internalType": "uint8",
          "name": "_ok",
          "type": "uint8"
        }
      ],
      "name": "setPollOK",
      "outputs": [],
      "payable": false,
      "stateMutability": "nonpayable",
      "type": "function"
    },
    {
      "constant": true,
      "inputs": [],
      "name": "getPollResult",
      "outputs": [
        {
          "internalType": "uint8",
          "name": "",
          "type": "uint8"
        }
      ],
      "payable": false,
      "stateMutability": "view",
      "type": "function"
    },
    {
      "constant": false,
      "inputs": [
        {
          "internalType": "uint8",
          "name": "_result",
          "type": "uint8"
        }
      ],
      "name": "setPollResult",
      "outputs": [],
      "payable": false,
      "stateMutability": "nonpayable",
      "type": "function"
    },
    {
      "constant": true,
      "inputs": [
        {
          "internalType": "uint256",
          "name": "idx",
          "type": "uint256"
        }
      ],
      "name": "getMyMap",
      "outputs": [
        {
          "internalType": "uint256",
          "name": "",
          "type": "uint256"
        }
      ],
      "payable": false,
      "stateMutability": "view",
      "type": "function"
    },
    {
      "constant": false,
      "inputs": [
        {
          "internalType": "uint256",
          "name": "idx",
          "type": "uint256"
        },
        {
          "internalType": "uint256",
          "name": "_myMap",
          "type": "uint256"
        }
      ],
      "name": "setMyMap",
      "outputs": [],
      "payable": false,
      "stateMutability": "nonpayable",
      "type": "function"
    },
    {
      "constant": true,
      "inputs": [],
      "name": "getOwner",
      "outputs": [
        {
          "internalType": "address",
          "name": "",
          "type": "address"
        }
      ],
      "payable": false,
      "stateMutability": "view",
      "type": "function"
    },
    {
      "constant": true,
      "inputs": [],
      "name": "ownAddress",
      "outputs": [
        {
          "internalType": "address",
          "name": "",
          "type": "address"
        }
      ],
      "payable": false,
      "stateMutability": "view",
      "type": "function"
    },
    {
      "constant": true,
      "inputs": [],
      "name": "getStateVars",
      "outputs": [
        {
          "internalType": "uint256",
          "name": "",
          "type": "uint256"
        },
        {
          "internalType": "address",
          "name": "",
          "type": "address"
        },
        {
          "internalType": "string",
          "name": "",
          "type": "string"
        },
        {
          "internalType": "address",
          "name": "",
          "type": "address"
        },
        {
          "internalType": "int8",
          "name": "",
          "type": "int8"
        }
      ],
      "payable": false,
      "stateMutability": "view",
      "type": "function"
    },
    {
      "constant": false,
      "inputs": [
        {
          "internalType": "address",
          "name": "newAddy",
          "type": "address"
        }
      ],
      "name": "setValidator1",
      "outputs": [
        {
          "internalType": "bool",
          "name": "",
          "type": "bool"
        }
      ],
      "payable": false,
      "stateMutability": "nonpayable",
      "type": "function"
    },
    {
      "constant": true,
      "inputs": [],
      "name": "getValidator1",
      "outputs": [
        {
          "internalType": "address",
          "name": "",
          "type": "address"
        }
      ],
      "payable": false,
      "stateMutability": "view",
      "type": "function"
    },
    {
      "constant": false,
      "inputs": [
        {
          "internalType": "string",
          "name": "newName",
          "type": "string"
        }
      ],
      "name": "setValidator1Name",
      "outputs": [
        {
          "internalType": "bool",
          "name": "",
          "type": "bool"
        }
      ],
      "payable": false,
      "stateMutability": "nonpayable",
      "type": "function"
    },
    {
      "constant": true,
      "inputs": [],
      "name": "getValidator1Name",
      "outputs": [
        {
          "internalType": "string",
          "name": "",
          "type": "string"
        }
      ],
      "payable": false,
      "stateMutability": "view",
      "type": "function"
    },
    {
      "constant": true,
      "inputs": [
        {
          "internalType": "bytes32",
          "name": "poll32",
          "type": "bytes32"
        },
        {
          "internalType": "string",
          "name": "fnName",
          "type": "string"
        },
        {
          "internalType": "uint8",
          "name": "vt",
          "type": "uint8"
        }
      ],
      "name": "dumpDataCache",
      "outputs": [
        {
          "internalType": "string",
          "name": "",
          "type": "string"
        },
        {
          "internalType": "uint256",
          "name": "",
          "type": "uint256"
        },
        {
          "internalType": "bytes32[]",
          "name": "",
          "type": "bytes32[]"
        }
      ],
      "payable": false,
      "stateMutability": "view",
      "type": "function"
    },
    {
      "constant": false,
      "inputs": [
        {
          "internalType": "bytes32",
          "name": "poll32",
          "type": "bytes32"
        },
        {
          "internalType": "string",
          "name": "fnName",
          "type": "string"
        },
        {
          "internalType": "uint8",
          "name": "vt",
          "type": "uint8"
        },
        {
          "internalType": "bytes32[]",
          "name": "data",
          "type": "bytes32[]"
        }
      ],
      "name": "setCache",
      "outputs": [],
      "payable": false,
      "stateMutability": "nonpayable",
      "type": "function"
    },
    {
      "constant": true,
      "inputs": [
        {
          "internalType": "string",
          "name": "source",
          "type": "string"
        }
      ],
      "name": "string32ToBytes32",
      "outputs": [
        {
          "internalType": "bytes32",
          "name": "result",
          "type": "bytes32"
        }
      ],
      "payable": false,
      "stateMutability": "pure",
      "type": "function"
    },
    {
      "constant": true,
      "inputs": [
        {
          "internalType": "bytes",
          "name": "b",
          "type": "bytes"
        }
      ],
      "name": "bytesToBytes4",
      "outputs": [
        {
          "internalType": "bytes4",
          "name": "bts",
          "type": "bytes4"
        }
      ],
      "payable": false,
      "stateMutability": "pure",
      "type": "function"
    },
    {
      "constant": true,
      "inputs": [
        {
          "internalType": "bytes",
          "name": "b",
          "type": "bytes"
        }
      ],
      "name": "bytesToBytes32",
      "outputs": [
        {
          "internalType": "bytes32",
          "name": "bts",
          "type": "bytes32"
        }
      ],
      "payable": false,
      "stateMutability": "pure",
      "type": "function"
    },
    {
      "constant": true,
      "inputs": [
        {
          "internalType": "bytes32",
          "name": "_bytes32",
          "type": "bytes32"
        }
      ],
      "name": "bytes32ToBytes",
      "outputs": [
        {
          "internalType": "bytes",
          "name": "",
          "type": "bytes"
        }
      ],
      "payable": false,
      "stateMutability": "pure",
      "type": "function"
    },
    {
      "constant": true,
      "inputs": [
        {
          "internalType": "bytes32",
          "name": "_bytes32",
          "type": "bytes32"
        }
      ],
      "name": "bytes32ToString",
      "outputs": [
        {
          "internalType": "string",
          "name": "",
          "type": "string"
        }
      ],
      "payable": false,
      "stateMutability": "pure",
      "type": "function"
    },
    {
      "constant": true,
      "inputs": [
        {
          "internalType": "bytes",
          "name": "data",
          "type": "bytes"
        }
      ],
      "name": "bytesSplit4",
      "outputs": [
        {
          "internalType": "bytes4",
          "name": "",
          "type": "bytes4"
        },
        {
          "internalType": "bytes",
          "name": "",
          "type": "bytes"
        }
      ],
      "payable": false,
      "stateMutability": "pure",
      "type": "function"
    },
    {
      "constant": true,
      "inputs": [
        {
          "internalType": "bytes",
          "name": "data",
          "type": "bytes"
        }
      ],
      "name": "bytesSplit32",
      "outputs": [
        {
          "internalType": "bytes32",
          "name": "",
          "type": "bytes32"
        },
        {
          "internalType": "bytes",
          "name": "",
          "type": "bytes"
        }
      ],
      "payable": false,
      "stateMutability": "pure",
      "type": "function"
    },
    {
      "constant": true,
      "inputs": [
        {
          "internalType": "string",
          "name": "name",
          "type": "string"
        }
      ],
      "name": "encodeFunctionName",
      "outputs": [
        {
          "internalType": "bytes4",
          "name": "",
          "type": "bytes4"
        }
      ],
      "payable": false,
      "stateMutability": "pure",
      "type": "function"
    },
    {
      "constant": false,
      "inputs": [
        {
          "internalType": "bytes32",
          "name": "poll32",
          "type": "bytes32"
        },
        {
          "internalType": "bytes4",
          "name": "fnNameHash",
          "type": "bytes4"
        },
        {
          "internalType": "bytes32",
          "name": "data",
          "type": "bytes32"
        },
        {
          "internalType": "uint8",
          "name": "vt",
          "type": "uint8"
        }
      ],
      "name": "storeResult",
      "outputs": [],
      "payable": false,
      "stateMutability": "nonpayable",
      "type": "function"
    },
    {
      "constant": true,
      "inputs": [
        {
          "internalType": "string",
          "name": "_poll",
          "type": "string"
        },
        {
          "internalType": "uint8",
          "name": "validationType",
          "type": "uint8"
        }
      ],
      "name": "serialiseStakers",
      "outputs": [
        {
          "internalType": "string",
          "name": "",
          "type": "string"
        }
      ],
      "payable": false,
      "stateMutability": "view",
      "type": "function"
    },
    {
      "constant": true,
      "inputs": [
        {
          "internalType": "string",
          "name": "_poll",
          "type": "string"
        },
        {
          "internalType": "uint8",
          "name": "validationType",
          "type": "uint8"
        }
      ],
      "name": "serialiseProofs",
      "outputs": [
        {
          "internalType": "string",
          "name": "",
          "type": "string"
        }
      ],
      "payable": false,
      "stateMutability": "view",
      "type": "function"
    },
    {
      "constant": false,
      "inputs": [
        {
          "internalType": "address",
          "name": "_pollContract",
          "type": "address"
        },
        {
          "internalType": "string",
          "name": "_poll",
          "type": "string"
        },
        {
          "internalType": "bytes32",
          "name": "_reveal",
          "type": "bytes32"
        }
      ],
      "name": "validate",
      "outputs": [
        {
          "internalType": "bool",
          "name": "success",
          "type": "bool"
        }
      ],
      "payable": true,
      "stateMutability": "payable",
      "type": "function"
    },
    {
      "constant": false,
      "inputs": [
        {
          "internalType": "address",
          "name": "_validator",
          "type": "address"
        },
        {
          "internalType": "bytes4",
          "name": "fnNameHash",
          "type": "bytes4"
        },
        {
          "internalType": "string",
          "name": "poll",
          "type": "string"
        },
        {
          "internalType": "uint8",
          "name": "vt",
          "type": "uint8"
        },
        {
          "internalType": "bytes32[]",
          "name": "reveal",
          "type": "bytes32[]"
        }
      ],
      "name": "crossContractValidateCall",
      "outputs": [
        {
          "internalType": "bytes32[]",
          "name": "",
          "type": "bytes32[]"
        }
      ],
      "payable": false,
      "stateMutability": "nonpayable",
      "type": "function"
    },
    {
      "constant": false,
      "inputs": [
        {
          "internalType": "string",
          "name": "_poll",
          "type": "string"
        },
        {
          "internalType": "string",
          "name": "data",
          "type": "string"
        }
      ],
      "name": "callValidator_MututalAgreement",
      "outputs": [
        {
          "internalType": "bool",
          "name": "",
          "type": "bool"
        }
      ],
      "payable": false,
      "stateMutability": "nonpayable",
      "type": "function"
    }
  ],
  "bytecode": "0x608060405260016004557fffffffffffffffffffffffffffffffffffffffffffffffffffffffffffffffff600560006101000a81548160ff021916908360000b60ff1602179055503480156200005457600080fd5b5073a145493cc19b0bc6c5a2ca86e9ba38bb435e3f5b60066000600160ff16815260200190815260200160002060006101000a81548173ffffffffffffffffffffffffffffffffffffffff021916908373ffffffffffffffffffffffffffffffffffffffff1602179055506040518060400160405280601081526020017f4d757475616c2041677265656d656e740000000000000000000000000000000081525060076000600160ff16815260200190815260200160002090805190602001906200012192919062000188565b5030600860006101000a81548173ffffffffffffffffffffffffffffffffffffffff021916908373ffffffffffffffffffffffffffffffffffffffff1602179055506001600560006101000a81548160ff021916908360000b60ff16021790555062000237565b828054600181600116156101000203166002900490600052602060002090601f016020900481019282601f10620001cb57805160ff1916838001178555620001fc565b82800160010185558215620001fc579182015b82811115620001fb578251825591602001919060010190620001de565b5b5090506200020b91906200020f565b5090565b6200023491905b808211156200023057600081600090555060010162000216565b5090565b90565b6134f880620002476000396000f3fe6080604052600436106101d85760003560e01c806383c7f14c116101025780639daf207811610095578063c1c0984711610064578063c1c0984714611918578063c52bde7314611b1f578063e381047d14611b76578063e5c0591e14611cfc576101d8565b80639daf20781461173d578063a0b345bc1461176e578063a47b94fa146117fe578063bfe370d91461183c576101d8565b80638ee879c7116100d15780638ee879c71461143a5780639201de55146114f157806394c6f3b1146115a5578063965457ba146116bf576101d8565b806383c7f14c14611055578063893d20e81461116f5780638a9392c0146111c65780638d894b28146112c3576101d8565b80632888416a1161017a57806356024939116101495780635602493914610d9257806359386a1714610ee0578063701456bc14610fc057806380d04fc414611017576101d8565b80632888416a1461098557806329eece6f14610af85780634c0999c714610bd45780634f6725fb14610c88576101d8565b80632615c3e9116101b65780632615c3e9146105e857806326a9cdf71461062d578063276d455f1461077557806327ee5210146107de576101d8565b806306efc69c146103d057806313311a1c1461044b578063176c11e914610599575b60606000368080601f016020809104026020016040519081016040528093929190818152602001838380828437600081840152601f19601f82011690508083019250505050505050905060006060600080606061023486611d2d565b809550819450505061024584611eb8565b809550819650505061025684611eb8565b809250819350505061029c6040518060400160405280601081526020017f73657269616c6973655374616b65727300000000000000000000000000000000815250612043565b7bffffffffffffffffffffffffffffffffffffffffffffffffffffffff1916837bffffffffffffffffffffffffffffffffffffffffffffffffffffffff19161415610306576103036102fe6102f087612054565b6102f98461206b565b6120f9565b612121565b91505b6103446040518060400160405280600f81526020017f73657269616c69736550726f6f66730000000000000000000000000000000000815250612043565b7bffffffffffffffffffffffffffffffffffffffffffffffffffffffff1916837bffffffffffffffffffffffffffffffffffffffffffffffffffffffff191614156103ae576103ab6103a661039887612054565b6103a18461206b565b61212f565b612121565b91505b6103c28584846103bd8561206b565b612154565b610100604051605881538181f35b3480156103dc57600080fd5b50610449600480360360808110156103f357600080fd5b810190808035906020019092919080357bffffffffffffffffffffffffffffffffffffffffffffffffffffffff1916906020019092919080359060200190929190803560ff169060200190929190505050612154565b005b34801561045757600080fd5b5061051e6004803603604081101561046e57600080fd5b810190808035906020019064010000000081111561048b57600080fd5b82018360208201111561049d57600080fd5b803590602001918460018302840111640100000000831117156104bf57600080fd5b91908080601f016020809104026020016040519081016040528093929190818152602001838380828437600081840152601f19601f820116905080830192505050505050509192919290803560ff16906020019092919050505061212f565b6040518080602001828103825283818151815260200191508051906020019080838360005b8381101561055e578082015181840152602081019050610543565b50505050905090810190601f16801561058b5780820380516001836020036101000a031916815260200191505b509250505060405180910390f35b3480156105a557600080fd5b506105d2600480360360208110156105bc57600080fd5b8101908080359060200190929190505050612248565b6040518082815260200191505060405180910390f35b3480156105f457600080fd5b5061062b6004803603604081101561060b57600080fd5b810190808035906020019092919080359060200190929190505050612265565b005b34801561063957600080fd5b506106f36004803603602081101561065057600080fd5b810190808035906020019064010000000081111561066d57600080fd5b82018360208201111561067f57600080fd5b803590602001918460018302840111640100000000831117156106a157600080fd5b91908080601f016020809104026020016040519081016040528093929190818152602001838380828437600081840152601f19601f820116905080830192505050505050509192919290505050611eb8565b6040518083815260200180602001828103825283818151815260200191508051906020019080838360005b8381101561073957808201518184015260208101905061071e565b50505050905090810190601f1680156107665780820380516001836020036101000a031916815260200191505b50935050505060405180910390f35b34801561078157600080fd5b506107c46004803603602081101561079857600080fd5b81019080803573ffffffffffffffffffffffffffffffffffffffff169060200190929190505050612281565b604051808215151515815260200191505060405180910390f35b3480156107ea57600080fd5b506108bb6004803603606081101561080157600080fd5b81019080803590602001909291908035906020019064010000000081111561082857600080fd5b82018360208201111561083a57600080fd5b8035906020019184600183028401116401000000008311171561085c57600080fd5b91908080601f016020809104026020016040519081016040528093929190818152602001838380828437600081840152601f19601f820116905080830192505050505050509192919290803560ff16906020019092919050505061230e565b604051808060200184815260200180602001838103835286818151815260200191508051906020019080838360005b838110156109055780820151818401526020810190506108ea565b50505050905090810190601f1680156109325780820380516001836020036101000a031916815260200191505b50838103825284818151815260200191508051906020019060200280838360005b8381101561096e578082015181840152602081019050610953565b505050509050019550505050505060405180910390f35b34801561099157600080fd5b50610af6600480360360808110156109a857600080fd5b8101908080359060200190929190803590602001906401000000008111156109cf57600080fd5b8201836020820111156109e157600080fd5b80359060200191846001830284011164010000000083111715610a0357600080fd5b91908080601f016020809104026020016040519081016040528093929190818152602001838380828437600081840152601f19601f820116905080830192505050505050509192919290803560ff16906020019092919080359060200190640100000000811115610a7357600080fd5b820183602082011115610a8557600080fd5b80359060200191846020830284011164010000000083111715610aa757600080fd5b919080806020026020016040519081016040528093929190818152602001838360200280828437600081840152601f19601f82011690508083019250505050505050919291929050505061244e565b005b348015610b0457600080fd5b50610bbe60048036036020811015610b1b57600080fd5b8101908080359060200190640100000000811115610b3857600080fd5b820183602082011115610b4a57600080fd5b80359060200191846001830284011164010000000083111715610b6c57600080fd5b91908080601f016020809104026020016040519081016040528093929190818152602001838380828437600081840152601f19601f820116905080830192505050505050509192919290505050612121565b6040518082815260200191505060405180910390f35b348015610be057600080fd5b50610c0d60048036036020811015610bf757600080fd5b8101908080359060200190929190505050612507565b6040518080602001828103825283818151815260200191508051906020019080838360005b83811015610c4d578082015181840152602081019050610c32565b50505050905090810190601f168015610c7a5780820380516001836020036101000a031916815260200191505b509250505060405180910390f35b348015610c9457600080fd5b50610c9d6125af565b604051808681526020018573ffffffffffffffffffffffffffffffffffffffff1673ffffffffffffffffffffffffffffffffffffffff168152602001806020018473ffffffffffffffffffffffffffffffffffffffff1673ffffffffffffffffffffffffffffffffffffffff1681526020018360000b60000b8152602001828103825285818151815260200191508051906020019080838360005b83811015610d53578082015181840152602081019050610d38565b50505050905090810190601f168015610d805780820380516001836020036101000a031916815260200191505b50965050505050505060405180910390f35b348015610d9e57600080fd5b50610e6560048036036040811015610db557600080fd5b8101908080359060200190640100000000811115610dd257600080fd5b820183602082011115610de457600080fd5b80359060200191846001830284011164010000000083111715610e0657600080fd5b91908080601f016020809104026020016040519081016040528093929190818152602001838380828437600081840152601f19601f820116905080830192505050505050509192919290803560ff1690602001909291905050506120f9565b6040518080602001828103825283818151815260200191508051906020019080838360005b83811015610ea5578082015181840152602081019050610e8a565b50505050905090810190601f168015610ed25780820380516001836020036101000a031916815260200191505b509250505060405180910390f35b348015610eec57600080fd5b50610fa660048036036020811015610f0357600080fd5b8101908080359060200190640100000000811115610f2057600080fd5b820183602082011115610f3257600080fd5b80359060200191846001830284011164010000000083111715610f5457600080fd5b91908080601f016020809104026020016040519081016040528093929190818152602001838380828437600081840152601f19601f8201169050808301925050505050505091929192905050506126e9565b604051808215151515815260200191505060405180910390f35b348015610fcc57600080fd5b50610fd561274c565b604051808273ffffffffffffffffffffffffffffffffffffffff1673ffffffffffffffffffffffffffffffffffffffff16815260200191505060405180910390f35b34801561102357600080fd5b506110536004803603602081101561103a57600080fd5b81019080803560ff169060200190929190505050612776565b005b34801561106157600080fd5b5061111b6004803603602081101561107857600080fd5b810190808035906020019064010000000081111561109557600080fd5b8201836020820111156110a757600080fd5b803590602001918460018302840111640100000000831117156110c957600080fd5b91908080601f016020809104026020016040519081016040528093929190818152602001838380828437600081840152601f19601f820116905080830192505050505050509192919290505050612794565b60405180827bffffffffffffffffffffffffffffffffffffffffffffffffffffffff19167bffffffffffffffffffffffffffffffffffffffffffffffffffffffff1916815260200191505060405180910390f35b34801561117b57600080fd5b506111846127b1565b604051808273ffffffffffffffffffffffffffffffffffffffff1673ffffffffffffffffffffffffffffffffffffffff16815260200191505060405180910390f35b6112a9600480360360608110156111dc57600080fd5b81019080803573ffffffffffffffffffffffffffffffffffffffff1690602001909291908035906020019064010000000081111561121957600080fd5b82018360208201111561122b57600080fd5b8035906020019184600183028401116401000000008311171561124d57600080fd5b91908080601f016020809104026020016040519081016040528093929190818152602001838380828437600081840152601f19601f820116905080830192505050505050509192919290803590602001909291905050506127da565b604051808215151515815260200191505060405180910390f35b3480156112cf57600080fd5b50611420600480360360408110156112e657600080fd5b810190808035906020019064010000000081111561130357600080fd5b82018360208201111561131557600080fd5b8035906020019184600183028401116401000000008311171561133757600080fd5b91908080601f016020809104026020016040519081016040528093929190818152602001838380828437600081840152601f19601f8201169050808301925050505050505091929192908035906020019064010000000081111561139a57600080fd5b8201836020820111156113ac57600080fd5b803590602001918460018302840111640100000000831117156113ce57600080fd5b91908080601f016020809104026020016040519081016040528093929190818152602001838380828437600081840152601f19601f8201169050808301925050505050505091929192905050506127e3565b604051808215151515815260200191505060405180910390f35b34801561144657600080fd5b506114766004803603602081101561145d57600080fd5b81019080803560ff1690602001909291905050506129f2565b6040518080602001828103825283818151815260200191508051906020019080838360005b838110156114b657808201518184015260208101905061149b565b50505050905090810190601f1680156114e35780820380516001836020036101000a031916815260200191505b509250505060405180910390f35b3480156114fd57600080fd5b5061152a6004803603602081101561151457600080fd5b8101908080359060200190929190505050612054565b6040518080602001828103825283818151815260200191508051906020019080838360005b8381101561156a57808201518184015260208101905061154f565b50505050905090810190601f1680156115975780820380516001836020036101000a031916815260200191505b509250505060405180910390f35b3480156115b157600080fd5b5061166b600480360360208110156115c857600080fd5b81019080803590602001906401000000008111156115e557600080fd5b8201836020820111156115f757600080fd5b8035906020019184600183028401116401000000008311171561161957600080fd5b91908080601f016020809104026020016040519081016040528093929190818152602001838380828437600081840152601f19601f820116905080830192505050505050509192919290505050612043565b60405180827bffffffffffffffffffffffffffffffffffffffffffffffffffffffff19167bffffffffffffffffffffffffffffffffffffffffffffffffffffffff1916815260200191505060405180910390f35b3480156116cb57600080fd5b506116fb600480360360208110156116e257600080fd5b81019080803560ff169060200190929190505050612aa2565b604051808273ffffffffffffffffffffffffffffffffffffffff1673ffffffffffffffffffffffffffffffffffffffff16815260200191505060405180910390f35b34801561174957600080fd5b50611752612ad5565b604051808260ff1660ff16815260200191505060405180910390f35b34801561177a57600080fd5b50611783612aeb565b6040518080602001828103825283818151815260200191508051906020019080838360005b838110156117c35780820151818401526020810190506117a8565b50505050905090810190601f1680156117f05780820380516001836020036101000a031916815260200191505b509250505060405180910390f35b34801561180a57600080fd5b5061183a6004803603602081101561182157600080fd5b81019080803560ff169060200190929190505050612ba2565b005b34801561184857600080fd5b506119026004803603602081101561185f57600080fd5b810190808035906020019064010000000081111561187c57600080fd5b82018360208201111561188e57600080fd5b803590602001918460018302840111640100000000831117156118b057600080fd5b91908080601f016020809104026020016040519081016040528093929190818152602001838380828437600081840152601f19601f820116905080830192505050505050509192919290505050612bc0565b6040518082815260200191505060405180910390f35b34801561192457600080fd5b50611ac8600480360360a081101561193b57600080fd5b81019080803573ffffffffffffffffffffffffffffffffffffffff16906020019092919080357bffffffffffffffffffffffffffffffffffffffffffffffffffffffff19169060200190929190803590602001906401000000008111156119a157600080fd5b8201836020820111156119b357600080fd5b803590602001918460018302840111640100000000831117156119d557600080fd5b91908080601f016020809104026020016040519081016040528093929190818152602001838380828437600081840152601f19601f820116905080830192505050505050509192919290803560ff16906020019092919080359060200190640100000000811115611a4557600080fd5b820183602082011115611a5757600080fd5b80359060200191846020830284011164010000000083111715611a7957600080fd5b919080806020026020016040519081016040528093929190818152602001838360200280828437600081840152601f19601f820116905080830192505050505050509192919290505050612bd3565b6040518080602001828103825283818151815260200191508051906020019060200280838360005b83811015611b0b578082015181840152602081019050611af0565b505050509050019250505060405180910390f35b348015611b2b57600080fd5b50611b34612c33565b604051808273ffffffffffffffffffffffffffffffffffffffff1673ffffffffffffffffffffffffffffffffffffffff16815260200191505060405180910390f35b348015611b8257600080fd5b50611c3c60048036036020811015611b9957600080fd5b8101908080359060200190640100000000811115611bb657600080fd5b820183602082011115611bc857600080fd5b80359060200191846001830284011164010000000083111715611bea57600080fd5b91908080601f016020809104026020016040519081016040528093929190818152602001838380828437600081840152601f19601f820116905080830192505050505050509192919290505050611d2d565b60405180837bffffffffffffffffffffffffffffffffffffffffffffffffffffffff19167bffffffffffffffffffffffffffffffffffffffffffffffffffffffff1916815260200180602001828103825283818151815260200191508051906020019080838360005b83811015611cc0578082015181840152602081019050611ca5565b50505050905090810190601f168015611ced5780820380516001836020036101000a031916815260200191505b50935050505060405180910390f35b348015611d0857600080fd5b50611d11612c72565b604051808260ff1660ff16815260200191505060405180910390f35b6000606060006004905060008090508160ff1685511115611d52578160ff1685510390505b600060608360ff166040519080825280601f01601f191660200182016040528015611d8c5781602001600182028038833980820191505090505b5090506060836040519080825280601f01601f191660200182016040528015611dc45781602001600182028038833980820191505090505b50905060008090505b60018951038111611e9f578560ff16811015611e3a57888181518110611def57fe5b602001015160f81c60f81b838281518110611e0657fe5b60200101907effffffffffffffffffffffffffffffffffffffffffffffffffffffffffffff1916908160001a905350611e92565b888181518110611e4657fe5b602001015160f81c60f81b828760ff16830381518110611e6257fe5b60200101907effffffffffffffffffffffffffffffffffffffffffffffffffffffffffffff1916908160001a9053505b8080600101915050611dcd565b50611ea982612794565b81965096505050505050915091565b6000606060006020905060008090508160ff1685511115611edd578160ff1685510390505b600060608360ff166040519080825280601f01601f191660200182016040528015611f175781602001600182028038833980820191505090505b5090506060836040519080825280601f01601f191660200182016040528015611f4f5781602001600182028038833980820191505090505b50905060008090505b6001895103811161202a578560ff16811015611fc557888181518110611f7a57fe5b602001015160f81c60f81b838281518110611f9157fe5b60200101907effffffffffffffffffffffffffffffffffffffffffffffffffffffffffffff1916908160001a90535061201d565b888181518110611fd157fe5b602001015160f81c60f81b828760ff16830381518110611fed57fe5b60200101907effffffffffffffffffffffffffffffffffffffffffffffffffffffffffffff1916908160001a9053505b8080600101915050611f58565b5061203482612bc0565b81965096505050505050915091565b600081805190602001209050919050565b60608061206083612507565b905080915050919050565b60006001825110156120e5576040517f08c379a00000000000000000000000000000000000000000000000000000000081526004018080602001828103825260128152602001807f52656164206f7574206f6620626f756e6473000000000000000000000000000081525060200191505060405180910390fd5b600080600184010151905080915050919050565b6060806040518060600160405280602481526020016134a06024913990508091505092915050565b600060208201519050919050565b60608060405180606001604052806023815260200161347d6023913990505092915050565b60008160ff166127100161ffff16905060018260ff16141561223157600085858460405160200180848152602001837bffffffffffffffffffffffffffffffffffffffffffffffffffffffff19167bffffffffffffffffffffffffffffffffffffffffffffffffffffffff191681526004018260ff1660ff1660f81b815260010193505050506040516020818303038152906040528051906020012090506122036121fe85612054565b612c88565b60026000838152602001908152602001600020908051906020019061222992919061334b565b506101049150505b806004600082825401925050819055505050505050565b600060016000838152602001908152602001600020549050919050565b8060016000848152602001908152602001600020819055505050565b60008160066000600160ff16815260200190815260200160002060006101000a81548173ffffffffffffffffffffffffffffffffffffffff021916908373ffffffffffffffffffffffffffffffffffffffff1602179055507f65d50497db61f4c3986fb372a33c45f53c3767d03d42d7db37c58fe29740317b60405160405180910390a160019050919050565b60606000606060008661232087612043565b8660405160200180848152602001837bffffffffffffffffffffffffffffffffffffffffffffffffffffffff19167bffffffffffffffffffffffffffffffffffffffffffffffffffffffff191681526004018260ff1660ff1660f81b81526001019350505050604051602081830303815290604052805190602001209050600454600260008381526020019081526020016000206040518060400160405280600d81526020017f506f6c6c20636f6e746578743a0000000000000000000000000000000000000081525091908080548060200260200160405190810160405280929190818152602001828054801561243757602002820191906000526020600020905b815481526020019060010190808311612423575b505050505090509350935093505093509350939050565b60008461245a85612043565b8460405160200180848152602001837bffffffffffffffffffffffffffffffffffffffffffffffffffffffff19167bffffffffffffffffffffffffffffffffffffffffffffffffffffffff191681526004018260ff1660ff1660f81b81526001019350505050604051602081830303815290604052805190602001209050816002600083815260200190815260200160002090805190602001906124ff92919061334b565b505050505050565b60608060206040519080825280601f01601f19166020018201604052801561253e5781602001600182028038833980820191505090505b50905060005b60208110156125a55783816020811061255957fe5b1a60f81b82828151811061256957fe5b60200101907effffffffffffffffffffffffffffffffffffffffffffffffffffffffffffff1916908160001a9053508080600101915050612544565b5080915050919050565b600080606060008060045460066000600160ff16815260200190815260200160002060009054906101000a900473ffffffffffffffffffffffffffffffffffffffff1660076000600160ff168152602001908152602001600020600860009054906101000a900473ffffffffffffffffffffffffffffffffffffffff16600560009054906101000a900460000b828054600181600116156101000203166002900480601f0160208091040260200160405190810160405280929190818152602001828054600181600116156101000203166002900480156126d15780601f106126a6576101008083540402835291602001916126d1565b820191906000526020600020905b8154815290600101906020018083116126b457829003601f168201915b50505050509250945094509450945094509091929394565b60008160076000600160ff1681526020019081526020016000209080519060200190612716929190613398565b507f65d50497db61f4c3986fb372a33c45f53c3767d03d42d7db37c58fe29740317b60405160405180910390a160019050919050565b6000600860009054906101000a900473ffffffffffffffffffffffffffffffffffffffff16905090565b80600060156101000a81548160ff021916908360ff16021790555050565b600080635050505060e01b90506020830151905080915050919050565b60008060009054906101000a900473ffffffffffffffffffffffffffffffffffffffff16905090565b60009392505050565b600080600190506128da600760008360ff1660ff1681526020019081526020016000208054600181600116156101000203166002900480601f01602080910402602001604051908101604052809291908181526020018280546001816001161561010002031660029004801561289a5780601f1061286f5761010080835404028352916020019161289a565b820191906000526020600020905b81548152906001019060200180831161287d57829003601f168201915b50505050506040518060400160405280601081526020017f4d757475616c2041677265656d656e7400000000000000000000000000000000815250612d0b565b6128e057fe5b6060612929600660008460ff1660ff16815260200190815260200160002060009054906101000a900473ffffffffffffffffffffffffffffffffffffffff16866000801b6127da565b506129ad600660008460ff1660ff16815260200190815260200160002060009054906101000a900473ffffffffffffffffffffffffffffffffffffffff166129a56040518060400160405280600881526020017f76616c6964617465000000000000000000000000000000000000000000000000815250612043565b878585612bd3565b507fd65038c0be209d4ae257f7e73a69b8b787796717cd2ce67d00d7e02c9de1020e6000604051808215151515815260200191505060405180910390a1505092915050565b60076020528060005260406000206000915090508054600181600116156101000203166002900480601f016020809104026020016040519081016040528092919081815260200182805460018160011615610100020316600290048015612a9a5780601f10612a6f57610100808354040283529160200191612a9a565b820191906000526020600020905b815481529060010190602001808311612a7d57829003601f168201915b505050505081565b60066020528060005260406000206000915054906101000a900473ffffffffffffffffffffffffffffffffffffffff1681565b60008060159054906101000a900460ff16905090565b606060076000600160ff1681526020019081526020016000208054600181600116156101000203166002900480601f016020809104026020016040519081016040528092919081815260200182805460018160011615610100020316600290048015612b985780601f10612b6d57610100808354040283529160200191612b98565b820191906000526020600020905b815481529060010190602001808311612b7b57829003601f168201915b5050505050905090565b80600060146101000a81548160ff021916908360ff16021790555050565b6000806020830151905080915050919050565b606060008690506000602090507f1ff50e4650f7f1e5b26a5f5e921b803deee4a95a1b6ef46e05992b3bc1dcdb8c60405160405180910390a160405136600082376000803683865af43d806000843e8160008114612c2f578184f35b8184fd5b600060066000600160ff16815260200190815260200160002060009054906101000a900473ffffffffffffffffffffffffffffffffffffffff16905090565b60008060149054906101000a900460ff16905090565b606080612c9c612c9784612dd8565b612e06565b90506000815190505b6000818060019003925060ff161115612d0157818160ff1681518110612cc757fe5b602002602001015160601b6bffffffffffffffffffffffff1916838260ff1681518110612cf057fe5b602002602001018181525050612ca5565b8292505050919050565b6000606083905060608390508051825114612d2b57600092505050612dd2565b60008090505b8251811015612dca57818181518110612d4657fe5b602001015160f81c60f81b7effffffffffffffffffffffffffffffffffffffffffffffffffffffffffffff1916838281518110612d7f57fe5b602001015160f81c60f81b7effffffffffffffffffffffffffffffffffffffffffffffffffffffffffffff191614612dbd5760009350505050612dd2565b8080600101915050612d31565b506001925050505b92915050565b612de0613418565b600060208301905060405180604001604052808451815260200182815250915050919050565b6060612e10613418565b612e4e6040518060400160405280600181526020017f2c00000000000000000000000000000000000000000000000000000000000000815250612dd8565b90506060612e658285612f2690919063ffffffff16565b604051908082528060200260200182016040528015612e935781602001602082028038833980820191505090505b50905060008090505b8151811015612f1b57612ec8612ec3612ebe8588612f9b90919063ffffffff16565b612fb5565b613017565b828281518110612ed457fe5b602002602001019073ffffffffffffffffffffffffffffffffffffffff16908173ffffffffffffffffffffffffffffffffffffffff16815250508080600101915050612e9c565b508092505050919050565b6000808260000151612f4a8560000151866020015186600001518760200151613189565b0190505b83600001518460200151018111612f945781806001019250508260000151612f8c856020015183038660000151038386600001518760200151613189565b019050612f4e565b5092915050565b612fa3613418565b612fae838383613264565b5092915050565b60608082600001516040519080825280601f01601f191660200182016040528015612fef5781602001600182028038833980820191505090505b509050600060208201905061300d8185602001518660000151613302565b8192505050919050565b6000606082905060008090506000806000600290505b602a81101561317c576101008402935084818151811061304957fe5b602001015160f81c60f81b60f81c925084600182018151811061306857fe5b602001015160f81c60f81b60f81c915060618360ff1610158015613090575060668360ff1611155b156130a0576057830392506130ee565b60308360ff16101580156130b8575060398360ff1611155b156130c8576030830392506130ed565b60418360ff16101580156130e0575060468360ff1611155b156130ec576037830392505b5b5b60618260ff1610158015613106575060668260ff1611155b1561311657605782039150613164565b60308260ff161015801561312e575060398260ff1611155b1561313e57603082039150613163565b60418260ff1610158015613156575060468260ff1611155b15613162576037820391505b5b5b81601084020160ff168401935060028101905061302d565b5082945050505050919050565b6000808490506000868511613254576020851161320e57600060018660200360080260020a031960001b905060008186511690506000878a8a0103905060008386511690505b828114613200578186106131ed578a8a01965050505050505061325c565b85806001019650508386511690506131cf565b85965050505050505061325c565b60008585209050600091505b858803821161325257600086842090508082141561323e578394505050505061325c565b60018401935050818060010192505061321a565b505b868601925050505b949350505050565b61326c613418565b600061328a8560000151866020015186600001518760200151613189565b905084602001518360200181815250508460200151810383600001818152505084600001518560200151018114156132cc5760008560000181815250506132f7565b8360000151836000015101856000018181510391508181525050836000015181018560200181815250505b829150509392505050565b5b602081106133265781518352602083019250602082019150602081039050613303565b60006001826020036101000a0390508019835116818551168181178652505050505050565b828054828255906000526020600020908101928215613387579160200282015b8281111561338657825182559160200191906001019061336b565b5b5090506133949190613432565b5090565b828054600181600116156101000203166002900490600052602060002090601f016020900481019282601f106133d957805160ff1916838001178555613407565b82800160010185558215613407579182015b828111156134065782518255916020019190600101906133eb565b5b5090506134149190613457565b5090565b604051806040016040528060008152602001600081525090565b61345491905b80821115613450576000816000905550600101613438565b5090565b90565b61347991905b8082111561347557600081600090555060010161345d565b5090565b9056fe526573756c7421202d2066726f6d20706f6c6c2e73657269616c69736550726f6f6673526573756c7421202d2066726f6d20706f6c6c2e73657269616c6973655374616b657273a265627a7a723158202961820415f3aae0394b17de0ea7a042a6121e163f0a52472e10360e168492c964736f6c63430005100032",
  "source": "pragma solidity ^0.5.0;\n\nimport \"./strings.sol\";\n// import \"github.com/GNSPS/solidity-bytes-utils/contracts/BytesLib.sol\";   // requires sol 0.5+\nimport \"./stringCasting.sol\";\n\ncontract Poll {\n    address owner;  // is set by TokenStorage;\n    uint8 ok;\n    uint8 result;\n    mapping (uint => uint) myMap;\n\n    // dataCache must occupy the same slot as in Poll contract, ie first slot, slot 0.\n    mapping (bytes32 => bytes32[]) dataCache;\n    // resultsCache must occupy the same slot as in Poll contract, ie second slot, slot 1.\n    mapping (bytes32 => bool) resultsCache;\n\n    uint256 notes = 1;\n    int8 constructed = -1;\n\n    using strings for *;\n    using stringcast for string;\n\n\n\n    mapping(uint8 => address) public validators;\n    mapping(uint8 => string) public validatorNames;\n    address selfAddy ;\n\n    constructor () public /* is PollCommunity */ {\n        validators[1] = address(0xA145493CC19b0BC6C5a2cA86e9BA38BB435E3F5b);\n        validatorNames[1] = \"Mutual Agreement\";\n        selfAddy = address(this);\n        constructed = 1;\n    }\n\n\n    function getPollOK() public view returns (uint8) {\n      return ok;\n    }\n\n    function setPollOK (uint8 _ok) public {\n      ok = _ok;\n    }\n\n    function getPollResult() public view returns (uint8) {\n      return result;\n    }\n\n    function setPollResult (uint8 _result) public {\n      result = _result;\n    }\n\n    function getMyMap(uint idx) public view returns (uint) {\n      return myMap[idx];\n    }\n\n    function setMyMap (uint idx, uint _myMap) public {\n      myMap[idx] = _myMap;\n    }\n\n    function getOwner() public view returns (address) {\n      return owner;\n    }\n\n    function() external payable {\n        // NB sol 0.6+ better syntax for calldata arrays : https://solidity.readthedocs.io/en/v0.6.0/types.html#array-slices\n        bytes memory input = msg.data;\n\n        // TODO: This is V.0 accepting a string (really a bytes32) of EXACTLY 32 bytes, eg a doodle poll without the https:// ;)\n        bytes32 poll32;\n        bytes memory rest;\n        bytes4 fnNameHash;\n        bytes32 result;\n        bytes memory vType;\n\n        (fnNameHash, rest) = (bytesSplit4(input));\n        (poll32, rest) = (bytesSplit32(rest));\n        (result, vType) = (bytesSplit32(rest));\n\n        if (fnNameHash == encodeFunctionName(\"serialiseStakers\")) {\n            //NB wrapping these in bytes32 for testing, but keep as strings until you are ready to deserialise bytes32, cos they still good here!\n            result = string32ToBytes32( serialiseStakers(bytes32ToString(poll32), toUint8(vType)) );\n        }\n        if (fnNameHash == encodeFunctionName(\"serialiseProofs\")) {\n            //NB wrapping these in bytes32 for testing, but keep as strings until you are ready to deserialise bytes32, cos they still good here!\n            result = string32ToBytes32(serialiseProofs(bytes32ToString(poll32), toUint8(vType)) );\n        }\n        // Warning: This hack introduces possible griefing attack - better would be to force EVM to return the result of this lookup from fallback, not store and retreive it :/\n\n        storeResult(poll32, fnNameHash, result, toUint8(vType));\n\n        assembly {\n            let size := 256\n            let ptr := mload(0x40)\n            mstore8(ptr, 88)\n            return(ptr, size)\n        }\n    }\n\n    function ownAddress () public view returns (address) {\n        return selfAddy;\n    }\n\n    function getStateVars () public view returns (uint256, address, string memory, address, int8) {\n        return (notes, validators[1], validatorNames[1], selfAddy, constructed);\n    }\n\n    event ValidatorSet();\n    function setValidator1 (address newAddy) public returns (bool) {\n        validators[1] = newAddy;\n        emit ValidatorSet();\n        return true;\n    }\n\n    function getValidator1 () public view returns (address) {\n        return validators[1];\n    }\n\n    function setValidator1Name (string memory newName) public returns (bool) {\n        validatorNames[1] = newName;\n        emit ValidatorSet();\n        return true;\n    }\n\n    function getValidator1Name () public view returns (string memory) {\n        return validatorNames[1];\n    }\n\n    // event RetrievedDataCache(string, uint256, bytes32[]);\n    function dumpDataCache (bytes32 poll32, string memory fnName, uint8 vt) public view returns (string memory, uint256, bytes32[] memory) {\n        bytes32 hash = keccak256(abi.encodePacked(poll32, encodeFunctionName(fnName), vt));\n        // emit RetrievedDataCache(\"Poll context:\", notes, dataCache[hash]);\n        return (\"Poll context:\", notes, dataCache[hash]);\n    }\n\n    function setCache (bytes32 poll32, string memory fnName, uint8 vt, bytes32[] memory data) public {\n      bytes32 hash = keccak256(abi.encodePacked(poll32, encodeFunctionName(fnName), vt));\n      // emit RetrievedDataCache(\"Poll context:\", notes, dataCache[hash]);\n      dataCache[hash] = data;\n    }\n\n    function stringsEqual (string memory _a, string memory _b) internal pure returns (bool) {\n        bytes memory a = bytes(_a);\n        bytes memory b = bytes(_b);\n\n        if (a.length != b.length)\n            return false;\n\n        for (uint i = 0; i < a.length; i ++)\n            if (a[i] != b[i])\n                return false;\n\n        return true;\n    }\n\n    function string32ToBytes32(string memory source) public pure returns (bytes32 result) {\n        assembly {\n        result := mload(add(source, 32))\n        }\n    }\n\n    // split a serialised string of addresses (as received from main contract).\n    // NB - only works in mutual agreement validator - other validators will use multiple types within serialised string\n    function splitToAddresses(strings.slice memory concatenated) internal pure returns (address[] memory result) {\n        strings.slice memory delim = \",\".toSlice();\n        address[] memory parts = new address[](concatenated.count(delim));  // why doesn't this lose a member?\n\n        for(uint i = 0; i < parts.length; i++) {\n           parts[i] = concatenated.split(delim).toString().toAddress();\n        }\n        return parts;\n    }\n\n    // function stringToBytes32(string memory source) {\n    //     bytes32[] memory result;\n    //     strings.slice memory remainder = source.toSlice();\n    //     while (remainder.length >= 32) {\n\n    //     }\n\n    // }\n\n\n\n    function bytesToBytes4(bytes  memory b)  public pure returns (bytes4 bts) {\n        bytes4 i = 0x50505050;\n        assembly { i := mload(add(b, 0x20)) }\n        bts = i;\n    }\n\n    function bytesToBytes32(bytes  memory b)  public pure returns (bytes32 bts) {\n        bytes32 i;\n        //NB size etc= 32b = 0x20b\n        assembly { i := mload(add(b, 0x20)) }\n        bts = i;\n    }\n\n    function toUint8(bytes memory _bytes) internal pure returns (uint8) {\n        require(_bytes.length >= (1), \"Read out of bounds\");\n        uint8 tempUint;\n\n        assembly {\n            tempUint := mload(add(add(_bytes, 0x1), 0))\n        }\n\n        return tempUint;\n    }\n\n    function bytes32ToBytes(bytes32 _bytes32) public pure returns (bytes memory){\n        // string memory str = string(_bytes32);\n        // TypeError: Explicit type conversion not allowed from \"bytes32\" to \"string storage pointer\"\n        bytes memory bytesArray = new bytes(32);\n        for (uint256 i; i < 32; i++) {\n            bytesArray[i] = _bytes32[i];\n        }\n        return bytesArray;\n    }\n\n    function bytes32ToString(bytes32 _bytes32) public pure returns (string memory){\n        bytes memory bytesArray = bytes32ToBytes(_bytes32);\n        return string(bytesArray);\n    }\n\n    function bytesSplit4(bytes memory data) public pure returns (bytes4, bytes memory) {\n        uint8 splitAt = 4;                             // all (if variable split, pass in splitAt)\n        uint256 taillength = 0;\n        if (data.length > splitAt)\n            taillength = data.length-splitAt;\n        bytes4 temp;\n        // bytes4 head;                                   // 4b split\n        bytes memory head = new bytes(splitAt);         // variable length split\n        bytes memory tail = new bytes(taillength);\n        for(uint i=0;i<=data.length-1;i++){\n            if (i<splitAt)\n                head[i] = bytes(data)[i] ;\n            else\n                tail[i-splitAt] = bytes(data)[i] ;\n        }\n        return (bytesToBytes4(head), tail);\n    }\n\n    function bytesSplit32(bytes memory data) public pure returns (bytes32, bytes memory) {\n        uint8 splitAt = 32;                             // all (if variable split, pass in splitAt)\n        uint256 taillength = 0;\n        if (data.length > splitAt)\n            taillength = data.length-splitAt;\n        bytes32 temp;\n        // bytes32 head;                                   // 32b split\n        bytes memory head = new bytes(splitAt);         // variable length split\n        bytes memory tail = new bytes(taillength);\n        for(uint i=0;i<=data.length-1;i++){\n            if (i<splitAt)\n                head[i] = bytes(data)[i] ;\n            else\n                tail[i-splitAt] = bytes(data)[i] ;\n        }\n        return (bytesToBytes32(head), tail);\n    }\n\n\n    function encodeFunctionName (string memory name) public pure returns (bytes4) {\n        // TODO: cache for readability!\n        // if (\"serialiseStakers\")\n        //     return\n        // if (\"serialiseStakers\")\n        //     return\n        return bytes4(keccak256(bytes(name)));\n    }\n\n    // temporary functionality to repoint to simple example, eg splitToAddresses\n    function unpackData (string memory packed) internal pure returns (bytes32[] memory result) {\n        //NB relying on splitToAddresses doing string splitting here, as we rely on .length - available only on fixed size array.\n        address[] memory asAddresses = splitToAddresses(packed.toSlice()) ;\n        uint8 i = uint8(asAddresses.length) ;\n\n        while (i-- > 0) {\n            result[i] = bytes32(bytes20(asAddresses[i]));\n        }\n        return result;\n\n\n    }\n\n    function storeResult(bytes32 poll32, bytes4 fnNameHash, bytes32 data, uint8 vt)  public {\n        uint256 notesToStore = 10000+vt;\n        if (vt == 1) {\n\n            bytes32 hash = keccak256(abi.encodePacked(poll32, fnNameHash, vt));\n\n            dataCache[hash] = unpackData(bytes32ToString(data));\n            notesToStore=260;\n        }\n        notes += notesToStore;\n    }\n\n    function serialiseStakers(string memory _poll, uint8 validationType) public view returns (string memory) {\n        string memory result = \"Result! - from poll.serialiseStakers\";\n        return result;\n    }\n\n    function serialiseProofs(string memory _poll, uint8 validationType) public view returns (string memory) {\n        string memory result = \"Result! - from poll.serialiseProofs\";\n    }\n\n    function validate(address _pollContract, string memory _poll, bytes32 _reveal) public payable returns (bool success) {\n    }\n\n        // calls fallback function of contract at validatorAddress, passing 4 byte encoded function name to it to select method.\n    // NB in sol 0.6 + fallback cannot return anything\n    // NB future optimisation : we are not using the functionality of string here, since string must have come from a bytes32\n    event CrossContractValidateBegin();\n    event CrossContractValidateEnd();\n    function crossContractValidateCall (address _validator, bytes4 fnNameHash, string memory poll, uint8 vt, bytes32[] memory reveal)  public returns (bytes32[] memory) {\n        address validator = _validator;\n\n        uint8 offset = 32;\n        // NB 32b offset as space for validator contract address! (assumes no tight packing in calldata)\n        // TODO: this will need to be chucked at the other end, unless you want to do the subtraction in assembly :/\n\n        emit CrossContractValidateBegin();\n        assembly {\n            let ptr := mload(0x40)\n            calldatacopy(ptr, 0, calldatasize)\n            let result := delegatecall(gas, validator, ptr, calldatasize, 0, 0)\n            let size := returndatasize\n            returndatacopy(ptr, 0, size)\n            switch result\n            case 0 { revert(ptr, size) }\n            default { return(ptr, size) }\n        }\n        emit CrossContractValidateEnd();\n    }\n\n    event CrossContractValidateReturned(bool);\n    function callValidator_MututalAgreement(string memory _poll, string memory data) public returns (bool) {\n        uint8 vType = 1;\n        assert (stringsEqual(validatorNames[vType], \"Mutual Agreement\"));\n        bytes32[] memory empty;\n\n        // reveal parameter is unused in mutual agreement\n        validate(validators[vType], _poll, bytes32(0) );\n        crossContractValidateCall(validators[vType], encodeFunctionName(\"validate\") , _poll, vType, empty );\n        //TODO: get return value!\n\n        emit CrossContractValidateReturned(false);\n\n\n    }\n}\n",
  "sourcePath": "/home/teide/randomCode/truffletings/proxyBox/contracts/Poll.sol",
  "compiler": {
    "name": "solc",
    "version": "0.5.16+commit.9c3226ce.Emscripten.clang"
  },
  "schemaVersion": "3.2.0",
  "updatedAt": "2020-06-04T14:03:44.613Z",
  "networkType": "ethereum",
  "devdoc": {
    "methods": {}
  },
  "userdoc": {
    "methods": {}
  }
}