{
  "contractName": "Poll",
  "abi": [
    {
      "inputs": [],
      "payable": false,
      "stateMutability": "nonpayable",
      "type": "constructor"
    },
    {
      "anonymous": false,
      "inputs": [],
      "name": "CrossContractValidateBegin",
      "type": "event"
    },
    {
      "anonymous": false,
      "inputs": [],
      "name": "CrossContractValidateEnd",
      "type": "event"
    },
    {
      "anonymous": false,
      "inputs": [
        {
          "indexed": false,
          "internalType": "bool",
          "name": "",
          "type": "bool"
        }
      ],
      "name": "CrossContractValidateReturned",
      "type": "event"
    },
    {
      "payable": true,
      "stateMutability": "payable",
      "type": "fallback"
    },
    {
      "constant": true,
      "inputs": [
        {
          "internalType": "uint8",
          "name": "",
          "type": "uint8"
        }
      ],
      "name": "validatorNames",
      "outputs": [
        {
          "internalType": "string",
          "name": "",
          "type": "string"
        }
      ],
      "payable": false,
      "stateMutability": "view",
      "type": "function"
    },
    {
      "constant": true,
      "inputs": [
        {
          "internalType": "uint8",
          "name": "",
          "type": "uint8"
        }
      ],
      "name": "validators",
      "outputs": [
        {
          "internalType": "address",
          "name": "",
          "type": "address"
        }
      ],
      "payable": false,
      "stateMutability": "view",
      "type": "function"
    },
    {
      "constant": true,
      "inputs": [],
      "name": "getOwner",
      "outputs": [
        {
          "internalType": "address",
          "name": "",
          "type": "address"
        }
      ],
      "payable": false,
      "stateMutability": "view",
      "type": "function"
    },
    {
      "constant": true,
      "inputs": [
        {
          "internalType": "string",
          "name": "_poll",
          "type": "string"
        },
        {
          "internalType": "string",
          "name": "_fnName",
          "type": "string"
        },
        {
          "internalType": "uint8",
          "name": "_vt",
          "type": "uint8"
        }
      ],
      "name": "retrieve",
      "outputs": [
        {
          "internalType": "bytes32[]",
          "name": "",
          "type": "bytes32[]"
        }
      ],
      "payable": false,
      "stateMutability": "view",
      "type": "function"
    },
    {
      "constant": false,
      "inputs": [
        {
          "internalType": "string",
          "name": "_poll",
          "type": "string"
        },
        {
          "internalType": "string",
          "name": "_fnName",
          "type": "string"
        },
        {
          "internalType": "uint8",
          "name": "_vt",
          "type": "uint8"
        },
        {
          "internalType": "bytes32[]",
          "name": "data",
          "type": "bytes32[]"
        }
      ],
      "name": "set",
      "outputs": [],
      "payable": false,
      "stateMutability": "nonpayable",
      "type": "function"
    },
    {
      "constant": true,
      "inputs": [
        {
          "internalType": "string",
          "name": "source",
          "type": "string"
        }
      ],
      "name": "string32ToBytes32",
      "outputs": [
        {
          "internalType": "bytes32",
          "name": "result",
          "type": "bytes32"
        }
      ],
      "payable": false,
      "stateMutability": "pure",
      "type": "function"
    },
    {
      "constant": true,
      "inputs": [
        {
          "internalType": "bytes",
          "name": "b",
          "type": "bytes"
        }
      ],
      "name": "bytesToBytes4",
      "outputs": [
        {
          "internalType": "bytes4",
          "name": "bts",
          "type": "bytes4"
        }
      ],
      "payable": false,
      "stateMutability": "pure",
      "type": "function"
    },
    {
      "constant": true,
      "inputs": [
        {
          "internalType": "bytes",
          "name": "b",
          "type": "bytes"
        }
      ],
      "name": "bytesToBytes32",
      "outputs": [
        {
          "internalType": "bytes32",
          "name": "bts",
          "type": "bytes32"
        }
      ],
      "payable": false,
      "stateMutability": "pure",
      "type": "function"
    },
    {
      "constant": true,
      "inputs": [
        {
          "internalType": "bytes32",
          "name": "_bytes32",
          "type": "bytes32"
        }
      ],
      "name": "bytes32ToBytes",
      "outputs": [
        {
          "internalType": "bytes",
          "name": "",
          "type": "bytes"
        }
      ],
      "payable": false,
      "stateMutability": "pure",
      "type": "function"
    },
    {
      "constant": true,
      "inputs": [
        {
          "internalType": "bytes32",
          "name": "_bytes32",
          "type": "bytes32"
        }
      ],
      "name": "bytes32ToString",
      "outputs": [
        {
          "internalType": "string",
          "name": "",
          "type": "string"
        }
      ],
      "payable": false,
      "stateMutability": "pure",
      "type": "function"
    },
    {
      "constant": true,
      "inputs": [
        {
          "internalType": "bytes",
          "name": "data",
          "type": "bytes"
        }
      ],
      "name": "bytesSplit4",
      "outputs": [
        {
          "internalType": "bytes4",
          "name": "",
          "type": "bytes4"
        },
        {
          "internalType": "bytes",
          "name": "",
          "type": "bytes"
        }
      ],
      "payable": false,
      "stateMutability": "pure",
      "type": "function"
    },
    {
      "constant": true,
      "inputs": [
        {
          "internalType": "bytes",
          "name": "data",
          "type": "bytes"
        }
      ],
      "name": "bytesSplit32",
      "outputs": [
        {
          "internalType": "bytes32",
          "name": "",
          "type": "bytes32"
        },
        {
          "internalType": "bytes",
          "name": "",
          "type": "bytes"
        }
      ],
      "payable": false,
      "stateMutability": "pure",
      "type": "function"
    },
    {
      "constant": true,
      "inputs": [
        {
          "internalType": "string",
          "name": "name",
          "type": "string"
        }
      ],
      "name": "encodeFunctionName",
      "outputs": [
        {
          "internalType": "bytes4",
          "name": "",
          "type": "bytes4"
        }
      ],
      "payable": false,
      "stateMutability": "pure",
      "type": "function"
    },
    {
      "constant": false,
      "inputs": [
        {
          "internalType": "bytes32",
          "name": "poll32",
          "type": "bytes32"
        },
        {
          "internalType": "bytes4",
          "name": "fnNameHash",
          "type": "bytes4"
        },
        {
          "internalType": "bytes32",
          "name": "data",
          "type": "bytes32"
        },
        {
          "internalType": "uint8",
          "name": "vt",
          "type": "uint8"
        }
      ],
      "name": "storeResult",
      "outputs": [],
      "payable": false,
      "stateMutability": "nonpayable",
      "type": "function"
    },
    {
      "constant": true,
      "inputs": [
        {
          "internalType": "string",
          "name": "_poll",
          "type": "string"
        },
        {
          "internalType": "uint8",
          "name": "validationType",
          "type": "uint8"
        }
      ],
      "name": "serialiseStakers",
      "outputs": [
        {
          "internalType": "string",
          "name": "",
          "type": "string"
        }
      ],
      "payable": false,
      "stateMutability": "view",
      "type": "function"
    },
    {
      "constant": true,
      "inputs": [
        {
          "internalType": "string",
          "name": "_poll",
          "type": "string"
        },
        {
          "internalType": "uint8",
          "name": "validationType",
          "type": "uint8"
        }
      ],
      "name": "serialiseProofs",
      "outputs": [
        {
          "internalType": "string",
          "name": "",
          "type": "string"
        }
      ],
      "payable": false,
      "stateMutability": "view",
      "type": "function"
    },
    {
      "constant": false,
      "inputs": [
        {
          "internalType": "address",
          "name": "_pollContract",
          "type": "address"
        },
        {
          "internalType": "string",
          "name": "_poll",
          "type": "string"
        },
        {
          "internalType": "bytes32",
          "name": "_reveal",
          "type": "bytes32"
        }
      ],
      "name": "validate",
      "outputs": [
        {
          "internalType": "bool",
          "name": "success",
          "type": "bool"
        }
      ],
      "payable": true,
      "stateMutability": "payable",
      "type": "function"
    },
    {
      "constant": false,
      "inputs": [
        {
          "internalType": "address",
          "name": "_validator",
          "type": "address"
        },
        {
          "internalType": "bytes4",
          "name": "fnNameHash",
          "type": "bytes4"
        },
        {
          "internalType": "string",
          "name": "poll",
          "type": "string"
        },
        {
          "internalType": "uint8",
          "name": "vt",
          "type": "uint8"
        },
        {
          "internalType": "bytes32[]",
          "name": "reveal",
          "type": "bytes32[]"
        }
      ],
      "name": "crossContractValidateCall",
      "outputs": [
        {
          "internalType": "bytes32[]",
          "name": "",
          "type": "bytes32[]"
        }
      ],
      "payable": false,
      "stateMutability": "nonpayable",
      "type": "function"
    },
    {
      "constant": false,
      "inputs": [
        {
          "internalType": "string",
          "name": "_poll",
          "type": "string"
        },
        {
          "internalType": "string",
          "name": "data",
          "type": "string"
        }
      ],
      "name": "callValidator_MututalAgreement",
      "outputs": [
        {
          "internalType": "bool",
          "name": "",
          "type": "bool"
        }
      ],
      "payable": false,
      "stateMutability": "nonpayable",
      "type": "function"
    }
  ],
  "bytecode": "0x608060405260016003557fffffffffffffffffffffffffffffffffffffffffffffffffffffffffffffffff600460006101000a81548160ff021916908360000b60ff1602179055503480156200005457600080fd5b5073a145493cc19b0bc6c5a2ca86e9ba38bb435e3f5b60056000600160ff16815260200190815260200160002060006101000a81548173ffffffffffffffffffffffffffffffffffffffff021916908373ffffffffffffffffffffffffffffffffffffffff1602179055506040518060400160405280601081526020017f4d757475616c2041677265656d656e740000000000000000000000000000000081525060066000600160ff16815260200190815260200160002090805190602001906200012192919062000188565b5030600760006101000a81548173ffffffffffffffffffffffffffffffffffffffff021916908373ffffffffffffffffffffffffffffffffffffffff1602179055506001600460006101000a81548160ff021916908360000b60ff16021790555062000237565b828054600181600116156101000203166002900490600052602060002090601f016020900481019282601f10620001cb57805160ff1916838001178555620001fc565b82800160010185558215620001fc579182015b82811115620001fb578251825591602001919060010190620001de565b5b5090506200020b91906200020f565b5090565b6200023491905b808211156200023057600081600090555060010162000216565b5090565b90565b612b9680620002476000396000f3fe6080604052600436106101145760003560e01c80638a9392c0116100a0578063965457ba11610064578063965457ba14611165578063bfe370d9146111e3578063c1c09847146112bf578063d122491a146114c6578063e381047d1461168757610114565b80638a9392c014610c6c5780638d894b2814610d695780638ee879c714610ee05780639201de5514610f9757806394c6f3b11461104b57610114565b80634c0999c7116100e75780634c0999c7146106f957806356024939146107ad5780635e3e225f146108fb57806383c7f14c14610afb578063893d20e814610c1557610114565b806306efc69c1461030c57806313311a1c1461038757806326a9cdf7146104d557806329eece6f1461061d575b60606000368080601f016020809104026020016040519081016040528093929190818152602001838380828437600081840152601f19601f8201169050808301925050505050505090506000606060008060606101708661180d565b809550819450505061018184611998565b809550819650505061019284611998565b80925081935050506101d86040518060400160405280601081526020017f73657269616c6973655374616b65727300000000000000000000000000000000815250611b23565b7bffffffffffffffffffffffffffffffffffffffffffffffffffffffff1916837bffffffffffffffffffffffffffffffffffffffffffffffffffffffff191614156102425761023f61023a61022c87611b34565b61023584611b4b565b611bd9565b611c01565b91505b6102806040518060400160405280600f81526020017f73657269616c69736550726f6f66730000000000000000000000000000000000815250611b23565b7bffffffffffffffffffffffffffffffffffffffffffffffffffffffff1916837bffffffffffffffffffffffffffffffffffffffffffffffffffffffff191614156102ea576102e76102e26102d487611b34565b6102dd84611b4b565b611c0f565b611c01565b91505b6102fe8584846102f985611b4b565b611c34565b610100604051605881538181f35b34801561031857600080fd5b506103856004803603608081101561032f57600080fd5b810190808035906020019092919080357bffffffffffffffffffffffffffffffffffffffffffffffffffffffff1916906020019092919080359060200190929190803560ff169060200190929190505050611c34565b005b34801561039357600080fd5b5061045a600480360360408110156103aa57600080fd5b81019080803590602001906401000000008111156103c757600080fd5b8201836020820111156103d957600080fd5b803590602001918460018302840111640100000000831117156103fb57600080fd5b91908080601f016020809104026020016040519081016040528093929190818152602001838380828437600081840152601f19601f820116905080830192505050505050509192919290803560ff169060200190929190505050611c0f565b6040518080602001828103825283818151815260200191508051906020019080838360005b8381101561049a57808201518184015260208101905061047f565b50505050905090810190601f1680156104c75780820380516001836020036101000a031916815260200191505b509250505060405180910390f35b3480156104e157600080fd5b5061059b600480360360208110156104f857600080fd5b810190808035906020019064010000000081111561051557600080fd5b82018360208201111561052757600080fd5b8035906020019184600183028401116401000000008311171561054957600080fd5b91908080601f016020809104026020016040519081016040528093929190818152602001838380828437600081840152601f19601f820116905080830192505050505050509192919290505050611998565b6040518083815260200180602001828103825283818151815260200191508051906020019080838360005b838110156105e15780820151818401526020810190506105c6565b50505050905090810190601f16801561060e5780820380516001836020036101000a031916815260200191505b50935050505060405180910390f35b34801561062957600080fd5b506106e36004803603602081101561064057600080fd5b810190808035906020019064010000000081111561065d57600080fd5b82018360208201111561066f57600080fd5b8035906020019184600183028401116401000000008311171561069157600080fd5b91908080601f016020809104026020016040519081016040528093929190818152602001838380828437600081840152601f19601f820116905080830192505050505050509192919290505050611c01565b6040518082815260200191505060405180910390f35b34801561070557600080fd5b506107326004803603602081101561071c57600080fd5b8101908080359060200190929190505050611d28565b6040518080602001828103825283818151815260200191508051906020019080838360005b83811015610772578082015181840152602081019050610757565b50505050905090810190601f16801561079f5780820380516001836020036101000a031916815260200191505b509250505060405180910390f35b3480156107b957600080fd5b50610880600480360360408110156107d057600080fd5b81019080803590602001906401000000008111156107ed57600080fd5b8201836020820111156107ff57600080fd5b8035906020019184600183028401116401000000008311171561082157600080fd5b91908080601f016020809104026020016040519081016040528093929190818152602001838380828437600081840152601f19601f820116905080830192505050505050509192919290803560ff169060200190929190505050611bd9565b6040518080602001828103825283818151815260200191508051906020019080838360005b838110156108c05780820151818401526020810190506108a5565b50505050905090810190601f1680156108ed5780820380516001836020036101000a031916815260200191505b509250505060405180910390f35b34801561090757600080fd5b50610af96004803603608081101561091e57600080fd5b810190808035906020019064010000000081111561093b57600080fd5b82018360208201111561094d57600080fd5b8035906020019184600183028401116401000000008311171561096f57600080fd5b91908080601f016020809104026020016040519081016040528093929190818152602001838380828437600081840152601f19601f820116905080830192505050505050509192919290803590602001906401000000008111156109d257600080fd5b8201836020820111156109e457600080fd5b80359060200191846001830284011164010000000083111715610a0657600080fd5b91908080601f016020809104026020016040519081016040528093929190818152602001838380828437600081840152601f19601f820116905080830192505050505050509192919290803560ff16906020019092919080359060200190640100000000811115610a7657600080fd5b820183602082011115610a8857600080fd5b80359060200191846020830284011164010000000083111715610aaa57600080fd5b919080806020026020016040519081016040528093929190818152602001838360200280828437600081840152601f19601f820116905080830192505050505050509192919290505050611dd0565b005b348015610b0757600080fd5b50610bc160048036036020811015610b1e57600080fd5b8101908080359060200190640100000000811115610b3b57600080fd5b820183602082011115610b4d57600080fd5b80359060200191846001830284011164010000000083111715610b6f57600080fd5b91908080601f016020809104026020016040519081016040528093929190818152602001838380828437600081840152601f19601f820116905080830192505050505050509192919290505050611ed4565b60405180827bffffffffffffffffffffffffffffffffffffffffffffffffffffffff19167bffffffffffffffffffffffffffffffffffffffffffffffffffffffff1916815260200191505060405180910390f35b348015610c2157600080fd5b50610c2a611ef1565b604051808273ffffffffffffffffffffffffffffffffffffffff1673ffffffffffffffffffffffffffffffffffffffff16815260200191505060405180910390f35b610d4f60048036036060811015610c8257600080fd5b81019080803573ffffffffffffffffffffffffffffffffffffffff16906020019092919080359060200190640100000000811115610cbf57600080fd5b820183602082011115610cd157600080fd5b80359060200191846001830284011164010000000083111715610cf357600080fd5b91908080601f016020809104026020016040519081016040528093929190818152602001838380828437600081840152601f19601f82011690508083019250505050505050919291929080359060200190929190505050611f1a565b604051808215151515815260200191505060405180910390f35b348015610d7557600080fd5b50610ec660048036036040811015610d8c57600080fd5b8101908080359060200190640100000000811115610da957600080fd5b820183602082011115610dbb57600080fd5b80359060200191846001830284011164010000000083111715610ddd57600080fd5b91908080601f016020809104026020016040519081016040528093929190818152602001838380828437600081840152601f19601f82011690508083019250505050505050919291929080359060200190640100000000811115610e4057600080fd5b820183602082011115610e5257600080fd5b80359060200191846001830284011164010000000083111715610e7457600080fd5b91908080601f016020809104026020016040519081016040528093929190818152602001838380828437600081840152601f19601f820116905080830192505050505050509192919290505050611f23565b604051808215151515815260200191505060405180910390f35b348015610eec57600080fd5b50610f1c60048036036020811015610f0357600080fd5b81019080803560ff169060200190929190505050612132565b6040518080602001828103825283818151815260200191508051906020019080838360005b83811015610f5c578082015181840152602081019050610f41565b50505050905090810190601f168015610f895780820380516001836020036101000a031916815260200191505b509250505060405180910390f35b348015610fa357600080fd5b50610fd060048036036020811015610fba57600080fd5b8101908080359060200190929190505050611b34565b6040518080602001828103825283818151815260200191508051906020019080838360005b83811015611010578082015181840152602081019050610ff5565b50505050905090810190601f16801561103d5780820380516001836020036101000a031916815260200191505b509250505060405180910390f35b34801561105757600080fd5b506111116004803603602081101561106e57600080fd5b810190808035906020019064010000000081111561108b57600080fd5b82018360208201111561109d57600080fd5b803590602001918460018302840111640100000000831117156110bf57600080fd5b91908080601f016020809104026020016040519081016040528093929190818152602001838380828437600081840152601f19601f820116905080830192505050505050509192919290505050611b23565b60405180827bffffffffffffffffffffffffffffffffffffffffffffffffffffffff19167bffffffffffffffffffffffffffffffffffffffffffffffffffffffff1916815260200191505060405180910390f35b34801561117157600080fd5b506111a16004803603602081101561118857600080fd5b81019080803560ff1690602001909291905050506121e2565b604051808273ffffffffffffffffffffffffffffffffffffffff1673ffffffffffffffffffffffffffffffffffffffff16815260200191505060405180910390f35b3480156111ef57600080fd5b506112a96004803603602081101561120657600080fd5b810190808035906020019064010000000081111561122357600080fd5b82018360208201111561123557600080fd5b8035906020019184600183028401116401000000008311171561125757600080fd5b91908080601f016020809104026020016040519081016040528093929190818152602001838380828437600081840152601f19601f820116905080830192505050505050509192919290505050612215565b6040518082815260200191505060405180910390f35b3480156112cb57600080fd5b5061146f600480360360a08110156112e257600080fd5b81019080803573ffffffffffffffffffffffffffffffffffffffff16906020019092919080357bffffffffffffffffffffffffffffffffffffffffffffffffffffffff191690602001909291908035906020019064010000000081111561134857600080fd5b82018360208201111561135a57600080fd5b8035906020019184600183028401116401000000008311171561137c57600080fd5b91908080601f016020809104026020016040519081016040528093929190818152602001838380828437600081840152601f19601f820116905080830192505050505050509192919290803560ff169060200190929190803590602001906401000000008111156113ec57600080fd5b8201836020820111156113fe57600080fd5b8035906020019184602083028401116401000000008311171561142057600080fd5b919080806020026020016040519081016040528093929190818152602001838360200280828437600081840152601f19601f820116905080830192505050505050509192919290505050612228565b6040518080602001828103825283818151815260200191508051906020019060200280838360005b838110156114b2578082015181840152602081019050611497565b505050509050019250505060405180910390f35b3480156114d257600080fd5b50611630600480360360608110156114e957600080fd5b810190808035906020019064010000000081111561150657600080fd5b82018360208201111561151857600080fd5b8035906020019184600183028401116401000000008311171561153a57600080fd5b91908080601f016020809104026020016040519081016040528093929190818152602001838380828437600081840152601f19601f8201169050808301925050505050505091929192908035906020019064010000000081111561159d57600080fd5b8201836020820111156115af57600080fd5b803590602001918460018302840111640100000000831117156115d157600080fd5b91908080601f016020809104026020016040519081016040528093929190818152602001838380828437600081840152601f19601f820116905080830192505050505050509192919290803560ff169060200190929190505050612288565b6040518080602001828103825283818151815260200191508051906020019060200280838360005b83811015611673578082015181840152602081019050611658565b505050509050019250505060405180910390f35b34801561169357600080fd5b5061174d600480360360208110156116aa57600080fd5b81019080803590602001906401000000008111156116c757600080fd5b8201836020820111156116d957600080fd5b803590602001918460018302840111640100000000831117156116fb57600080fd5b91908080601f016020809104026020016040519081016040528093929190818152602001838380828437600081840152601f19601f82011690508083019250505050505050919291929050505061180d565b60405180837bffffffffffffffffffffffffffffffffffffffffffffffffffffffff19167bffffffffffffffffffffffffffffffffffffffffffffffffffffffff1916815260200180602001828103825283818151815260200191508051906020019080838360005b838110156117d15780820151818401526020810190506117b6565b50505050905090810190601f1680156117fe5780820380516001836020036101000a031916815260200191505b50935050505060405180910390f35b6000606060006004905060008090508160ff1685511115611832578160ff1685510390505b600060608360ff166040519080825280601f01601f19166020018201604052801561186c5781602001600182028038833980820191505090505b5090506060836040519080825280601f01601f1916602001820160405280156118a45781602001600182028038833980820191505090505b50905060008090505b6001895103811161197f578560ff1681101561191a578881815181106118cf57fe5b602001015160f81c60f81b8382815181106118e657fe5b60200101907effffffffffffffffffffffffffffffffffffffffffffffffffffffffffffff1916908160001a905350611972565b88818151811061192657fe5b602001015160f81c60f81b828760ff1683038151811061194257fe5b60200101907effffffffffffffffffffffffffffffffffffffffffffffffffffffffffffff1916908160001a9053505b80806001019150506118ad565b5061198982611ed4565b81965096505050505050915091565b6000606060006020905060008090508160ff16855111156119bd578160ff1685510390505b600060608360ff166040519080825280601f01601f1916602001820160405280156119f75781602001600182028038833980820191505090505b5090506060836040519080825280601f01601f191660200182016040528015611a2f5781602001600182028038833980820191505090505b50905060008090505b60018951038111611b0a578560ff16811015611aa557888181518110611a5a57fe5b602001015160f81c60f81b838281518110611a7157fe5b60200101907effffffffffffffffffffffffffffffffffffffffffffffffffffffffffffff1916908160001a905350611afd565b888181518110611ab157fe5b602001015160f81c60f81b828760ff16830381518110611acd57fe5b60200101907effffffffffffffffffffffffffffffffffffffffffffffffffffffffffffff1916908160001a9053505b8080600101915050611a38565b50611b1482612215565b81965096505050505050915091565b600081805190602001209050919050565b606080611b4083611d28565b905080915050919050565b6000600182511015611bc5576040517f08c379a00000000000000000000000000000000000000000000000000000000081526004018080602001828103825260128152602001807f52656164206f7574206f6620626f756e6473000000000000000000000000000081525060200191505060405180910390fd5b600080600184010151905080915050919050565b606080604051806060016040528060248152602001612b3e6024913990508091505092915050565b600060208201519050919050565b606080604051806060016040528060238152602001612b1b6023913990505092915050565b60008160ff166127100161ffff16905060018260ff161415611d1157600085858460405160200180848152602001837bffffffffffffffffffffffffffffffffffffffffffffffffffffffff19167bffffffffffffffffffffffffffffffffffffffffffffffffffffffff191681526004018260ff1660ff1660f81b81526001019350505050604051602081830303815290604052805190602001209050611ce3611cde85611b34565b6123cb565b600160008381526020019081526020016000209080519060200190611d09929190612a8e565b506101049150505b806003600082825401925050819055505050505050565b60608060206040519080825280601f01601f191660200182016040528015611d5f5781602001600182028038833980820191505090505b50905060005b6020811015611dc657838160208110611d7a57fe5b1a60f81b828281518110611d8a57fe5b60200101907effffffffffffffffffffffffffffffffffffffffffffffffffffffffffffff1916908160001a9053508080600101915050611d65565b5080915050919050565b600084611ddc85611b23565b846040516020018084805190602001908083835b60208310611e135780518252602082019150602081019050602083039250611df0565b6001836020036101000a038019825116818451168082178552505050505050905001837bffffffffffffffffffffffffffffffffffffffffffffffffffffffff19167bffffffffffffffffffffffffffffffffffffffffffffffffffffffff191681526004018260ff1660ff1660f81b8152600101935050505060405160208183030381529060405280519060200120905081600160008381526020019081526020016000209080519060200190611ecc929190612a8e565b505050505050565b600080635050505060e01b90506020830151905080915050919050565b60008060009054906101000a900473ffffffffffffffffffffffffffffffffffffffff16905090565b60009392505050565b6000806001905061201a600660008360ff1660ff1681526020019081526020016000208054600181600116156101000203166002900480601f016020809104026020016040519081016040528092919081815260200182805460018160011615610100020316600290048015611fda5780601f10611faf57610100808354040283529160200191611fda565b820191906000526020600020905b815481529060010190602001808311611fbd57829003601f168201915b50505050506040518060400160405280601081526020017f4d757475616c2041677265656d656e740000000000000000000000000000000081525061244e565b61202057fe5b6060612069600560008460ff1660ff16815260200190815260200160002060009054906101000a900473ffffffffffffffffffffffffffffffffffffffff16866000801b611f1a565b506120ed600560008460ff1660ff16815260200190815260200160002060009054906101000a900473ffffffffffffffffffffffffffffffffffffffff166120e56040518060400160405280600881526020017f76616c6964617465000000000000000000000000000000000000000000000000815250611b23565b878585612228565b507fd65038c0be209d4ae257f7e73a69b8b787796717cd2ce67d00d7e02c9de1020e6000604051808215151515815260200191505060405180910390a1505092915050565b60066020528060005260406000206000915090508054600181600116156101000203166002900480601f0160208091040260200160405190810160405280929190818152602001828054600181600116156101000203166002900480156121da5780601f106121af576101008083540402835291602001916121da565b820191906000526020600020905b8154815290600101906020018083116121bd57829003601f168201915b505050505081565b60056020528060005260406000206000915054906101000a900473ffffffffffffffffffffffffffffffffffffffff1681565b6000806020830151905080915050919050565b606060008690506000602090507f1ff50e4650f7f1e5b26a5f5e921b803deee4a95a1b6ef46e05992b3bc1dcdb8c60405160405180910390a160405136600082376000803683865af43d806000843e8160008114612284578184f35b8184fd5b606060008461229685611b23565b846040516020018084805190602001908083835b602083106122cd57805182526020820191506020810190506020830392506122aa565b6001836020036101000a038019825116818451168082178552505050505050905001837bffffffffffffffffffffffffffffffffffffffffffffffffffffffff19167bffffffffffffffffffffffffffffffffffffffffffffffffffffffff191681526004018260ff1660ff1660f81b81526001019350505050604051602081830303815290604052805190602001209050600160008281526020019081526020016000208054806020026020016040519081016040528092919081815260200182805480156123bc57602002820191906000526020600020905b8154815260200190600101908083116123a8575b50505050509150509392505050565b6060806123df6123da8461251b565b612549565b90506000815190505b6000818060019003925060ff16111561244457818160ff168151811061240a57fe5b602002602001015160601b6bffffffffffffffffffffffff1916838260ff168151811061243357fe5b6020026020010181815250506123e8565b8292505050919050565b600060608390506060839050805182511461246e57600092505050612515565b60008090505b825181101561250d5781818151811061248957fe5b602001015160f81c60f81b7effffffffffffffffffffffffffffffffffffffffffffffffffffffffffffff19168382815181106124c257fe5b602001015160f81c60f81b7effffffffffffffffffffffffffffffffffffffffffffffffffffffffffffff1916146125005760009350505050612515565b8080600101915050612474565b506001925050505b92915050565b612523612adb565b600060208301905060405180604001604052808451815260200182815250915050919050565b6060612553612adb565b6125916040518060400160405280600181526020017f2c0000000000000000000000000000000000000000000000000000000000000081525061251b565b905060606125a8828561266990919063ffffffff16565b6040519080825280602002602001820160405280156125d65781602001602082028038833980820191505090505b50905060008090505b815181101561265e5761260b61260661260185886126de90919063ffffffff16565b6126f8565b61275a565b82828151811061261757fe5b602002602001019073ffffffffffffffffffffffffffffffffffffffff16908173ffffffffffffffffffffffffffffffffffffffff168152505080806001019150506125df565b508092505050919050565b600080826000015161268d85600001518660200151866000015187602001516128cc565b0190505b836000015184602001510181116126d757818060010192505082600001516126cf8560200151830386600001510383866000015187602001516128cc565b019050612691565b5092915050565b6126e6612adb565b6126f18383836129a7565b5092915050565b60608082600001516040519080825280601f01601f1916602001820160405280156127325781602001600182028038833980820191505090505b50905060006020820190506127508185602001518660000151612a45565b8192505050919050565b6000606082905060008090506000806000600290505b602a8110156128bf576101008402935084818151811061278c57fe5b602001015160f81c60f81b60f81c92508460018201815181106127ab57fe5b602001015160f81c60f81b60f81c915060618360ff16101580156127d3575060668360ff1611155b156127e357605783039250612831565b60308360ff16101580156127fb575060398360ff1611155b1561280b57603083039250612830565b60418360ff1610158015612823575060468360ff1611155b1561282f576037830392505b5b5b60618260ff1610158015612849575060668260ff1611155b15612859576057820391506128a7565b60308260ff1610158015612871575060398260ff1611155b15612881576030820391506128a6565b60418260ff1610158015612899575060468260ff1611155b156128a5576037820391505b5b5b81601084020160ff1684019350600281019050612770565b5082945050505050919050565b6000808490506000868511612997576020851161295157600060018660200360080260020a031960001b905060008186511690506000878a8a0103905060008386511690505b82811461294357818610612930578a8a01965050505050505061299f565b8580600101965050838651169050612912565b85965050505050505061299f565b60008585209050600091505b8588038211612995576000868420905080821415612981578394505050505061299f565b60018401935050818060010192505061295d565b505b868601925050505b949350505050565b6129af612adb565b60006129cd85600001518660200151866000015187602001516128cc565b90508460200151836020018181525050846020015181038360000181815250508460000151856020015101811415612a0f576000856000018181525050612a3a565b8360000151836000015101856000018181510391508181525050836000015181018560200181815250505b829150509392505050565b5b60208110612a695781518352602083019250602082019150602081039050612a46565b60006001826020036101000a0390508019835116818551168181178652505050505050565b828054828255906000526020600020908101928215612aca579160200282015b82811115612ac9578251825591602001919060010190612aae565b5b509050612ad79190612af5565b5090565b604051806040016040528060008152602001600081525090565b612b1791905b80821115612b13576000816000905550600101612afb565b5090565b9056fe526573756c7421202d2066726f6d20706f6c6c2e73657269616c69736550726f6f6673526573756c7421202d2066726f6d20706f6c6c2e73657269616c6973655374616b657273a265627a7a7231582075fa439d7de2bab7b8ab23c737659d5604e08213793f572447e5008d21da8b7e64736f6c63430005100032",
  "source": "pragma solidity ^0.5.0;\n\nimport \"./strings.sol\";\n// import \"github.com/GNSPS/solidity-bytes-utils/contracts/BytesLib.sol\";   // requires sol 0.5+\nimport \"./stringCasting.sol\";\n\ncontract Poll {\n    address owner;  // is set by TokenStorage;\n\n    // allTheData must occupy the same slot as in Poll contract, ie second slot, slot 1.\n    mapping (bytes32 => bytes32[]) allTheData;\n    // resultsCache must occupy the same slot as in Poll contract, ie fourth slot, slot 3.\n    mapping (bytes32 => bool) resultsCache;\n    uint256 notes = 1;\n    int8 constructed = -1;\n\n    using strings for *;\n    using stringcast for string;\n\n\n\n    mapping(uint8 => address) public validators;\n    mapping(uint8 => string) public validatorNames;\n    address selfAddy ;\n\n    constructor () public /* is PollCommunity */ {\n        validators[1] = address(0xA145493CC19b0BC6C5a2cA86e9BA38BB435E3F5b);\n        validatorNames[1] = \"Mutual Agreement\";\n        selfAddy = address(this);\n        constructed = 1;\n    }\n\n\n    // function getPollOK() public view returns (uint8) {\n    //   return ok;\n    // }\n    //\n    // function setPollOK (uint8 _ok) public {\n    //   ok = _ok;\n    // }\n    //\n    // function getPollResult() public view returns (uint8) {\n    //   return result;\n    // }\n    //\n    // function setPollResult (uint8 _result) public {\n    //   result = _result;\n    // }\n    //\n    // function getMyMap(uint idx) public view returns (uint) {\n    //   return myMap[idx];\n    // }\n    //\n    // function setMyMap (uint idx, uint _myMap) public {\n    //   myMap[idx] = _myMap;\n    // }\n\n    function getOwner() public view returns (address) {\n      return owner;\n    }\n\n    function() external payable {\n        // NB sol 0.6+ better syntax for calldata arrays : https://solidity.readthedocs.io/en/v0.6.0/types.html#array-slices\n        bytes memory input = msg.data;\n\n        // TODO: This is V.0 accepting a string (really a bytes32) of EXACTLY 32 bytes, eg a doodle poll without the https:// ;)\n        bytes32 poll32;\n        bytes memory rest;\n        bytes4 fnNameHash;\n        bytes32 result;\n        bytes memory vType;\n\n        (fnNameHash, rest) = (bytesSplit4(input));\n        (poll32, rest) = (bytesSplit32(rest));\n        (result, vType) = (bytesSplit32(rest));\n\n        if (fnNameHash == encodeFunctionName(\"serialiseStakers\")) {\n            //NB wrapping these in bytes32 for testing, but keep as strings until you are ready to deserialise bytes32, cos they still good here!\n            result = string32ToBytes32( serialiseStakers(bytes32ToString(poll32), toUint8(vType)) );\n        }\n        if (fnNameHash == encodeFunctionName(\"serialiseProofs\")) {\n            //NB wrapping these in bytes32 for testing, but keep as strings until you are ready to deserialise bytes32, cos they still good here!\n            result = string32ToBytes32(serialiseProofs(bytes32ToString(poll32), toUint8(vType)) );\n        }\n        // Warning: This hack introduces possible griefing attack - better would be to force EVM to return the result of this lookup from fallback, not store and retreive it :/\n\n        storeResult(poll32, fnNameHash, result, toUint8(vType));\n\n        assembly {\n            let size := 256\n            let ptr := mload(0x40)\n            mstore8(ptr, 88)\n            return(ptr, size)\n        }\n    }\n\n    // function ownAddress () public view returns (address) {\n    //     return selfAddy;\n    // }\n    //\n    // function getStateVars () public view returns (uint256, address, string memory, address, int8) {\n    //     return (notes, validators[1], validatorNames[1], selfAddy, constructed);\n    // }\n    //\n    // event ValidatorSet();\n    // function setValidator1 (address newAddy) public returns (bool) {\n    //     validators[1] = newAddy;\n    //     emit ValidatorSet();\n    //     return true;\n    // }\n    //\n    // function getValidator1 () public view returns (address) {\n    //     return validators[1];\n    // }\n    //\n    // function setValidator1Name (string memory newName) public returns (bool) {\n    //     validatorNames[1] = newName;\n    //     emit ValidatorSet();\n    //     return true;\n    // }\n    //\n    // function getValidator1Name () public view returns (string memory) {\n    //     return validatorNames[1];\n    // }\n\n    // event RetrievedDataCache(string, uint256, bytes32[]);\n    function retrieve (string memory _poll, string memory _fnName, uint8 _vt) public view returns (bytes32[] memory) {\n        bytes32 hash = keccak256(abi.encodePacked(_poll, encodeFunctionName(_fnName), _vt));\n        // emit RetrievedDataCache(\"Poll context:\", notes, allTheData[hash]);\n        return (allTheData[hash]);\n    }\n\n    function set (string memory _poll, string memory _fnName, uint8 _vt, bytes32[] memory data) public {\n      bytes32 hash = keccak256(abi.encodePacked(_poll, encodeFunctionName(_fnName), _vt));\n      // emit RetrievedDataCache(\"Poll context:\", notes, allTheData[hash]);\n      allTheData[hash] = data;\n    }\n\n    function stringsEqual (string memory _a, string memory _b) internal pure returns (bool) {\n        bytes memory a = bytes(_a);\n        bytes memory b = bytes(_b);\n\n        if (a.length != b.length)\n            return false;\n\n        for (uint i = 0; i < a.length; i ++)\n            if (a[i] != b[i])\n                return false;\n\n        return true;\n    }\n\n    function string32ToBytes32(string memory source) public pure returns (bytes32 result) {\n        assembly {\n        result := mload(add(source, 32))\n        }\n    }\n\n    // split a serialised string of addresses (as received from main contract).\n    // NB - only works in mutual agreement validator - other validators will use multiple types within serialised string\n    function splitToAddresses(strings.slice memory concatenated) internal pure returns (address[] memory result) {\n        strings.slice memory delim = \",\".toSlice();\n        address[] memory parts = new address[](concatenated.count(delim));  // why doesn't this lose a member?\n\n        for(uint i = 0; i < parts.length; i++) {\n           parts[i] = concatenated.split(delim).toString().toAddress();\n        }\n        return parts;\n    }\n\n    // function stringToBytes32(string memory source) {\n    //     bytes32[] memory result;\n    //     strings.slice memory remainder = source.toSlice();\n    //     while (remainder.length >= 32) {\n\n    //     }\n\n    // }\n\n\n\n    function bytesToBytes4(bytes  memory b)  public pure returns (bytes4 bts) {\n        bytes4 i = 0x50505050;\n        assembly { i := mload(add(b, 0x20)) }\n        bts = i;\n    }\n\n    function bytesToBytes32(bytes  memory b)  public pure returns (bytes32 bts) {\n        bytes32 i;\n        //NB size etc= 32b = 0x20b\n        assembly { i := mload(add(b, 0x20)) }\n        bts = i;\n    }\n\n    function toUint8(bytes memory _bytes) internal pure returns (uint8) {\n        require(_bytes.length >= (1), \"Read out of bounds\");\n        uint8 tempUint;\n\n        assembly {\n            tempUint := mload(add(add(_bytes, 0x1), 0))\n        }\n\n        return tempUint;\n    }\n\n    function bytes32ToBytes(bytes32 _bytes32) public pure returns (bytes memory){\n        // string memory str = string(_bytes32);\n        // TypeError: Explicit type conversion not allowed from \"bytes32\" to \"string storage pointer\"\n        bytes memory bytesArray = new bytes(32);\n        for (uint256 i; i < 32; i++) {\n            bytesArray[i] = _bytes32[i];\n        }\n        return bytesArray;\n    }\n\n    function bytes32ToString(bytes32 _bytes32) public pure returns (string memory){\n        bytes memory bytesArray = bytes32ToBytes(_bytes32);\n        return string(bytesArray);\n    }\n\n    function bytesSplit4(bytes memory data) public pure returns (bytes4, bytes memory) {\n        uint8 splitAt = 4;                             // all (if variable split, pass in splitAt)\n        uint256 taillength = 0;\n        if (data.length > splitAt)\n            taillength = data.length-splitAt;\n        bytes4 temp;\n        // bytes4 head;                                   // 4b split\n        bytes memory head = new bytes(splitAt);         // variable length split\n        bytes memory tail = new bytes(taillength);\n        for(uint i=0;i<=data.length-1;i++){\n            if (i<splitAt)\n                head[i] = bytes(data)[i] ;\n            else\n                tail[i-splitAt] = bytes(data)[i] ;\n        }\n        return (bytesToBytes4(head), tail);\n    }\n\n    function bytesSplit32(bytes memory data) public pure returns (bytes32, bytes memory) {\n        uint8 splitAt = 32;                             // all (if variable split, pass in splitAt)\n        uint256 taillength = 0;\n        if (data.length > splitAt)\n            taillength = data.length-splitAt;\n        bytes32 temp;\n        // bytes32 head;                                   // 32b split\n        bytes memory head = new bytes(splitAt);         // variable length split\n        bytes memory tail = new bytes(taillength);\n        for(uint i=0;i<=data.length-1;i++){\n            if (i<splitAt)\n                head[i] = bytes(data)[i] ;\n            else\n                tail[i-splitAt] = bytes(data)[i] ;\n        }\n        return (bytesToBytes32(head), tail);\n    }\n\n\n    function encodeFunctionName (string memory name) public pure returns (bytes4) {\n        // TODO: cache for readability!\n        // if (\"serialiseStakers\")\n        //     return\n        // if (\"serialiseStakers\")\n        //     return\n        return bytes4(keccak256(bytes(name)));\n    }\n\n    // temporary functionality to repoint to simple example, eg splitToAddresses\n    function unpackData (string memory packed) internal pure returns (bytes32[] memory result) {\n        //NB relying on splitToAddresses doing string splitting here, as we rely on .length - available only on fixed size array.\n        address[] memory asAddresses = splitToAddresses(packed.toSlice()) ;\n        uint8 i = uint8(asAddresses.length) ;\n\n        while (i-- > 0) {\n            result[i] = bytes32(bytes20(asAddresses[i]));\n        }\n        return result;\n\n\n    }\n\n    function storeResult(bytes32 poll32, bytes4 fnNameHash, bytes32 data, uint8 vt)  public {\n        uint256 notesToStore = 10000+vt;\n        if (vt == 1) {\n\n            bytes32 hash = keccak256(abi.encodePacked(poll32, fnNameHash, vt));\n\n            allTheData[hash] = unpackData(bytes32ToString(data));\n            notesToStore=260;\n        }\n        notes += notesToStore;\n    }\n\n    function serialiseStakers(string memory _poll, uint8 validationType) public view returns (string memory) {\n        string memory result = \"Result! - from poll.serialiseStakers\";\n        return result;\n    }\n\n    function serialiseProofs(string memory _poll, uint8 validationType) public view returns (string memory) {\n        string memory result = \"Result! - from poll.serialiseProofs\";\n    }\n\n    function validate(address _pollContract, string memory _poll, bytes32 _reveal) public payable returns (bool success) {\n    }\n\n        // calls fallback function of contract at validatorAddress, passing 4 byte encoded function name to it to select method.\n    // NB in sol 0.6 + fallback cannot return anything\n    // NB future optimisation : we are not using the functionality of string here, since string must have come from a bytes32\n    event CrossContractValidateBegin();\n    event CrossContractValidateEnd();\n    function crossContractValidateCall (address _validator, bytes4 fnNameHash, string memory poll, uint8 vt, bytes32[] memory reveal)  public returns (bytes32[] memory) {\n        address validator = _validator;\n\n        uint8 offset = 32;\n        // NB 32b offset as space for validator contract address! (assumes no tight packing in calldata)\n        // TODO: this will need to be chucked at the other end, unless you want to do the subtraction in assembly :/\n\n        emit CrossContractValidateBegin();\n        assembly {\n            let ptr := mload(0x40)\n            calldatacopy(ptr, 0, calldatasize)\n            let result := delegatecall(gas, validator, ptr, calldatasize, 0, 0)\n            let size := returndatasize\n            returndatacopy(ptr, 0, size)\n            switch result\n            case 0 { revert(ptr, size) }\n            default { return(ptr, size) }\n        }\n        emit CrossContractValidateEnd();\n    }\n\n    event CrossContractValidateReturned(bool);\n    function callValidator_MututalAgreement(string memory _poll, string memory data) public returns (bool) {\n        uint8 vType = 1;\n        assert (stringsEqual(validatorNames[vType], \"Mutual Agreement\"));\n        bytes32[] memory empty;\n\n        // reveal parameter is unused in mutual agreement\n        validate(validators[vType], _poll, bytes32(0) );\n        crossContractValidateCall(validators[vType], encodeFunctionName(\"validate\") , _poll, vType, empty );\n        //TODO: get return value!\n\n        emit CrossContractValidateReturned(false);\n\n\n    }\n}\n",
  "sourcePath": "/home/teide/randomCode/truffletings/proxyBox/contracts/Poll.sol",
  "compiler": {
    "name": "solc",
    "version": "0.5.16+commit.9c3226ce.Emscripten.clang"
  },
  "schemaVersion": "3.2.0",
  "updatedAt": "2020-06-04T21:35:02.541Z",
  "networkType": "ethereum",
  "devdoc": {
    "methods": {}
  },
  "userdoc": {
    "methods": {}
  }
}