{
  "contractName": "TokenStorage",
  "abi": [
    {
      "inputs": [],
      "payable": false,
      "stateMutability": "nonpayable",
      "type": "constructor"
    },
    {
      "constant": true,
      "inputs": [
        {
          "internalType": "address",
          "name": "account",
          "type": "address"
        }
      ],
      "name": "isOwner",
      "outputs": [
        {
          "internalType": "bool",
          "name": "",
          "type": "bool"
        }
      ],
      "payable": false,
      "stateMutability": "view",
      "type": "function"
    },
    {
      "constant": false,
      "inputs": [
        {
          "internalType": "address",
          "name": "proxyContract",
          "type": "address"
        }
      ],
      "name": "setProxyContract",
      "outputs": [],
      "payable": false,
      "stateMutability": "nonpayable",
      "type": "function"
    },
    {
      "constant": true,
      "inputs": [],
      "name": "getRegistryContract",
      "outputs": [
        {
          "internalType": "address",
          "name": "",
          "type": "address"
        }
      ],
      "payable": false,
      "stateMutability": "view",
      "type": "function"
    },
    {
      "constant": false,
      "inputs": [
        {
          "internalType": "address",
          "name": "_tokenHolder",
          "type": "address"
        },
        {
          "internalType": "address",
          "name": "_spender",
          "type": "address"
        },
        {
          "internalType": "uint256",
          "name": "_value",
          "type": "uint256"
        }
      ],
      "name": "setAllowance",
      "outputs": [],
      "payable": false,
      "stateMutability": "nonpayable",
      "type": "function"
    },
    {
      "constant": true,
      "inputs": [
        {
          "internalType": "address",
          "name": "_tokenHolder",
          "type": "address"
        },
        {
          "internalType": "address",
          "name": "_spender",
          "type": "address"
        }
      ],
      "name": "getAllowance",
      "outputs": [
        {
          "internalType": "uint256",
          "name": "",
          "type": "uint256"
        }
      ],
      "payable": false,
      "stateMutability": "view",
      "type": "function"
    },
    {
      "constant": false,
      "inputs": [
        {
          "internalType": "address",
          "name": "_addr",
          "type": "address"
        },
        {
          "internalType": "uint256",
          "name": "_value",
          "type": "uint256"
        }
      ],
      "name": "addBalance",
      "outputs": [],
      "payable": false,
      "stateMutability": "nonpayable",
      "type": "function"
    },
    {
      "constant": false,
      "inputs": [
        {
          "internalType": "address",
          "name": "_addr",
          "type": "address"
        },
        {
          "internalType": "uint256",
          "name": "_value",
          "type": "uint256"
        }
      ],
      "name": "subBalance",
      "outputs": [],
      "payable": false,
      "stateMutability": "nonpayable",
      "type": "function"
    },
    {
      "constant": false,
      "inputs": [
        {
          "internalType": "address",
          "name": "_addr",
          "type": "address"
        },
        {
          "internalType": "uint256",
          "name": "_value",
          "type": "uint256"
        }
      ],
      "name": "setBalance",
      "outputs": [],
      "payable": false,
      "stateMutability": "nonpayable",
      "type": "function"
    },
    {
      "constant": true,
      "inputs": [
        {
          "internalType": "address",
          "name": "_addr",
          "type": "address"
        }
      ],
      "name": "getBalance",
      "outputs": [
        {
          "internalType": "uint256",
          "name": "",
          "type": "uint256"
        }
      ],
      "payable": false,
      "stateMutability": "view",
      "type": "function"
    },
    {
      "constant": false,
      "inputs": [
        {
          "internalType": "uint256",
          "name": "_value",
          "type": "uint256"
        }
      ],
      "name": "addTotalSupply",
      "outputs": [],
      "payable": false,
      "stateMutability": "nonpayable",
      "type": "function"
    },
    {
      "constant": false,
      "inputs": [
        {
          "internalType": "uint256",
          "name": "_value",
          "type": "uint256"
        }
      ],
      "name": "subTotalSupply",
      "outputs": [],
      "payable": false,
      "stateMutability": "nonpayable",
      "type": "function"
    },
    {
      "constant": false,
      "inputs": [
        {
          "internalType": "uint256",
          "name": "_value",
          "type": "uint256"
        }
      ],
      "name": "setTotalSupply",
      "outputs": [],
      "payable": false,
      "stateMutability": "nonpayable",
      "type": "function"
    },
    {
      "constant": true,
      "inputs": [],
      "name": "getTotalSupply",
      "outputs": [
        {
          "internalType": "uint256",
          "name": "",
          "type": "uint256"
        }
      ],
      "payable": false,
      "stateMutability": "view",
      "type": "function"
    }
  ],
  "bytecode": "0x6080604052600060045534801561001557600080fd5b50336000806101000a81548173ffffffffffffffffffffffffffffffffffffffff021916908373ffffffffffffffffffffffffffffffffffffffff160217905550611242806100656000396000f3fe608060405234801561001057600080fd5b50600436106100cf5760003560e01c8063c4e41b221161008c578063e30443bc11610066578063e30443bc1461038c578063e468688e146103da578063f7ea7a3d14610408578063f8b2cb4f14610436576100cf565b8063c4e41b22146102b2578063cf8eeb7e146102d0578063da46098c1461031e576100cf565b80630af4187d146100d457806321e5383a1461014c5780632f54bf6e1461019a57806336ca3d73146101f65780637137ed471461024057806382838c7614610284575b600080fd5b610136600480360360408110156100ea57600080fd5b81019080803573ffffffffffffffffffffffffffffffffffffffff169060200190929190803573ffffffffffffffffffffffffffffffffffffffff16906020019092919050505061048e565b6040518082815260200191505060405180910390f35b6101986004803603604081101561016257600080fd5b81019080803573ffffffffffffffffffffffffffffffffffffffff169060200190929190803590602001909291905050506105bb565b005b6101dc600480360360208110156101b057600080fd5b81019080803573ffffffffffffffffffffffffffffffffffffffff1690602001909291905050506106fa565b604051808215151515815260200191505060405180910390f35b6101fe610753565b604051808273ffffffffffffffffffffffffffffffffffffffff1673ffffffffffffffffffffffffffffffffffffffff16815260200191505060405180910390f35b6102826004803603602081101561025657600080fd5b81019080803573ffffffffffffffffffffffffffffffffffffffff16906020019092919050505061077d565b005b6102b06004803603602081101561029a57600080fd5b81019080803590602001909291905050506108a5565b005b6102ba610969565b6040518082815260200191505060405180910390f35b61031c600480360360408110156102e657600080fd5b81019080803573ffffffffffffffffffffffffffffffffffffffff16906020019092919080359060200190929190505050610a19565b005b61038a6004803603606081101561033457600080fd5b81019080803573ffffffffffffffffffffffffffffffffffffffff169060200190929190803573ffffffffffffffffffffffffffffffffffffffff16906020019092919080359060200190929190505050610b58565b005b6103d8600480360360408110156103a257600080fd5b81019080803573ffffffffffffffffffffffffffffffffffffffff16906020019092919080359060200190929190505050610c84565b005b610406600480360360208110156103f057600080fd5b8101908080359060200190929190505050610d72565b005b6104346004803603602081101561041e57600080fd5b8101908080359060200190929190505050610e36565b005b6104786004803603602081101561044c57600080fd5b81019080803573ffffffffffffffffffffffffffffffffffffffff169060200190929190505050610ee6565b6040518082815260200191505060405180910390f35b6000600160009054906101000a900473ffffffffffffffffffffffffffffffffffffffff1673ffffffffffffffffffffffffffffffffffffffff163373ffffffffffffffffffffffffffffffffffffffff1614610536576040517f08c379a000000000000000000000000000000000000000000000000000000000815260040180806020018281038252603f8152602001806111cf603f913960400191505060405180910390fd5b600260008473ffffffffffffffffffffffffffffffffffffffff1673ffffffffffffffffffffffffffffffffffffffff16815260200190815260200160002060008373ffffffffffffffffffffffffffffffffffffffff1673ffffffffffffffffffffffffffffffffffffffff16815260200190815260200160002054905092915050565b600160009054906101000a900473ffffffffffffffffffffffffffffffffffffffff1673ffffffffffffffffffffffffffffffffffffffff163373ffffffffffffffffffffffffffffffffffffffff1614610661576040517f08c379a000000000000000000000000000000000000000000000000000000000815260040180806020018281038252603f8152602001806111cf603f913960400191505060405180910390fd5b6106b381600360008573ffffffffffffffffffffffffffffffffffffffff1673ffffffffffffffffffffffffffffffffffffffff16815260200190815260200160002054610fd590919063ffffffff16565b600360008473ffffffffffffffffffffffffffffffffffffffff1673ffffffffffffffffffffffffffffffffffffffff168152602001908152602001600020819055505050565b60008060009054906101000a900473ffffffffffffffffffffffffffffffffffffffff1673ffffffffffffffffffffffffffffffffffffffff168273ffffffffffffffffffffffffffffffffffffffff16149050919050565b6000600160009054906101000a900473ffffffffffffffffffffffffffffffffffffffff16905090565b610786336106fa565b6107db576040517f08c379a000000000000000000000000000000000000000000000000000000000815260040180806020018281038252602e8152602001806111a1602e913960400191505060405180910390fd5b600073ffffffffffffffffffffffffffffffffffffffff168173ffffffffffffffffffffffffffffffffffffffff161415610861576040517f08c379a00000000000000000000000000000000000000000000000000000000081526004018080602001828103825260398152602001806111686039913960400191505060405180910390fd5b80600160006101000a81548173ffffffffffffffffffffffffffffffffffffffff021916908373ffffffffffffffffffffffffffffffffffffffff16021790555050565b600160009054906101000a900473ffffffffffffffffffffffffffffffffffffffff1673ffffffffffffffffffffffffffffffffffffffff163373ffffffffffffffffffffffffffffffffffffffff161461094b576040517f08c379a000000000000000000000000000000000000000000000000000000000815260040180806020018281038252603f8152602001806111cf603f913960400191505060405180910390fd5b6109608160045461105d90919063ffffffff16565b60048190555050565b6000600160009054906101000a900473ffffffffffffffffffffffffffffffffffffffff1673ffffffffffffffffffffffffffffffffffffffff163373ffffffffffffffffffffffffffffffffffffffff1614610a11576040517f08c379a000000000000000000000000000000000000000000000000000000000815260040180806020018281038252603f8152602001806111cf603f913960400191505060405180910390fd5b600454905090565b600160009054906101000a900473ffffffffffffffffffffffffffffffffffffffff1673ffffffffffffffffffffffffffffffffffffffff163373ffffffffffffffffffffffffffffffffffffffff1614610abf576040517f08c379a000000000000000000000000000000000000000000000000000000000815260040180806020018281038252603f8152602001806111cf603f913960400191505060405180910390fd5b610b1181600360008573ffffffffffffffffffffffffffffffffffffffff1673ffffffffffffffffffffffffffffffffffffffff1681526020019081526020016000205461105d90919063ffffffff16565b600360008473ffffffffffffffffffffffffffffffffffffffff1673ffffffffffffffffffffffffffffffffffffffff168152602001908152602001600020819055505050565b600160009054906101000a900473ffffffffffffffffffffffffffffffffffffffff1673ffffffffffffffffffffffffffffffffffffffff163373ffffffffffffffffffffffffffffffffffffffff1614610bfe576040517f08c379a000000000000000000000000000000000000000000000000000000000815260040180806020018281038252603f8152602001806111cf603f913960400191505060405180910390fd5b80600260008573ffffffffffffffffffffffffffffffffffffffff1673ffffffffffffffffffffffffffffffffffffffff16815260200190815260200160002060008473ffffffffffffffffffffffffffffffffffffffff1673ffffffffffffffffffffffffffffffffffffffff16815260200190815260200160002081905550505050565b600160009054906101000a900473ffffffffffffffffffffffffffffffffffffffff1673ffffffffffffffffffffffffffffffffffffffff163373ffffffffffffffffffffffffffffffffffffffff1614610d2a576040517f08c379a000000000000000000000000000000000000000000000000000000000815260040180806020018281038252603f8152602001806111cf603f913960400191505060405180910390fd5b80600360008473ffffffffffffffffffffffffffffffffffffffff1673ffffffffffffffffffffffffffffffffffffffff168152602001908152602001600020819055505050565b600160009054906101000a900473ffffffffffffffffffffffffffffffffffffffff1673ffffffffffffffffffffffffffffffffffffffff163373ffffffffffffffffffffffffffffffffffffffff1614610e18576040517f08c379a000000000000000000000000000000000000000000000000000000000815260040180806020018281038252603f8152602001806111cf603f913960400191505060405180910390fd5b610e2d81600454610fd590919063ffffffff16565b60048190555050565b600160009054906101000a900473ffffffffffffffffffffffffffffffffffffffff1673ffffffffffffffffffffffffffffffffffffffff163373ffffffffffffffffffffffffffffffffffffffff1614610edc576040517f08c379a000000000000000000000000000000000000000000000000000000000815260040180806020018281038252603f8152602001806111cf603f913960400191505060405180910390fd5b8060048190555050565b6000600160009054906101000a900473ffffffffffffffffffffffffffffffffffffffff1673ffffffffffffffffffffffffffffffffffffffff163373ffffffffffffffffffffffffffffffffffffffff1614610f8e576040517f08c379a000000000000000000000000000000000000000000000000000000000815260040180806020018281038252603f8152602001806111cf603f913960400191505060405180910390fd5b600360008373ffffffffffffffffffffffffffffffffffffffff1673ffffffffffffffffffffffffffffffffffffffff168152602001908152602001600020549050919050565b600080828401905083811015611053576040517f08c379a000000000000000000000000000000000000000000000000000000000815260040180806020018281038252601b8152602001807f536166654d6174683a206164646974696f6e206f766572666c6f77000000000081525060200191505060405180910390fd5b8091505092915050565b600061109f83836040518060400160405280601e81526020017f536166654d6174683a207375627472616374696f6e206f766572666c6f7700008152506110a7565b905092915050565b6000838311158290611154576040517f08c379a00000000000000000000000000000000000000000000000000000000081526004018080602001828103825283818151815260200191508051906020019080838360005b838110156111195780820151818401526020810190506110fe565b50505050905090810190601f1680156111465780820380516001836020036101000a031916815260200191505b509250505060405180910390fd5b506000838503905080915050939250505056fe496e76616c6964416464726573733a20696e76616c696420616464726573732070617373656420666f722070726f787920636f6e74726163744f776e6572526f6c653a2063616c6c657220646f6573206e6f74206861766520746865204f776e657220726f6c6541636365737344656e6965643a20546869732061646472657373206973206e6f7420616c6c6f77656420746f20616363657373207468652073746f72616765a265627a7a72315820c1dea69809e31272b91ff31ec31b1b4a9016964642a5dd0be7b9f23eb336dd7264736f6c63430005100032",
  "source": "pragma solidity >=0.4.21 <0.6.0;\n\nimport \"openzeppelin-solidity/contracts/math/SafeMath.sol\";\nimport './Ownable.sol';\n\n/**\n* @author Arvind Kalra (github.com/arvindkalra) and Pranav Singhal (github.com/pranav-singhal)\n* @title TokenStorage\n*/\ncontract TokenStorage  is Ownable{\n    using SafeMath for uint256;\n\n    //    mapping (address => bool) internal _allowedAccess;\n\n    // Access Modifier for Storage contract\n    address internal _registryContract;\n\n    constructor() public {\n        _owner = msg.sender;\n    }\n\n    function setProxyContract(address proxyContract) onlyOwner public{\n        require(proxyContract != address(0), \"InvalidAddress: invalid address passed for proxy contract\");\n        _registryContract = proxyContract;\n    }\n\n    function getRegistryContract() view public returns(address){\n        return _registryContract;\n    }\n\n    //    function addDeligateContract(address upgradedDeligatee) public{\n    //        require(msg.sender == _registryContract, \"AccessDenied: only registry contract allowed access\");\n    //        _allowedAccess[upgradedDeligatee] = true;\n    //    }\n\n    modifier onlyAllowedAccess() {\n        require(msg.sender == _registryContract, \"AccessDenied: This address is not allowed to access the storage\");\n        _;\n    }\n\n    // Allowances with its Getter and Setter\n    mapping (address => mapping (address => uint256)) internal _allowances;\n\n    function setAllowance(address _tokenHolder, address _spender, uint256 _value) public onlyAllowedAccess {\n        _allowances[_tokenHolder][_spender] = _value;\n    }\n\n    function getAllowance(address _tokenHolder, address _spender) public view onlyAllowedAccess returns(uint256){\n        return _allowances[_tokenHolder][_spender];\n    }\n\n\n    // Balances with its Getter and Setter\n    mapping (address => uint256) internal _balances;\n    function addBalance(address _addr, uint256 _value) public onlyAllowedAccess {\n        _balances[_addr] = _balances[_addr].add(_value);\n    }\n\n    function subBalance(address _addr, uint256 _value) public onlyAllowedAccess {\n        _balances[_addr] = _balances[_addr].sub(_value);\n    }\n\n    function setBalance(address _addr, uint256 _value) public onlyAllowedAccess {\n        _balances[_addr] = _value;\n    }\n\n    function getBalance(address _addr) public view onlyAllowedAccess returns(uint256){\n        return _balances[_addr];\n    }\n\n    // Total Supply with Getter and Setter\n    uint256 internal _totalSupply = 0;\n\n    function addTotalSupply(uint256 _value) public onlyAllowedAccess {\n        _totalSupply = _totalSupply.add(_value);\n    }\n\n    function subTotalSupply(uint256 _value) public onlyAllowedAccess {\n        _totalSupply = _totalSupply.sub(_value);\n    }\n\n    function setTotalSupply(uint256 _value) public onlyAllowedAccess {\n        _totalSupply = _value;\n    }\n\n    function getTotalSupply() public view onlyAllowedAccess returns(uint256) {\n        return(_totalSupply);\n    }\n}",
  "sourcePath": "/home/teide/randomCode/truffletings/proxyBox/contracts/TokenStorage.sol",
  "compiler": {
    "name": "solc",
    "version": "0.5.16+commit.9c3226ce.Emscripten.clang"
  },
  "schemaVersion": "3.2.0",
  "updatedAt": "2020-06-02T15:30:12.685Z",
  "networkType": "ethereum",
  "devdoc": {
    "author": "Arvind Kalra (github.com/arvindkalra) and Pranav Singhal (github.com/pranav-singhal)",
    "methods": {},
    "title": "TokenStorage"
  },
  "userdoc": {
    "methods": {}
  }
}